
TestTask.elf:     file format elf32-littlearm

Sections:
Idx Name          Size      VMA       LMA       File off  Algn
  0 .isr_vector   0000010c  08000000  08000000  00010000  2**0
                  CONTENTS, ALLOC, LOAD, READONLY, DATA
  1 .text         00003d60  0800010c  0800010c  0001010c  2**2
                  CONTENTS, ALLOC, LOAD, READONLY, CODE
  2 .rodata       00000028  08003e6c  08003e6c  00013e6c  2**2
                  CONTENTS, ALLOC, LOAD, READONLY, DATA
  3 .ARM.extab    00000000  08003e94  08003e94  00020014  2**0
                  CONTENTS
  4 .ARM          00000000  08003e94  08003e94  00020014  2**0
                  CONTENTS
  5 .preinit_array 00000000  08003e94  08003e94  00020014  2**0
                  CONTENTS, ALLOC, LOAD, DATA
  6 .init_array   00000004  08003e94  08003e94  00013e94  2**2
                  CONTENTS, ALLOC, LOAD, DATA
  7 .fini_array   00000004  08003e98  08003e98  00013e98  2**2
                  CONTENTS, ALLOC, LOAD, DATA
  8 .data         00000014  20000000  08003e9c  00020000  2**2
                  CONTENTS, ALLOC, LOAD, DATA
  9 .bss          00000118  20000018  08003eb0  00020018  2**3
                  ALLOC
 10 ._user_heap_stack 00000600  20000130  08003eb0  00020130  2**0
                  ALLOC
 11 .ARM.attributes 00000029  00000000  00000000  00020014  2**0
                  CONTENTS, READONLY
 12 .debug_info   0000d803  00000000  00000000  0002003d  2**0
                  CONTENTS, READONLY, DEBUGGING, OCTETS
 13 .debug_abbrev 000024a1  00000000  00000000  0002d840  2**0
                  CONTENTS, READONLY, DEBUGGING, OCTETS
 14 .debug_aranges 00000ed0  00000000  00000000  0002fce8  2**3
                  CONTENTS, READONLY, DEBUGGING, OCTETS
 15 .debug_ranges 00000de8  00000000  00000000  00030bb8  2**3
                  CONTENTS, READONLY, DEBUGGING, OCTETS
 16 .debug_macro  00017b72  00000000  00000000  000319a0  2**0
                  CONTENTS, READONLY, DEBUGGING, OCTETS
 17 .debug_line   0000fc64  00000000  00000000  00049512  2**0
                  CONTENTS, READONLY, DEBUGGING, OCTETS
 18 .debug_str    0008bc4d  00000000  00000000  00059176  2**0
                  CONTENTS, READONLY, DEBUGGING, OCTETS
 19 .comment      00000050  00000000  00000000  000e4dc3  2**0
                  CONTENTS, READONLY
 20 .debug_frame  00003d84  00000000  00000000  000e4e14  2**2
                  CONTENTS, READONLY, DEBUGGING, OCTETS

Disassembly of section .text:

0800010c <__do_global_dtors_aux>:
 800010c:	b510      	push	{r4, lr}
 800010e:	4c05      	ldr	r4, [pc, #20]	; (8000124 <__do_global_dtors_aux+0x18>)
 8000110:	7823      	ldrb	r3, [r4, #0]
 8000112:	b933      	cbnz	r3, 8000122 <__do_global_dtors_aux+0x16>
 8000114:	4b04      	ldr	r3, [pc, #16]	; (8000128 <__do_global_dtors_aux+0x1c>)
 8000116:	b113      	cbz	r3, 800011e <__do_global_dtors_aux+0x12>
 8000118:	4804      	ldr	r0, [pc, #16]	; (800012c <__do_global_dtors_aux+0x20>)
 800011a:	f3af 8000 	nop.w
 800011e:	2301      	movs	r3, #1
 8000120:	7023      	strb	r3, [r4, #0]
 8000122:	bd10      	pop	{r4, pc}
 8000124:	20000018 	.word	0x20000018
 8000128:	00000000 	.word	0x00000000
 800012c:	08003e54 	.word	0x08003e54

08000130 <frame_dummy>:
 8000130:	b508      	push	{r3, lr}
 8000132:	4b03      	ldr	r3, [pc, #12]	; (8000140 <frame_dummy+0x10>)
 8000134:	b11b      	cbz	r3, 800013e <frame_dummy+0xe>
 8000136:	4903      	ldr	r1, [pc, #12]	; (8000144 <frame_dummy+0x14>)
 8000138:	4803      	ldr	r0, [pc, #12]	; (8000148 <frame_dummy+0x18>)
 800013a:	f3af 8000 	nop.w
 800013e:	bd08      	pop	{r3, pc}
 8000140:	00000000 	.word	0x00000000
 8000144:	2000001c 	.word	0x2000001c
 8000148:	08003e54 	.word	0x08003e54

0800014c <main>:
/**
  * @brief  The application entry point.
  * @retval int
  */
int main(void)
{
 800014c:	b5b0      	push	{r4, r5, r7, lr}
 800014e:	b082      	sub	sp, #8
 8000150:	af00      	add	r7, sp, #0
  /* USER CODE END 1 */

  /* MCU Configuration--------------------------------------------------------*/

  /* Reset of all peripherals, Initializes the Flash interface and the Systick. */
  HAL_Init();
 8000152:	f000 fc33 	bl	80009bc <HAL_Init>
  /* USER CODE BEGIN Init */

  /* USER CODE END Init */

  /* Configure the system clock */
  SystemClock_Config();
 8000156:	f000 f86b 	bl	8000230 <SystemClock_Config>
  /* USER CODE BEGIN SysInit */

  /* USER CODE END SysInit */

  /* Initialize all configured peripherals */
  MX_GPIO_Init();
 800015a:	f000 f9cd 	bl	80004f8 <MX_GPIO_Init>
  MX_TIM1_Init();
 800015e:	f000 f901 	bl	8000364 <MX_TIM1_Init>
  MX_USART1_UART_Init();
 8000162:	f000 f99f 	bl	80004a4 <MX_USART1_UART_Init>
  MX_ADC1_Init();
 8000166:	f000 f8bf 	bl	80002e8 <MX_ADC1_Init>
  /* USER CODE BEGIN 2 */
	HAL_TIM_PWM_Start(&htim1, TIM_CHANNEL_1);
 800016a:	2100      	movs	r1, #0
 800016c:	4828      	ldr	r0, [pc, #160]	; (8000210 <main+0xc4>)
 800016e:	f002 fb97 	bl	80028a0 <HAL_TIM_PWM_Start>


	uint32_t data32=(*(__IO uint32_t*)FLASH_ADDRESS);
 8000172:	4b28      	ldr	r3, [pc, #160]	; (8000214 <main+0xc8>)
 8000174:	681b      	ldr	r3, [r3, #0]
 8000176:	681b      	ldr	r3, [r3, #0]
 8000178:	607b      	str	r3, [r7, #4]
	FlashData[0]=(uint8_t)(data32);
 800017a:	687b      	ldr	r3, [r7, #4]
 800017c:	b2da      	uxtb	r2, r3
 800017e:	4b26      	ldr	r3, [pc, #152]	; (8000218 <main+0xcc>)
 8000180:	701a      	strb	r2, [r3, #0]
	FlashData[1]=(uint8_t)((data32&(0xff<<8))>>8);
 8000182:	687b      	ldr	r3, [r7, #4]
 8000184:	0a1b      	lsrs	r3, r3, #8
 8000186:	b2da      	uxtb	r2, r3
 8000188:	4b23      	ldr	r3, [pc, #140]	; (8000218 <main+0xcc>)
 800018a:	705a      	strb	r2, [r3, #1]
	FlashData[2]=0xAA;
 800018c:	4b22      	ldr	r3, [pc, #136]	; (8000218 <main+0xcc>)
 800018e:	22aa      	movs	r2, #170	; 0xaa
 8000190:	709a      	strb	r2, [r3, #2]
	FlashData[3]=0xEE;
 8000192:	4b21      	ldr	r3, [pc, #132]	; (8000218 <main+0xcc>)
 8000194:	22ee      	movs	r2, #238	; 0xee
 8000196:	70da      	strb	r2, [r3, #3]
	HAL_FLASH_Unlock();
 8000198:	f001 fac6 	bl	8001728 <HAL_FLASH_Unlock>
	ErasePage(FLASH_ADDRESS);
 800019c:	4b1d      	ldr	r3, [pc, #116]	; (8000214 <main+0xc8>)
 800019e:	681b      	ldr	r3, [r3, #0]
 80001a0:	4618      	mov	r0, r3
 80001a2:	f000 fa01 	bl	80005a8 <ErasePage>
	HAL_FLASH_Program(FLASH_TYPEPROGRAM_WORD, FLASH_ADDRESS, *((uint32_t*)FlashData));
 80001a6:	4b1b      	ldr	r3, [pc, #108]	; (8000214 <main+0xc8>)
 80001a8:	6819      	ldr	r1, [r3, #0]
 80001aa:	4b1b      	ldr	r3, [pc, #108]	; (8000218 <main+0xcc>)
 80001ac:	681b      	ldr	r3, [r3, #0]
 80001ae:	2200      	movs	r2, #0
 80001b0:	461c      	mov	r4, r3
 80001b2:	4615      	mov	r5, r2
 80001b4:	4622      	mov	r2, r4
 80001b6:	462b      	mov	r3, r5
 80001b8:	2002      	movs	r0, #2
 80001ba:	f001 fa45 	bl	8001648 <HAL_FLASH_Program>
	HAL_FLASH_Lock();
 80001be:	f001 fad9 	bl	8001774 <HAL_FLASH_Lock>

	HAL_UART_Receive_IT(&huart1, receiveBuffer+pointerReceiveBuffer, 1);
 80001c2:	4b16      	ldr	r3, [pc, #88]	; (800021c <main+0xd0>)
 80001c4:	781b      	ldrb	r3, [r3, #0]
 80001c6:	461a      	mov	r2, r3
 80001c8:	4b15      	ldr	r3, [pc, #84]	; (8000220 <main+0xd4>)
 80001ca:	4413      	add	r3, r2
 80001cc:	2201      	movs	r2, #1
 80001ce:	4619      	mov	r1, r3
 80001d0:	4814      	ldr	r0, [pc, #80]	; (8000224 <main+0xd8>)
 80001d2:	f003 f9bb 	bl	800354c <HAL_UART_Receive_IT>

  /* Infinite loop */
  /* USER CODE BEGIN WHILE */
  while (1)
  {
	  if(HAL_GPIO_ReadPin (GPIOB, GPIO_PIN_2)==GPIO_PIN_RESET){
 80001d6:	2104      	movs	r1, #4
 80001d8:	4813      	ldr	r0, [pc, #76]	; (8000228 <main+0xdc>)
 80001da:	f001 fdb9 	bl	8001d50 <HAL_GPIO_ReadPin>
 80001de:	4603      	mov	r3, r0
 80001e0:	2b00      	cmp	r3, #0
 80001e2:	d104      	bne.n	80001ee <main+0xa2>
		  TimeDelay=500;
 80001e4:	4b11      	ldr	r3, [pc, #68]	; (800022c <main+0xe0>)
 80001e6:	f44f 72fa 	mov.w	r2, #500	; 0x1f4
 80001ea:	601a      	str	r2, [r3, #0]
 80001ec:	e003      	b.n	80001f6 <main+0xaa>
	  }
	  else{
		  TimeDelay=1000;
 80001ee:	4b0f      	ldr	r3, [pc, #60]	; (800022c <main+0xe0>)
 80001f0:	f44f 727a 	mov.w	r2, #1000	; 0x3e8
 80001f4:	601a      	str	r2, [r3, #0]
	  }
	  HAL_Delay(TimeDelay);
 80001f6:	4b0d      	ldr	r3, [pc, #52]	; (800022c <main+0xe0>)
 80001f8:	681b      	ldr	r3, [r3, #0]
 80001fa:	4618      	mov	r0, r3
 80001fc:	f000 fc40 	bl	8000a80 <HAL_Delay>

	  HAL_UART_Transmit(&huart1, (uint8_t*)FlashData, 2,100);
 8000200:	2364      	movs	r3, #100	; 0x64
 8000202:	2202      	movs	r2, #2
 8000204:	4904      	ldr	r1, [pc, #16]	; (8000218 <main+0xcc>)
 8000206:	4807      	ldr	r0, [pc, #28]	; (8000224 <main+0xd8>)
 8000208:	f003 f90e 	bl	8003428 <HAL_UART_Transmit>
	  if(HAL_GPIO_ReadPin (GPIOB, GPIO_PIN_2)==GPIO_PIN_RESET){
 800020c:	e7e3      	b.n	80001d6 <main+0x8a>
 800020e:	bf00      	nop
 8000210:	20000064 	.word	0x20000064
 8000214:	20000000 	.word	0x20000000
 8000218:	200000f0 	.word	0x200000f0
 800021c:	20000108 	.word	0x20000108
 8000220:	200000f4 	.word	0x200000f4
 8000224:	200000ac 	.word	0x200000ac
 8000228:	40010c00 	.word	0x40010c00
 800022c:	20000004 	.word	0x20000004

08000230 <SystemClock_Config>:
/**
  * @brief System Clock Configuration
  * @retval None
  */
void SystemClock_Config(void)
{
 8000230:	b580      	push	{r7, lr}
 8000232:	b094      	sub	sp, #80	; 0x50
 8000234:	af00      	add	r7, sp, #0
  RCC_OscInitTypeDef RCC_OscInitStruct = {0};
 8000236:	f107 0328 	add.w	r3, r7, #40	; 0x28
 800023a:	2228      	movs	r2, #40	; 0x28
 800023c:	2100      	movs	r1, #0
 800023e:	4618      	mov	r0, r3
 8000240:	f003 fe00 	bl	8003e44 <memset>
  RCC_ClkInitTypeDef RCC_ClkInitStruct = {0};
 8000244:	f107 0314 	add.w	r3, r7, #20
 8000248:	2200      	movs	r2, #0
 800024a:	601a      	str	r2, [r3, #0]
 800024c:	605a      	str	r2, [r3, #4]
 800024e:	609a      	str	r2, [r3, #8]
 8000250:	60da      	str	r2, [r3, #12]
 8000252:	611a      	str	r2, [r3, #16]
  RCC_PeriphCLKInitTypeDef PeriphClkInit = {0};
 8000254:	1d3b      	adds	r3, r7, #4
 8000256:	2200      	movs	r2, #0
 8000258:	601a      	str	r2, [r3, #0]
 800025a:	605a      	str	r2, [r3, #4]
 800025c:	609a      	str	r2, [r3, #8]
 800025e:	60da      	str	r2, [r3, #12]

  /** Initializes the RCC Oscillators according to the specified parameters
  * in the RCC_OscInitTypeDef structure.
  */
  RCC_OscInitStruct.OscillatorType = RCC_OSCILLATORTYPE_HSE;
 8000260:	2301      	movs	r3, #1
 8000262:	62bb      	str	r3, [r7, #40]	; 0x28
  RCC_OscInitStruct.HSEState = RCC_HSE_ON;
 8000264:	f44f 3380 	mov.w	r3, #65536	; 0x10000
 8000268:	62fb      	str	r3, [r7, #44]	; 0x2c
  RCC_OscInitStruct.HSEPredivValue = RCC_HSE_PREDIV_DIV1;
 800026a:	2300      	movs	r3, #0
 800026c:	633b      	str	r3, [r7, #48]	; 0x30
  RCC_OscInitStruct.HSIState = RCC_HSI_ON;
 800026e:	2301      	movs	r3, #1
 8000270:	63bb      	str	r3, [r7, #56]	; 0x38
  RCC_OscInitStruct.PLL.PLLState = RCC_PLL_ON;
 8000272:	2302      	movs	r3, #2
 8000274:	647b      	str	r3, [r7, #68]	; 0x44
  RCC_OscInitStruct.PLL.PLLSource = RCC_PLLSOURCE_HSE;
 8000276:	f44f 3380 	mov.w	r3, #65536	; 0x10000
 800027a:	64bb      	str	r3, [r7, #72]	; 0x48
  RCC_OscInitStruct.PLL.PLLMUL = RCC_PLL_MUL9;
 800027c:	f44f 13e0 	mov.w	r3, #1835008	; 0x1c0000
 8000280:	64fb      	str	r3, [r7, #76]	; 0x4c
  if (HAL_RCC_OscConfig(&RCC_OscInitStruct) != HAL_OK)
 8000282:	f107 0328 	add.w	r3, r7, #40	; 0x28
 8000286:	4618      	mov	r0, r3
 8000288:	f001 fd92 	bl	8001db0 <HAL_RCC_OscConfig>
 800028c:	4603      	mov	r3, r0
 800028e:	2b00      	cmp	r3, #0
 8000290:	d001      	beq.n	8000296 <SystemClock_Config+0x66>
  {
    Error_Handler();
 8000292:	f000 fa03 	bl	800069c <Error_Handler>
  }

  /** Initializes the CPU, AHB and APB buses clocks
  */
  RCC_ClkInitStruct.ClockType = RCC_CLOCKTYPE_HCLK|RCC_CLOCKTYPE_SYSCLK
 8000296:	230f      	movs	r3, #15
 8000298:	617b      	str	r3, [r7, #20]
                              |RCC_CLOCKTYPE_PCLK1|RCC_CLOCKTYPE_PCLK2;
  RCC_ClkInitStruct.SYSCLKSource = RCC_SYSCLKSOURCE_PLLCLK;
 800029a:	2302      	movs	r3, #2
 800029c:	61bb      	str	r3, [r7, #24]
  RCC_ClkInitStruct.AHBCLKDivider = RCC_SYSCLK_DIV1;
 800029e:	2300      	movs	r3, #0
 80002a0:	61fb      	str	r3, [r7, #28]
  RCC_ClkInitStruct.APB1CLKDivider = RCC_HCLK_DIV2;
 80002a2:	f44f 6380 	mov.w	r3, #1024	; 0x400
 80002a6:	623b      	str	r3, [r7, #32]
  RCC_ClkInitStruct.APB2CLKDivider = RCC_HCLK_DIV1;
 80002a8:	2300      	movs	r3, #0
 80002aa:	627b      	str	r3, [r7, #36]	; 0x24

  if (HAL_RCC_ClockConfig(&RCC_ClkInitStruct, FLASH_LATENCY_2) != HAL_OK)
 80002ac:	f107 0314 	add.w	r3, r7, #20
 80002b0:	2102      	movs	r1, #2
 80002b2:	4618      	mov	r0, r3
 80002b4:	f001 fffe 	bl	80022b4 <HAL_RCC_ClockConfig>
 80002b8:	4603      	mov	r3, r0
 80002ba:	2b00      	cmp	r3, #0
 80002bc:	d001      	beq.n	80002c2 <SystemClock_Config+0x92>
  {
    Error_Handler();
 80002be:	f000 f9ed 	bl	800069c <Error_Handler>
  }
  PeriphClkInit.PeriphClockSelection = RCC_PERIPHCLK_ADC;
 80002c2:	2302      	movs	r3, #2
 80002c4:	607b      	str	r3, [r7, #4]
  PeriphClkInit.AdcClockSelection = RCC_ADCPCLK2_DIV6;
 80002c6:	f44f 4300 	mov.w	r3, #32768	; 0x8000
 80002ca:	60fb      	str	r3, [r7, #12]
  if (HAL_RCCEx_PeriphCLKConfig(&PeriphClkInit) != HAL_OK)
 80002cc:	1d3b      	adds	r3, r7, #4
 80002ce:	4618      	mov	r0, r3
 80002d0:	f002 f988 	bl	80025e4 <HAL_RCCEx_PeriphCLKConfig>
 80002d4:	4603      	mov	r3, r0
 80002d6:	2b00      	cmp	r3, #0
 80002d8:	d001      	beq.n	80002de <SystemClock_Config+0xae>
  {
    Error_Handler();
 80002da:	f000 f9df 	bl	800069c <Error_Handler>
  }
}
 80002de:	bf00      	nop
 80002e0:	3750      	adds	r7, #80	; 0x50
 80002e2:	46bd      	mov	sp, r7
 80002e4:	bd80      	pop	{r7, pc}
	...

080002e8 <MX_ADC1_Init>:
  * @brief ADC1 Initialization Function
  * @param None
  * @retval None
  */
static void MX_ADC1_Init(void)
{
 80002e8:	b580      	push	{r7, lr}
 80002ea:	b084      	sub	sp, #16
 80002ec:	af00      	add	r7, sp, #0

  /* USER CODE BEGIN ADC1_Init 0 */

  /* USER CODE END ADC1_Init 0 */

  ADC_ChannelConfTypeDef sConfig = {0};
 80002ee:	1d3b      	adds	r3, r7, #4
 80002f0:	2200      	movs	r2, #0
 80002f2:	601a      	str	r2, [r3, #0]
 80002f4:	605a      	str	r2, [r3, #4]
 80002f6:	609a      	str	r2, [r3, #8]

  /* USER CODE END ADC1_Init 1 */

  /** Common config
  */
  hadc1.Instance = ADC1;
 80002f8:	4b18      	ldr	r3, [pc, #96]	; (800035c <MX_ADC1_Init+0x74>)
 80002fa:	4a19      	ldr	r2, [pc, #100]	; (8000360 <MX_ADC1_Init+0x78>)
 80002fc:	601a      	str	r2, [r3, #0]
  hadc1.Init.ScanConvMode = ADC_SCAN_DISABLE;
 80002fe:	4b17      	ldr	r3, [pc, #92]	; (800035c <MX_ADC1_Init+0x74>)
 8000300:	2200      	movs	r2, #0
 8000302:	609a      	str	r2, [r3, #8]
  hadc1.Init.ContinuousConvMode = DISABLE;
 8000304:	4b15      	ldr	r3, [pc, #84]	; (800035c <MX_ADC1_Init+0x74>)
 8000306:	2200      	movs	r2, #0
 8000308:	731a      	strb	r2, [r3, #12]
  hadc1.Init.DiscontinuousConvMode = DISABLE;
 800030a:	4b14      	ldr	r3, [pc, #80]	; (800035c <MX_ADC1_Init+0x74>)
 800030c:	2200      	movs	r2, #0
 800030e:	751a      	strb	r2, [r3, #20]
  hadc1.Init.ExternalTrigConv = ADC_SOFTWARE_START;
 8000310:	4b12      	ldr	r3, [pc, #72]	; (800035c <MX_ADC1_Init+0x74>)
 8000312:	f44f 2260 	mov.w	r2, #917504	; 0xe0000
 8000316:	61da      	str	r2, [r3, #28]
  hadc1.Init.DataAlign = ADC_DATAALIGN_RIGHT;
 8000318:	4b10      	ldr	r3, [pc, #64]	; (800035c <MX_ADC1_Init+0x74>)
 800031a:	2200      	movs	r2, #0
 800031c:	605a      	str	r2, [r3, #4]
  hadc1.Init.NbrOfConversion = 1;
 800031e:	4b0f      	ldr	r3, [pc, #60]	; (800035c <MX_ADC1_Init+0x74>)
 8000320:	2201      	movs	r2, #1
 8000322:	611a      	str	r2, [r3, #16]
  if (HAL_ADC_Init(&hadc1) != HAL_OK)
 8000324:	480d      	ldr	r0, [pc, #52]	; (800035c <MX_ADC1_Init+0x74>)
 8000326:	f000 fbcf 	bl	8000ac8 <HAL_ADC_Init>
 800032a:	4603      	mov	r3, r0
 800032c:	2b00      	cmp	r3, #0
 800032e:	d001      	beq.n	8000334 <MX_ADC1_Init+0x4c>
  {
    Error_Handler();
 8000330:	f000 f9b4 	bl	800069c <Error_Handler>
  }

  /** Configure Regular Channel
  */
  sConfig.Channel = ADC_CHANNEL_0;
 8000334:	2300      	movs	r3, #0
 8000336:	607b      	str	r3, [r7, #4]
  sConfig.Rank = ADC_REGULAR_RANK_1;
 8000338:	2301      	movs	r3, #1
 800033a:	60bb      	str	r3, [r7, #8]
  sConfig.SamplingTime = ADC_SAMPLETIME_1CYCLE_5;
 800033c:	2300      	movs	r3, #0
 800033e:	60fb      	str	r3, [r7, #12]
  if (HAL_ADC_ConfigChannel(&hadc1, &sConfig) != HAL_OK)
 8000340:	1d3b      	adds	r3, r7, #4
 8000342:	4619      	mov	r1, r3
 8000344:	4805      	ldr	r0, [pc, #20]	; (800035c <MX_ADC1_Init+0x74>)
 8000346:	f000 fe25 	bl	8000f94 <HAL_ADC_ConfigChannel>
 800034a:	4603      	mov	r3, r0
 800034c:	2b00      	cmp	r3, #0
 800034e:	d001      	beq.n	8000354 <MX_ADC1_Init+0x6c>
  {
    Error_Handler();
 8000350:	f000 f9a4 	bl	800069c <Error_Handler>
  }
  /* USER CODE BEGIN ADC1_Init 2 */

  /* USER CODE END ADC1_Init 2 */

}
 8000354:	bf00      	nop
 8000356:	3710      	adds	r7, #16
 8000358:	46bd      	mov	sp, r7
 800035a:	bd80      	pop	{r7, pc}
 800035c:	20000034 	.word	0x20000034
 8000360:	40012400 	.word	0x40012400

08000364 <MX_TIM1_Init>:
  * @brief TIM1 Initialization Function
  * @param None
  * @retval None
  */
static void MX_TIM1_Init(void)
{
 8000364:	b580      	push	{r7, lr}
 8000366:	b096      	sub	sp, #88	; 0x58
 8000368:	af00      	add	r7, sp, #0

  /* USER CODE BEGIN TIM1_Init 0 */

  /* USER CODE END TIM1_Init 0 */

  TIM_ClockConfigTypeDef sClockSourceConfig = {0};
 800036a:	f107 0348 	add.w	r3, r7, #72	; 0x48
 800036e:	2200      	movs	r2, #0
 8000370:	601a      	str	r2, [r3, #0]
 8000372:	605a      	str	r2, [r3, #4]
 8000374:	609a      	str	r2, [r3, #8]
 8000376:	60da      	str	r2, [r3, #12]
  TIM_MasterConfigTypeDef sMasterConfig = {0};
 8000378:	f107 0340 	add.w	r3, r7, #64	; 0x40
 800037c:	2200      	movs	r2, #0
 800037e:	601a      	str	r2, [r3, #0]
 8000380:	605a      	str	r2, [r3, #4]
  TIM_OC_InitTypeDef sConfigOC = {0};
 8000382:	f107 0324 	add.w	r3, r7, #36	; 0x24
 8000386:	2200      	movs	r2, #0
 8000388:	601a      	str	r2, [r3, #0]
 800038a:	605a      	str	r2, [r3, #4]
 800038c:	609a      	str	r2, [r3, #8]
 800038e:	60da      	str	r2, [r3, #12]
 8000390:	611a      	str	r2, [r3, #16]
 8000392:	615a      	str	r2, [r3, #20]
 8000394:	619a      	str	r2, [r3, #24]
  TIM_BreakDeadTimeConfigTypeDef sBreakDeadTimeConfig = {0};
 8000396:	1d3b      	adds	r3, r7, #4
 8000398:	2220      	movs	r2, #32
 800039a:	2100      	movs	r1, #0
 800039c:	4618      	mov	r0, r3
 800039e:	f003 fd51 	bl	8003e44 <memset>

  /* USER CODE BEGIN TIM1_Init 1 */

  /* USER CODE END TIM1_Init 1 */
  htim1.Instance = TIM1;
 80003a2:	4b3e      	ldr	r3, [pc, #248]	; (800049c <MX_TIM1_Init+0x138>)
 80003a4:	4a3e      	ldr	r2, [pc, #248]	; (80004a0 <MX_TIM1_Init+0x13c>)
 80003a6:	601a      	str	r2, [r3, #0]
  htim1.Init.Prescaler = 72-1;
 80003a8:	4b3c      	ldr	r3, [pc, #240]	; (800049c <MX_TIM1_Init+0x138>)
 80003aa:	2247      	movs	r2, #71	; 0x47
 80003ac:	605a      	str	r2, [r3, #4]
  htim1.Init.CounterMode = TIM_COUNTERMODE_UP;
 80003ae:	4b3b      	ldr	r3, [pc, #236]	; (800049c <MX_TIM1_Init+0x138>)
 80003b0:	2200      	movs	r2, #0
 80003b2:	609a      	str	r2, [r3, #8]
  htim1.Init.Period = 200;
 80003b4:	4b39      	ldr	r3, [pc, #228]	; (800049c <MX_TIM1_Init+0x138>)
 80003b6:	22c8      	movs	r2, #200	; 0xc8
 80003b8:	60da      	str	r2, [r3, #12]
  htim1.Init.ClockDivision = TIM_CLOCKDIVISION_DIV1;
 80003ba:	4b38      	ldr	r3, [pc, #224]	; (800049c <MX_TIM1_Init+0x138>)
 80003bc:	2200      	movs	r2, #0
 80003be:	611a      	str	r2, [r3, #16]
  htim1.Init.RepetitionCounter = 0;
 80003c0:	4b36      	ldr	r3, [pc, #216]	; (800049c <MX_TIM1_Init+0x138>)
 80003c2:	2200      	movs	r2, #0
 80003c4:	615a      	str	r2, [r3, #20]
  htim1.Init.AutoReloadPreload = TIM_AUTORELOAD_PRELOAD_DISABLE;
 80003c6:	4b35      	ldr	r3, [pc, #212]	; (800049c <MX_TIM1_Init+0x138>)
 80003c8:	2200      	movs	r2, #0
 80003ca:	619a      	str	r2, [r3, #24]
  if (HAL_TIM_Base_Init(&htim1) != HAL_OK)
 80003cc:	4833      	ldr	r0, [pc, #204]	; (800049c <MX_TIM1_Init+0x138>)
 80003ce:	f002 f9bf 	bl	8002750 <HAL_TIM_Base_Init>
 80003d2:	4603      	mov	r3, r0
 80003d4:	2b00      	cmp	r3, #0
 80003d6:	d001      	beq.n	80003dc <MX_TIM1_Init+0x78>
  {
    Error_Handler();
 80003d8:	f000 f960 	bl	800069c <Error_Handler>
  }
  sClockSourceConfig.ClockSource = TIM_CLOCKSOURCE_INTERNAL;
 80003dc:	f44f 5380 	mov.w	r3, #4096	; 0x1000
 80003e0:	64bb      	str	r3, [r7, #72]	; 0x48
  if (HAL_TIM_ConfigClockSource(&htim1, &sClockSourceConfig) != HAL_OK)
 80003e2:	f107 0348 	add.w	r3, r7, #72	; 0x48
 80003e6:	4619      	mov	r1, r3
 80003e8:	482c      	ldr	r0, [pc, #176]	; (800049c <MX_TIM1_Init+0x138>)
 80003ea:	f002 fbb9 	bl	8002b60 <HAL_TIM_ConfigClockSource>
 80003ee:	4603      	mov	r3, r0
 80003f0:	2b00      	cmp	r3, #0
 80003f2:	d001      	beq.n	80003f8 <MX_TIM1_Init+0x94>
  {
    Error_Handler();
 80003f4:	f000 f952 	bl	800069c <Error_Handler>
  }
  if (HAL_TIM_PWM_Init(&htim1) != HAL_OK)
 80003f8:	4828      	ldr	r0, [pc, #160]	; (800049c <MX_TIM1_Init+0x138>)
 80003fa:	f002 f9f8 	bl	80027ee <HAL_TIM_PWM_Init>
 80003fe:	4603      	mov	r3, r0
 8000400:	2b00      	cmp	r3, #0
 8000402:	d001      	beq.n	8000408 <MX_TIM1_Init+0xa4>
  {
    Error_Handler();
 8000404:	f000 f94a 	bl	800069c <Error_Handler>
  }
  sMasterConfig.MasterOutputTrigger = TIM_TRGO_RESET;
 8000408:	2300      	movs	r3, #0
 800040a:	643b      	str	r3, [r7, #64]	; 0x40
  sMasterConfig.MasterSlaveMode = TIM_MASTERSLAVEMODE_DISABLE;
 800040c:	2300      	movs	r3, #0
 800040e:	647b      	str	r3, [r7, #68]	; 0x44
  if (HAL_TIMEx_MasterConfigSynchronization(&htim1, &sMasterConfig) != HAL_OK)
 8000410:	f107 0340 	add.w	r3, r7, #64	; 0x40
 8000414:	4619      	mov	r1, r3
 8000416:	4821      	ldr	r0, [pc, #132]	; (800049c <MX_TIM1_Init+0x138>)
 8000418:	f002 ff0a 	bl	8003230 <HAL_TIMEx_MasterConfigSynchronization>
 800041c:	4603      	mov	r3, r0
 800041e:	2b00      	cmp	r3, #0
 8000420:	d001      	beq.n	8000426 <MX_TIM1_Init+0xc2>
  {
    Error_Handler();
 8000422:	f000 f93b 	bl	800069c <Error_Handler>
  }
  sConfigOC.OCMode = TIM_OCMODE_PWM1;
 8000426:	2360      	movs	r3, #96	; 0x60
 8000428:	627b      	str	r3, [r7, #36]	; 0x24
  sConfigOC.Pulse = 100;
 800042a:	2364      	movs	r3, #100	; 0x64
 800042c:	62bb      	str	r3, [r7, #40]	; 0x28
  sConfigOC.OCPolarity = TIM_OCPOLARITY_HIGH;
 800042e:	2300      	movs	r3, #0
 8000430:	62fb      	str	r3, [r7, #44]	; 0x2c
  sConfigOC.OCNPolarity = TIM_OCNPOLARITY_HIGH;
 8000432:	2300      	movs	r3, #0
 8000434:	633b      	str	r3, [r7, #48]	; 0x30
  sConfigOC.OCFastMode = TIM_OCFAST_DISABLE;
 8000436:	2300      	movs	r3, #0
 8000438:	637b      	str	r3, [r7, #52]	; 0x34
  sConfigOC.OCIdleState = TIM_OCIDLESTATE_RESET;
 800043a:	2300      	movs	r3, #0
 800043c:	63bb      	str	r3, [r7, #56]	; 0x38
  sConfigOC.OCNIdleState = TIM_OCNIDLESTATE_RESET;
 800043e:	2300      	movs	r3, #0
 8000440:	63fb      	str	r3, [r7, #60]	; 0x3c
  if (HAL_TIM_PWM_ConfigChannel(&htim1, &sConfigOC, TIM_CHANNEL_1) != HAL_OK)
 8000442:	f107 0324 	add.w	r3, r7, #36	; 0x24
 8000446:	2200      	movs	r2, #0
 8000448:	4619      	mov	r1, r3
 800044a:	4814      	ldr	r0, [pc, #80]	; (800049c <MX_TIM1_Init+0x138>)
 800044c:	f002 faca 	bl	80029e4 <HAL_TIM_PWM_ConfigChannel>
 8000450:	4603      	mov	r3, r0
 8000452:	2b00      	cmp	r3, #0
 8000454:	d001      	beq.n	800045a <MX_TIM1_Init+0xf6>
  {
    Error_Handler();
 8000456:	f000 f921 	bl	800069c <Error_Handler>
  }
  sBreakDeadTimeConfig.OffStateRunMode = TIM_OSSR_DISABLE;
 800045a:	2300      	movs	r3, #0
 800045c:	607b      	str	r3, [r7, #4]
  sBreakDeadTimeConfig.OffStateIDLEMode = TIM_OSSI_DISABLE;
 800045e:	2300      	movs	r3, #0
 8000460:	60bb      	str	r3, [r7, #8]
  sBreakDeadTimeConfig.LockLevel = TIM_LOCKLEVEL_OFF;
 8000462:	2300      	movs	r3, #0
 8000464:	60fb      	str	r3, [r7, #12]
  sBreakDeadTimeConfig.DeadTime = 0;
 8000466:	2300      	movs	r3, #0
 8000468:	613b      	str	r3, [r7, #16]
  sBreakDeadTimeConfig.BreakState = TIM_BREAK_DISABLE;
 800046a:	2300      	movs	r3, #0
 800046c:	617b      	str	r3, [r7, #20]
  sBreakDeadTimeConfig.BreakPolarity = TIM_BREAKPOLARITY_HIGH;
 800046e:	f44f 5300 	mov.w	r3, #8192	; 0x2000
 8000472:	61bb      	str	r3, [r7, #24]
  sBreakDeadTimeConfig.AutomaticOutput = TIM_AUTOMATICOUTPUT_DISABLE;
 8000474:	2300      	movs	r3, #0
 8000476:	623b      	str	r3, [r7, #32]
  if (HAL_TIMEx_ConfigBreakDeadTime(&htim1, &sBreakDeadTimeConfig) != HAL_OK)
 8000478:	1d3b      	adds	r3, r7, #4
 800047a:	4619      	mov	r1, r3
 800047c:	4807      	ldr	r0, [pc, #28]	; (800049c <MX_TIM1_Init+0x138>)
 800047e:	f002 ff35 	bl	80032ec <HAL_TIMEx_ConfigBreakDeadTime>
 8000482:	4603      	mov	r3, r0
 8000484:	2b00      	cmp	r3, #0
 8000486:	d001      	beq.n	800048c <MX_TIM1_Init+0x128>
  {
    Error_Handler();
 8000488:	f000 f908 	bl	800069c <Error_Handler>
  }
  /* USER CODE BEGIN TIM1_Init 2 */

  /* USER CODE END TIM1_Init 2 */
  HAL_TIM_MspPostInit(&htim1);
 800048c:	4803      	ldr	r0, [pc, #12]	; (800049c <MX_TIM1_Init+0x138>)
 800048e:	f000 f99f 	bl	80007d0 <HAL_TIM_MspPostInit>

}
 8000492:	bf00      	nop
 8000494:	3758      	adds	r7, #88	; 0x58
 8000496:	46bd      	mov	sp, r7
 8000498:	bd80      	pop	{r7, pc}
 800049a:	bf00      	nop
 800049c:	20000064 	.word	0x20000064
 80004a0:	40012c00 	.word	0x40012c00

080004a4 <MX_USART1_UART_Init>:
  * @brief USART1 Initialization Function
  * @param None
  * @retval None
  */
static void MX_USART1_UART_Init(void)
{
 80004a4:	b580      	push	{r7, lr}
 80004a6:	af00      	add	r7, sp, #0
  /* USER CODE END USART1_Init 0 */

  /* USER CODE BEGIN USART1_Init 1 */

  /* USER CODE END USART1_Init 1 */
  huart1.Instance = USART1;
 80004a8:	4b11      	ldr	r3, [pc, #68]	; (80004f0 <MX_USART1_UART_Init+0x4c>)
 80004aa:	4a12      	ldr	r2, [pc, #72]	; (80004f4 <MX_USART1_UART_Init+0x50>)
 80004ac:	601a      	str	r2, [r3, #0]
  huart1.Init.BaudRate = 9600;
 80004ae:	4b10      	ldr	r3, [pc, #64]	; (80004f0 <MX_USART1_UART_Init+0x4c>)
 80004b0:	f44f 5216 	mov.w	r2, #9600	; 0x2580
 80004b4:	605a      	str	r2, [r3, #4]
  huart1.Init.WordLength = UART_WORDLENGTH_8B;
 80004b6:	4b0e      	ldr	r3, [pc, #56]	; (80004f0 <MX_USART1_UART_Init+0x4c>)
 80004b8:	2200      	movs	r2, #0
 80004ba:	609a      	str	r2, [r3, #8]
  huart1.Init.StopBits = UART_STOPBITS_1;
 80004bc:	4b0c      	ldr	r3, [pc, #48]	; (80004f0 <MX_USART1_UART_Init+0x4c>)
 80004be:	2200      	movs	r2, #0
 80004c0:	60da      	str	r2, [r3, #12]
  huart1.Init.Parity = UART_PARITY_NONE;
 80004c2:	4b0b      	ldr	r3, [pc, #44]	; (80004f0 <MX_USART1_UART_Init+0x4c>)
 80004c4:	2200      	movs	r2, #0
 80004c6:	611a      	str	r2, [r3, #16]
  huart1.Init.Mode = UART_MODE_TX_RX;
 80004c8:	4b09      	ldr	r3, [pc, #36]	; (80004f0 <MX_USART1_UART_Init+0x4c>)
 80004ca:	220c      	movs	r2, #12
 80004cc:	615a      	str	r2, [r3, #20]
  huart1.Init.HwFlowCtl = UART_HWCONTROL_NONE;
 80004ce:	4b08      	ldr	r3, [pc, #32]	; (80004f0 <MX_USART1_UART_Init+0x4c>)
 80004d0:	2200      	movs	r2, #0
 80004d2:	619a      	str	r2, [r3, #24]
  huart1.Init.OverSampling = UART_OVERSAMPLING_16;
 80004d4:	4b06      	ldr	r3, [pc, #24]	; (80004f0 <MX_USART1_UART_Init+0x4c>)
 80004d6:	2200      	movs	r2, #0
 80004d8:	61da      	str	r2, [r3, #28]
  if (HAL_UART_Init(&huart1) != HAL_OK)
 80004da:	4805      	ldr	r0, [pc, #20]	; (80004f0 <MX_USART1_UART_Init+0x4c>)
 80004dc:	f002 ff57 	bl	800338e <HAL_UART_Init>
 80004e0:	4603      	mov	r3, r0
 80004e2:	2b00      	cmp	r3, #0
 80004e4:	d001      	beq.n	80004ea <MX_USART1_UART_Init+0x46>
  {
    Error_Handler();
 80004e6:	f000 f8d9 	bl	800069c <Error_Handler>
  }
  /* USER CODE BEGIN USART1_Init 2 */

  /* USER CODE END USART1_Init 2 */

}
 80004ea:	bf00      	nop
 80004ec:	bd80      	pop	{r7, pc}
 80004ee:	bf00      	nop
 80004f0:	200000ac 	.word	0x200000ac
 80004f4:	40013800 	.word	0x40013800

080004f8 <MX_GPIO_Init>:
  * @brief GPIO Initialization Function
  * @param None
  * @retval None
  */
static void MX_GPIO_Init(void)
{
 80004f8:	b580      	push	{r7, lr}
 80004fa:	b088      	sub	sp, #32
 80004fc:	af00      	add	r7, sp, #0
  GPIO_InitTypeDef GPIO_InitStruct = {0};
 80004fe:	f107 0310 	add.w	r3, r7, #16
 8000502:	2200      	movs	r2, #0
 8000504:	601a      	str	r2, [r3, #0]
 8000506:	605a      	str	r2, [r3, #4]
 8000508:	609a      	str	r2, [r3, #8]
 800050a:	60da      	str	r2, [r3, #12]

  /* GPIO Ports Clock Enable */
  __HAL_RCC_GPIOD_CLK_ENABLE();
 800050c:	4b23      	ldr	r3, [pc, #140]	; (800059c <MX_GPIO_Init+0xa4>)
 800050e:	699b      	ldr	r3, [r3, #24]
 8000510:	4a22      	ldr	r2, [pc, #136]	; (800059c <MX_GPIO_Init+0xa4>)
 8000512:	f043 0320 	orr.w	r3, r3, #32
 8000516:	6193      	str	r3, [r2, #24]
 8000518:	4b20      	ldr	r3, [pc, #128]	; (800059c <MX_GPIO_Init+0xa4>)
 800051a:	699b      	ldr	r3, [r3, #24]
 800051c:	f003 0320 	and.w	r3, r3, #32
 8000520:	60fb      	str	r3, [r7, #12]
 8000522:	68fb      	ldr	r3, [r7, #12]
  __HAL_RCC_GPIOA_CLK_ENABLE();
 8000524:	4b1d      	ldr	r3, [pc, #116]	; (800059c <MX_GPIO_Init+0xa4>)
 8000526:	699b      	ldr	r3, [r3, #24]
 8000528:	4a1c      	ldr	r2, [pc, #112]	; (800059c <MX_GPIO_Init+0xa4>)
 800052a:	f043 0304 	orr.w	r3, r3, #4
 800052e:	6193      	str	r3, [r2, #24]
 8000530:	4b1a      	ldr	r3, [pc, #104]	; (800059c <MX_GPIO_Init+0xa4>)
 8000532:	699b      	ldr	r3, [r3, #24]
 8000534:	f003 0304 	and.w	r3, r3, #4
 8000538:	60bb      	str	r3, [r7, #8]
 800053a:	68bb      	ldr	r3, [r7, #8]
  __HAL_RCC_GPIOB_CLK_ENABLE();
 800053c:	4b17      	ldr	r3, [pc, #92]	; (800059c <MX_GPIO_Init+0xa4>)
 800053e:	699b      	ldr	r3, [r3, #24]
 8000540:	4a16      	ldr	r2, [pc, #88]	; (800059c <MX_GPIO_Init+0xa4>)
 8000542:	f043 0308 	orr.w	r3, r3, #8
 8000546:	6193      	str	r3, [r2, #24]
 8000548:	4b14      	ldr	r3, [pc, #80]	; (800059c <MX_GPIO_Init+0xa4>)
 800054a:	699b      	ldr	r3, [r3, #24]
 800054c:	f003 0308 	and.w	r3, r3, #8
 8000550:	607b      	str	r3, [r7, #4]
 8000552:	687b      	ldr	r3, [r7, #4]

  /*Configure GPIO pin : PB0 */
  GPIO_InitStruct.Pin = GPIO_PIN_0;
 8000554:	2301      	movs	r3, #1
 8000556:	613b      	str	r3, [r7, #16]
  GPIO_InitStruct.Mode = GPIO_MODE_IT_RISING;
 8000558:	4b11      	ldr	r3, [pc, #68]	; (80005a0 <MX_GPIO_Init+0xa8>)
 800055a:	617b      	str	r3, [r7, #20]
  GPIO_InitStruct.Pull = GPIO_PULLUP;
 800055c:	2301      	movs	r3, #1
 800055e:	61bb      	str	r3, [r7, #24]
  HAL_GPIO_Init(GPIOB, &GPIO_InitStruct);
 8000560:	f107 0310 	add.w	r3, r7, #16
 8000564:	4619      	mov	r1, r3
 8000566:	480f      	ldr	r0, [pc, #60]	; (80005a4 <MX_GPIO_Init+0xac>)
 8000568:	f001 fa6e 	bl	8001a48 <HAL_GPIO_Init>

  /*Configure GPIO pin : PB2 */
  GPIO_InitStruct.Pin = GPIO_PIN_2;
 800056c:	2304      	movs	r3, #4
 800056e:	613b      	str	r3, [r7, #16]
  GPIO_InitStruct.Mode = GPIO_MODE_INPUT;
 8000570:	2300      	movs	r3, #0
 8000572:	617b      	str	r3, [r7, #20]
  GPIO_InitStruct.Pull = GPIO_PULLUP;
 8000574:	2301      	movs	r3, #1
 8000576:	61bb      	str	r3, [r7, #24]
  HAL_GPIO_Init(GPIOB, &GPIO_InitStruct);
 8000578:	f107 0310 	add.w	r3, r7, #16
 800057c:	4619      	mov	r1, r3
 800057e:	4809      	ldr	r0, [pc, #36]	; (80005a4 <MX_GPIO_Init+0xac>)
 8000580:	f001 fa62 	bl	8001a48 <HAL_GPIO_Init>

  /* EXTI interrupt init*/
  HAL_NVIC_SetPriority(EXTI0_IRQn, 0, 0);
 8000584:	2200      	movs	r2, #0
 8000586:	2100      	movs	r1, #0
 8000588:	2006      	movs	r0, #6
 800058a:	f000 ff76 	bl	800147a <HAL_NVIC_SetPriority>
  HAL_NVIC_EnableIRQ(EXTI0_IRQn);
 800058e:	2006      	movs	r0, #6
 8000590:	f000 ff8f 	bl	80014b2 <HAL_NVIC_EnableIRQ>

}
 8000594:	bf00      	nop
 8000596:	3720      	adds	r7, #32
 8000598:	46bd      	mov	sp, r7
 800059a:	bd80      	pop	{r7, pc}
 800059c:	40021000 	.word	0x40021000
 80005a0:	10110000 	.word	0x10110000
 80005a4:	40010c00 	.word	0x40010c00

080005a8 <ErasePage>:

/* USER CODE BEGIN 4 */
void ErasePage(uint32_t FLASH_ADDRESS) {
 80005a8:	b580      	push	{r7, lr}
 80005aa:	b088      	sub	sp, #32
 80005ac:	af00      	add	r7, sp, #0
 80005ae:	6078      	str	r0, [r7, #4]
	FLASH_EraseInitTypeDef ef;
	ef.TypeErase = FLASH_TYPEERASE_PAGES; // Посторінково
 80005b0:	2300      	movs	r3, #0
 80005b2:	613b      	str	r3, [r7, #16]
	ef.PageAddress = FLASH_ADDRESS;
 80005b4:	687b      	ldr	r3, [r7, #4]
 80005b6:	61bb      	str	r3, [r7, #24]
	ef.NbPages = 1; //Одну сторінку
 80005b8:	2301      	movs	r3, #1
 80005ba:	61fb      	str	r3, [r7, #28]
	uint32_t temp;//Для дебага - результат стирання
	HAL_FLASHEx_Erase(&ef, &temp);
 80005bc:	f107 020c 	add.w	r2, r7, #12
 80005c0:	f107 0310 	add.w	r3, r7, #16
 80005c4:	4611      	mov	r1, r2
 80005c6:	4618      	mov	r0, r3
 80005c8:	f001 f996 	bl	80018f8 <HAL_FLASHEx_Erase>
}
 80005cc:	bf00      	nop
 80005ce:	3720      	adds	r7, #32
 80005d0:	46bd      	mov	sp, r7
 80005d2:	bd80      	pop	{r7, pc}

080005d4 <HAL_GPIO_EXTI_Callback>:
void HAL_GPIO_EXTI_Callback (uint16_t GPIO_Pin){
 80005d4:	b580      	push	{r7, lr}
 80005d6:	b082      	sub	sp, #8
 80005d8:	af00      	add	r7, sp, #0
 80005da:	4603      	mov	r3, r0
 80005dc:	80fb      	strh	r3, [r7, #6]
	if(GPIO_Pin==GPIO_PIN_0){
 80005de:	88fb      	ldrh	r3, [r7, #6]
 80005e0:	2b01      	cmp	r3, #1
 80005e2:	d102      	bne.n	80005ea <HAL_GPIO_EXTI_Callback+0x16>
		HAL_ADC_Start_IT(&hadc1);
 80005e4:	4803      	ldr	r0, [pc, #12]	; (80005f4 <HAL_GPIO_EXTI_Callback+0x20>)
 80005e6:	f000 fb47 	bl	8000c78 <HAL_ADC_Start_IT>
	}
}
 80005ea:	bf00      	nop
 80005ec:	3708      	adds	r7, #8
 80005ee:	46bd      	mov	sp, r7
 80005f0:	bd80      	pop	{r7, pc}
 80005f2:	bf00      	nop
 80005f4:	20000034 	.word	0x20000034

080005f8 <HAL_ADC_ConvCpltCallback>:
void HAL_ADC_ConvCpltCallback(ADC_HandleTypeDef* hadc)
{
 80005f8:	b580      	push	{r7, lr}
 80005fa:	b082      	sub	sp, #8
 80005fc:	af00      	add	r7, sp, #0
 80005fe:	6078      	str	r0, [r7, #4]
    if(hadc->Instance == ADC1) //check if the interrupt comes from ACD1
 8000600:	687b      	ldr	r3, [r7, #4]
 8000602:	681b      	ldr	r3, [r3, #0]
 8000604:	4a06      	ldr	r2, [pc, #24]	; (8000620 <HAL_ADC_ConvCpltCallback+0x28>)
 8000606:	4293      	cmp	r3, r2
 8000608:	d106      	bne.n	8000618 <HAL_ADC_ConvCpltCallback+0x20>
    {
		adc = HAL_ADC_GetValue(&hadc1);
 800060a:	4806      	ldr	r0, [pc, #24]	; (8000624 <HAL_ADC_ConvCpltCallback+0x2c>)
 800060c:	f000 fbea 	bl	8000de4 <HAL_ADC_GetValue>
 8000610:	4603      	mov	r3, r0
 8000612:	b29a      	uxth	r2, r3
 8000614:	4b04      	ldr	r3, [pc, #16]	; (8000628 <HAL_ADC_ConvCpltCallback+0x30>)
 8000616:	801a      	strh	r2, [r3, #0]
    }
}
 8000618:	bf00      	nop
 800061a:	3708      	adds	r7, #8
 800061c:	46bd      	mov	sp, r7
 800061e:	bd80      	pop	{r7, pc}
 8000620:	40012400 	.word	0x40012400
 8000624:	20000034 	.word	0x20000034
 8000628:	2000010a 	.word	0x2000010a

0800062c <HAL_UART_RxCpltCallback>:
void HAL_UART_RxCpltCallback(UART_HandleTypeDef *huart)
{
 800062c:	b580      	push	{r7, lr}
 800062e:	b082      	sub	sp, #8
 8000630:	af00      	add	r7, sp, #0
 8000632:	6078      	str	r0, [r7, #4]
  if (huart->Instance == USART1)
 8000634:	687b      	ldr	r3, [r7, #4]
 8000636:	681b      	ldr	r3, [r3, #0]
 8000638:	4a13      	ldr	r2, [pc, #76]	; (8000688 <HAL_UART_RxCpltCallback+0x5c>)
 800063a:	4293      	cmp	r3, r2
 800063c:	d11f      	bne.n	800067e <HAL_UART_RxCpltCallback+0x52>
  {
	TIM1->CCR1=*(receiveBuffer+pointerReceiveBuffer);
 800063e:	4b13      	ldr	r3, [pc, #76]	; (800068c <HAL_UART_RxCpltCallback+0x60>)
 8000640:	781b      	ldrb	r3, [r3, #0]
 8000642:	461a      	mov	r2, r3
 8000644:	4b12      	ldr	r3, [pc, #72]	; (8000690 <HAL_UART_RxCpltCallback+0x64>)
 8000646:	4413      	add	r3, r2
 8000648:	781a      	ldrb	r2, [r3, #0]
 800064a:	4b12      	ldr	r3, [pc, #72]	; (8000694 <HAL_UART_RxCpltCallback+0x68>)
 800064c:	635a      	str	r2, [r3, #52]	; 0x34
    if(pointerReceiveBuffer<BUFER_SIZE-1){
 800064e:	4b0f      	ldr	r3, [pc, #60]	; (800068c <HAL_UART_RxCpltCallback+0x60>)
 8000650:	781b      	ldrb	r3, [r3, #0]
 8000652:	2b12      	cmp	r3, #18
 8000654:	d806      	bhi.n	8000664 <HAL_UART_RxCpltCallback+0x38>
    	pointerReceiveBuffer++;
 8000656:	4b0d      	ldr	r3, [pc, #52]	; (800068c <HAL_UART_RxCpltCallback+0x60>)
 8000658:	781b      	ldrb	r3, [r3, #0]
 800065a:	3301      	adds	r3, #1
 800065c:	b2da      	uxtb	r2, r3
 800065e:	4b0b      	ldr	r3, [pc, #44]	; (800068c <HAL_UART_RxCpltCallback+0x60>)
 8000660:	701a      	strb	r2, [r3, #0]
 8000662:	e002      	b.n	800066a <HAL_UART_RxCpltCallback+0x3e>
    }
    else{
    	pointerReceiveBuffer=0;
 8000664:	4b09      	ldr	r3, [pc, #36]	; (800068c <HAL_UART_RxCpltCallback+0x60>)
 8000666:	2200      	movs	r2, #0
 8000668:	701a      	strb	r2, [r3, #0]
    }
    HAL_UART_Receive_IT(&huart1, receiveBuffer+pointerReceiveBuffer, 1);
 800066a:	4b08      	ldr	r3, [pc, #32]	; (800068c <HAL_UART_RxCpltCallback+0x60>)
 800066c:	781b      	ldrb	r3, [r3, #0]
 800066e:	461a      	mov	r2, r3
 8000670:	4b07      	ldr	r3, [pc, #28]	; (8000690 <HAL_UART_RxCpltCallback+0x64>)
 8000672:	4413      	add	r3, r2
 8000674:	2201      	movs	r2, #1
 8000676:	4619      	mov	r1, r3
 8000678:	4807      	ldr	r0, [pc, #28]	; (8000698 <HAL_UART_RxCpltCallback+0x6c>)
 800067a:	f002 ff67 	bl	800354c <HAL_UART_Receive_IT>
  }

}
 800067e:	bf00      	nop
 8000680:	3708      	adds	r7, #8
 8000682:	46bd      	mov	sp, r7
 8000684:	bd80      	pop	{r7, pc}
 8000686:	bf00      	nop
 8000688:	40013800 	.word	0x40013800
 800068c:	20000108 	.word	0x20000108
 8000690:	200000f4 	.word	0x200000f4
 8000694:	40012c00 	.word	0x40012c00
 8000698:	200000ac 	.word	0x200000ac

0800069c <Error_Handler>:
/**
  * @brief  This function is executed in case of error occurrence.
  * @retval None
  */
void Error_Handler(void)
{
 800069c:	b480      	push	{r7}
 800069e:	af00      	add	r7, sp, #0
  \details Disables IRQ interrupts by setting the I-bit in the CPSR.
           Can only be executed in Privileged modes.
 */
__STATIC_FORCEINLINE void __disable_irq(void)
{
  __ASM volatile ("cpsid i" : : : "memory");
 80006a0:	b672      	cpsid	i
}
 80006a2:	bf00      	nop
  /* USER CODE BEGIN Error_Handler_Debug */
  /* User can add his own implementation to report the HAL error return state */
  __disable_irq();
  while (1)
 80006a4:	e7fe      	b.n	80006a4 <Error_Handler+0x8>
	...

080006a8 <HAL_MspInit>:
void HAL_TIM_MspPostInit(TIM_HandleTypeDef *htim);
                    /**
  * Initializes the Global MSP.
  */
void HAL_MspInit(void)
{
 80006a8:	b480      	push	{r7}
 80006aa:	b085      	sub	sp, #20
 80006ac:	af00      	add	r7, sp, #0
  /* USER CODE BEGIN MspInit 0 */

  /* USER CODE END MspInit 0 */

  __HAL_RCC_AFIO_CLK_ENABLE();
 80006ae:	4b15      	ldr	r3, [pc, #84]	; (8000704 <HAL_MspInit+0x5c>)
 80006b0:	699b      	ldr	r3, [r3, #24]
 80006b2:	4a14      	ldr	r2, [pc, #80]	; (8000704 <HAL_MspInit+0x5c>)
 80006b4:	f043 0301 	orr.w	r3, r3, #1
 80006b8:	6193      	str	r3, [r2, #24]
 80006ba:	4b12      	ldr	r3, [pc, #72]	; (8000704 <HAL_MspInit+0x5c>)
 80006bc:	699b      	ldr	r3, [r3, #24]
 80006be:	f003 0301 	and.w	r3, r3, #1
 80006c2:	60bb      	str	r3, [r7, #8]
 80006c4:	68bb      	ldr	r3, [r7, #8]
  __HAL_RCC_PWR_CLK_ENABLE();
 80006c6:	4b0f      	ldr	r3, [pc, #60]	; (8000704 <HAL_MspInit+0x5c>)
 80006c8:	69db      	ldr	r3, [r3, #28]
 80006ca:	4a0e      	ldr	r2, [pc, #56]	; (8000704 <HAL_MspInit+0x5c>)
 80006cc:	f043 5380 	orr.w	r3, r3, #268435456	; 0x10000000
 80006d0:	61d3      	str	r3, [r2, #28]
 80006d2:	4b0c      	ldr	r3, [pc, #48]	; (8000704 <HAL_MspInit+0x5c>)
 80006d4:	69db      	ldr	r3, [r3, #28]
 80006d6:	f003 5380 	and.w	r3, r3, #268435456	; 0x10000000
 80006da:	607b      	str	r3, [r7, #4]
 80006dc:	687b      	ldr	r3, [r7, #4]

  /* System interrupt init*/

  /** NOJTAG: JTAG-DP Disabled and SW-DP Enabled
  */
  __HAL_AFIO_REMAP_SWJ_NOJTAG();
 80006de:	4b0a      	ldr	r3, [pc, #40]	; (8000708 <HAL_MspInit+0x60>)
 80006e0:	685b      	ldr	r3, [r3, #4]
 80006e2:	60fb      	str	r3, [r7, #12]
 80006e4:	68fb      	ldr	r3, [r7, #12]
 80006e6:	f023 63e0 	bic.w	r3, r3, #117440512	; 0x7000000
 80006ea:	60fb      	str	r3, [r7, #12]
 80006ec:	68fb      	ldr	r3, [r7, #12]
 80006ee:	f043 7300 	orr.w	r3, r3, #33554432	; 0x2000000
 80006f2:	60fb      	str	r3, [r7, #12]
 80006f4:	4a04      	ldr	r2, [pc, #16]	; (8000708 <HAL_MspInit+0x60>)
 80006f6:	68fb      	ldr	r3, [r7, #12]
 80006f8:	6053      	str	r3, [r2, #4]

  /* USER CODE BEGIN MspInit 1 */

  /* USER CODE END MspInit 1 */
}
 80006fa:	bf00      	nop
 80006fc:	3714      	adds	r7, #20
 80006fe:	46bd      	mov	sp, r7
 8000700:	bc80      	pop	{r7}
 8000702:	4770      	bx	lr
 8000704:	40021000 	.word	0x40021000
 8000708:	40010000 	.word	0x40010000

0800070c <HAL_ADC_MspInit>:
* This function configures the hardware resources used in this example
* @param hadc: ADC handle pointer
* @retval None
*/
void HAL_ADC_MspInit(ADC_HandleTypeDef* hadc)
{
 800070c:	b580      	push	{r7, lr}
 800070e:	b088      	sub	sp, #32
 8000710:	af00      	add	r7, sp, #0
 8000712:	6078      	str	r0, [r7, #4]
  GPIO_InitTypeDef GPIO_InitStruct = {0};
 8000714:	f107 0310 	add.w	r3, r7, #16
 8000718:	2200      	movs	r2, #0
 800071a:	601a      	str	r2, [r3, #0]
 800071c:	605a      	str	r2, [r3, #4]
 800071e:	609a      	str	r2, [r3, #8]
 8000720:	60da      	str	r2, [r3, #12]
  if(hadc->Instance==ADC1)
 8000722:	687b      	ldr	r3, [r7, #4]
 8000724:	681b      	ldr	r3, [r3, #0]
 8000726:	4a18      	ldr	r2, [pc, #96]	; (8000788 <HAL_ADC_MspInit+0x7c>)
 8000728:	4293      	cmp	r3, r2
 800072a:	d129      	bne.n	8000780 <HAL_ADC_MspInit+0x74>
  {
  /* USER CODE BEGIN ADC1_MspInit 0 */

  /* USER CODE END ADC1_MspInit 0 */
    /* Peripheral clock enable */
    __HAL_RCC_ADC1_CLK_ENABLE();
 800072c:	4b17      	ldr	r3, [pc, #92]	; (800078c <HAL_ADC_MspInit+0x80>)
 800072e:	699b      	ldr	r3, [r3, #24]
 8000730:	4a16      	ldr	r2, [pc, #88]	; (800078c <HAL_ADC_MspInit+0x80>)
 8000732:	f443 7300 	orr.w	r3, r3, #512	; 0x200
 8000736:	6193      	str	r3, [r2, #24]
 8000738:	4b14      	ldr	r3, [pc, #80]	; (800078c <HAL_ADC_MspInit+0x80>)
 800073a:	699b      	ldr	r3, [r3, #24]
 800073c:	f403 7300 	and.w	r3, r3, #512	; 0x200
 8000740:	60fb      	str	r3, [r7, #12]
 8000742:	68fb      	ldr	r3, [r7, #12]

    __HAL_RCC_GPIOA_CLK_ENABLE();
 8000744:	4b11      	ldr	r3, [pc, #68]	; (800078c <HAL_ADC_MspInit+0x80>)
 8000746:	699b      	ldr	r3, [r3, #24]
 8000748:	4a10      	ldr	r2, [pc, #64]	; (800078c <HAL_ADC_MspInit+0x80>)
 800074a:	f043 0304 	orr.w	r3, r3, #4
 800074e:	6193      	str	r3, [r2, #24]
 8000750:	4b0e      	ldr	r3, [pc, #56]	; (800078c <HAL_ADC_MspInit+0x80>)
 8000752:	699b      	ldr	r3, [r3, #24]
 8000754:	f003 0304 	and.w	r3, r3, #4
 8000758:	60bb      	str	r3, [r7, #8]
 800075a:	68bb      	ldr	r3, [r7, #8]
    /**ADC1 GPIO Configuration
    PA0-WKUP     ------> ADC1_IN0
    */
    GPIO_InitStruct.Pin = GPIO_PIN_0;
 800075c:	2301      	movs	r3, #1
 800075e:	613b      	str	r3, [r7, #16]
    GPIO_InitStruct.Mode = GPIO_MODE_ANALOG;
 8000760:	2303      	movs	r3, #3
 8000762:	617b      	str	r3, [r7, #20]
    HAL_GPIO_Init(GPIOA, &GPIO_InitStruct);
 8000764:	f107 0310 	add.w	r3, r7, #16
 8000768:	4619      	mov	r1, r3
 800076a:	4809      	ldr	r0, [pc, #36]	; (8000790 <HAL_ADC_MspInit+0x84>)
 800076c:	f001 f96c 	bl	8001a48 <HAL_GPIO_Init>

    /* ADC1 interrupt Init */
    HAL_NVIC_SetPriority(ADC1_2_IRQn, 0, 0);
 8000770:	2200      	movs	r2, #0
 8000772:	2100      	movs	r1, #0
 8000774:	2012      	movs	r0, #18
 8000776:	f000 fe80 	bl	800147a <HAL_NVIC_SetPriority>
    HAL_NVIC_EnableIRQ(ADC1_2_IRQn);
 800077a:	2012      	movs	r0, #18
 800077c:	f000 fe99 	bl	80014b2 <HAL_NVIC_EnableIRQ>
  /* USER CODE BEGIN ADC1_MspInit 1 */

  /* USER CODE END ADC1_MspInit 1 */
  }

}
 8000780:	bf00      	nop
 8000782:	3720      	adds	r7, #32
 8000784:	46bd      	mov	sp, r7
 8000786:	bd80      	pop	{r7, pc}
 8000788:	40012400 	.word	0x40012400
 800078c:	40021000 	.word	0x40021000
 8000790:	40010800 	.word	0x40010800

08000794 <HAL_TIM_Base_MspInit>:
* This function configures the hardware resources used in this example
* @param htim_base: TIM_Base handle pointer
* @retval None
*/
void HAL_TIM_Base_MspInit(TIM_HandleTypeDef* htim_base)
{
 8000794:	b480      	push	{r7}
 8000796:	b085      	sub	sp, #20
 8000798:	af00      	add	r7, sp, #0
 800079a:	6078      	str	r0, [r7, #4]
  if(htim_base->Instance==TIM1)
 800079c:	687b      	ldr	r3, [r7, #4]
 800079e:	681b      	ldr	r3, [r3, #0]
 80007a0:	4a09      	ldr	r2, [pc, #36]	; (80007c8 <HAL_TIM_Base_MspInit+0x34>)
 80007a2:	4293      	cmp	r3, r2
 80007a4:	d10b      	bne.n	80007be <HAL_TIM_Base_MspInit+0x2a>
  {
  /* USER CODE BEGIN TIM1_MspInit 0 */

  /* USER CODE END TIM1_MspInit 0 */
    /* Peripheral clock enable */
    __HAL_RCC_TIM1_CLK_ENABLE();
 80007a6:	4b09      	ldr	r3, [pc, #36]	; (80007cc <HAL_TIM_Base_MspInit+0x38>)
 80007a8:	699b      	ldr	r3, [r3, #24]
 80007aa:	4a08      	ldr	r2, [pc, #32]	; (80007cc <HAL_TIM_Base_MspInit+0x38>)
 80007ac:	f443 6300 	orr.w	r3, r3, #2048	; 0x800
 80007b0:	6193      	str	r3, [r2, #24]
 80007b2:	4b06      	ldr	r3, [pc, #24]	; (80007cc <HAL_TIM_Base_MspInit+0x38>)
 80007b4:	699b      	ldr	r3, [r3, #24]
 80007b6:	f403 6300 	and.w	r3, r3, #2048	; 0x800
 80007ba:	60fb      	str	r3, [r7, #12]
 80007bc:	68fb      	ldr	r3, [r7, #12]
  /* USER CODE BEGIN TIM1_MspInit 1 */

  /* USER CODE END TIM1_MspInit 1 */
  }

}
 80007be:	bf00      	nop
 80007c0:	3714      	adds	r7, #20
 80007c2:	46bd      	mov	sp, r7
 80007c4:	bc80      	pop	{r7}
 80007c6:	4770      	bx	lr
 80007c8:	40012c00 	.word	0x40012c00
 80007cc:	40021000 	.word	0x40021000

080007d0 <HAL_TIM_MspPostInit>:

void HAL_TIM_MspPostInit(TIM_HandleTypeDef* htim)
{
 80007d0:	b580      	push	{r7, lr}
 80007d2:	b088      	sub	sp, #32
 80007d4:	af00      	add	r7, sp, #0
 80007d6:	6078      	str	r0, [r7, #4]
  GPIO_InitTypeDef GPIO_InitStruct = {0};
 80007d8:	f107 0310 	add.w	r3, r7, #16
 80007dc:	2200      	movs	r2, #0
 80007de:	601a      	str	r2, [r3, #0]
 80007e0:	605a      	str	r2, [r3, #4]
 80007e2:	609a      	str	r2, [r3, #8]
 80007e4:	60da      	str	r2, [r3, #12]
  if(htim->Instance==TIM1)
 80007e6:	687b      	ldr	r3, [r7, #4]
 80007e8:	681b      	ldr	r3, [r3, #0]
 80007ea:	4a10      	ldr	r2, [pc, #64]	; (800082c <HAL_TIM_MspPostInit+0x5c>)
 80007ec:	4293      	cmp	r3, r2
 80007ee:	d118      	bne.n	8000822 <HAL_TIM_MspPostInit+0x52>
  {
  /* USER CODE BEGIN TIM1_MspPostInit 0 */

  /* USER CODE END TIM1_MspPostInit 0 */

    __HAL_RCC_GPIOA_CLK_ENABLE();
 80007f0:	4b0f      	ldr	r3, [pc, #60]	; (8000830 <HAL_TIM_MspPostInit+0x60>)
 80007f2:	699b      	ldr	r3, [r3, #24]
 80007f4:	4a0e      	ldr	r2, [pc, #56]	; (8000830 <HAL_TIM_MspPostInit+0x60>)
 80007f6:	f043 0304 	orr.w	r3, r3, #4
 80007fa:	6193      	str	r3, [r2, #24]
 80007fc:	4b0c      	ldr	r3, [pc, #48]	; (8000830 <HAL_TIM_MspPostInit+0x60>)
 80007fe:	699b      	ldr	r3, [r3, #24]
 8000800:	f003 0304 	and.w	r3, r3, #4
 8000804:	60fb      	str	r3, [r7, #12]
 8000806:	68fb      	ldr	r3, [r7, #12]
    /**TIM1 GPIO Configuration
    PA8     ------> TIM1_CH1
    */
    GPIO_InitStruct.Pin = GPIO_PIN_8;
 8000808:	f44f 7380 	mov.w	r3, #256	; 0x100
 800080c:	613b      	str	r3, [r7, #16]
    GPIO_InitStruct.Mode = GPIO_MODE_AF_PP;
 800080e:	2302      	movs	r3, #2
 8000810:	617b      	str	r3, [r7, #20]
    GPIO_InitStruct.Speed = GPIO_SPEED_FREQ_LOW;
 8000812:	2302      	movs	r3, #2
 8000814:	61fb      	str	r3, [r7, #28]
    HAL_GPIO_Init(GPIOA, &GPIO_InitStruct);
 8000816:	f107 0310 	add.w	r3, r7, #16
 800081a:	4619      	mov	r1, r3
 800081c:	4805      	ldr	r0, [pc, #20]	; (8000834 <HAL_TIM_MspPostInit+0x64>)
 800081e:	f001 f913 	bl	8001a48 <HAL_GPIO_Init>
  /* USER CODE BEGIN TIM1_MspPostInit 1 */

  /* USER CODE END TIM1_MspPostInit 1 */
  }

}
 8000822:	bf00      	nop
 8000824:	3720      	adds	r7, #32
 8000826:	46bd      	mov	sp, r7
 8000828:	bd80      	pop	{r7, pc}
 800082a:	bf00      	nop
 800082c:	40012c00 	.word	0x40012c00
 8000830:	40021000 	.word	0x40021000
 8000834:	40010800 	.word	0x40010800

08000838 <HAL_UART_MspInit>:
* This function configures the hardware resources used in this example
* @param huart: UART handle pointer
* @retval None
*/
void HAL_UART_MspInit(UART_HandleTypeDef* huart)
{
 8000838:	b580      	push	{r7, lr}
 800083a:	b088      	sub	sp, #32
 800083c:	af00      	add	r7, sp, #0
 800083e:	6078      	str	r0, [r7, #4]
  GPIO_InitTypeDef GPIO_InitStruct = {0};
 8000840:	f107 0310 	add.w	r3, r7, #16
 8000844:	2200      	movs	r2, #0
 8000846:	601a      	str	r2, [r3, #0]
 8000848:	605a      	str	r2, [r3, #4]
 800084a:	609a      	str	r2, [r3, #8]
 800084c:	60da      	str	r2, [r3, #12]
  if(huart->Instance==USART1)
 800084e:	687b      	ldr	r3, [r7, #4]
 8000850:	681b      	ldr	r3, [r3, #0]
 8000852:	4a20      	ldr	r2, [pc, #128]	; (80008d4 <HAL_UART_MspInit+0x9c>)
 8000854:	4293      	cmp	r3, r2
 8000856:	d139      	bne.n	80008cc <HAL_UART_MspInit+0x94>
  {
  /* USER CODE BEGIN USART1_MspInit 0 */

  /* USER CODE END USART1_MspInit 0 */
    /* Peripheral clock enable */
    __HAL_RCC_USART1_CLK_ENABLE();
 8000858:	4b1f      	ldr	r3, [pc, #124]	; (80008d8 <HAL_UART_MspInit+0xa0>)
 800085a:	699b      	ldr	r3, [r3, #24]
 800085c:	4a1e      	ldr	r2, [pc, #120]	; (80008d8 <HAL_UART_MspInit+0xa0>)
 800085e:	f443 4380 	orr.w	r3, r3, #16384	; 0x4000
 8000862:	6193      	str	r3, [r2, #24]
 8000864:	4b1c      	ldr	r3, [pc, #112]	; (80008d8 <HAL_UART_MspInit+0xa0>)
 8000866:	699b      	ldr	r3, [r3, #24]
 8000868:	f403 4380 	and.w	r3, r3, #16384	; 0x4000
 800086c:	60fb      	str	r3, [r7, #12]
 800086e:	68fb      	ldr	r3, [r7, #12]

    __HAL_RCC_GPIOA_CLK_ENABLE();
 8000870:	4b19      	ldr	r3, [pc, #100]	; (80008d8 <HAL_UART_MspInit+0xa0>)
 8000872:	699b      	ldr	r3, [r3, #24]
 8000874:	4a18      	ldr	r2, [pc, #96]	; (80008d8 <HAL_UART_MspInit+0xa0>)
 8000876:	f043 0304 	orr.w	r3, r3, #4
 800087a:	6193      	str	r3, [r2, #24]
 800087c:	4b16      	ldr	r3, [pc, #88]	; (80008d8 <HAL_UART_MspInit+0xa0>)
 800087e:	699b      	ldr	r3, [r3, #24]
 8000880:	f003 0304 	and.w	r3, r3, #4
 8000884:	60bb      	str	r3, [r7, #8]
 8000886:	68bb      	ldr	r3, [r7, #8]
    /**USART1 GPIO Configuration
    PA9     ------> USART1_TX
    PA10     ------> USART1_RX
    */
    GPIO_InitStruct.Pin = GPIO_PIN_9;
 8000888:	f44f 7300 	mov.w	r3, #512	; 0x200
 800088c:	613b      	str	r3, [r7, #16]
    GPIO_InitStruct.Mode = GPIO_MODE_AF_PP;
 800088e:	2302      	movs	r3, #2
 8000890:	617b      	str	r3, [r7, #20]
    GPIO_InitStruct.Speed = GPIO_SPEED_FREQ_HIGH;
 8000892:	2303      	movs	r3, #3
 8000894:	61fb      	str	r3, [r7, #28]
    HAL_GPIO_Init(GPIOA, &GPIO_InitStruct);
 8000896:	f107 0310 	add.w	r3, r7, #16
 800089a:	4619      	mov	r1, r3
 800089c:	480f      	ldr	r0, [pc, #60]	; (80008dc <HAL_UART_MspInit+0xa4>)
 800089e:	f001 f8d3 	bl	8001a48 <HAL_GPIO_Init>

    GPIO_InitStruct.Pin = GPIO_PIN_10;
 80008a2:	f44f 6380 	mov.w	r3, #1024	; 0x400
 80008a6:	613b      	str	r3, [r7, #16]
    GPIO_InitStruct.Mode = GPIO_MODE_INPUT;
 80008a8:	2300      	movs	r3, #0
 80008aa:	617b      	str	r3, [r7, #20]
    GPIO_InitStruct.Pull = GPIO_NOPULL;
 80008ac:	2300      	movs	r3, #0
 80008ae:	61bb      	str	r3, [r7, #24]
    HAL_GPIO_Init(GPIOA, &GPIO_InitStruct);
 80008b0:	f107 0310 	add.w	r3, r7, #16
 80008b4:	4619      	mov	r1, r3
 80008b6:	4809      	ldr	r0, [pc, #36]	; (80008dc <HAL_UART_MspInit+0xa4>)
 80008b8:	f001 f8c6 	bl	8001a48 <HAL_GPIO_Init>

    /* USART1 interrupt Init */
    HAL_NVIC_SetPriority(USART1_IRQn, 0, 0);
 80008bc:	2200      	movs	r2, #0
 80008be:	2100      	movs	r1, #0
 80008c0:	2025      	movs	r0, #37	; 0x25
 80008c2:	f000 fdda 	bl	800147a <HAL_NVIC_SetPriority>
    HAL_NVIC_EnableIRQ(USART1_IRQn);
 80008c6:	2025      	movs	r0, #37	; 0x25
 80008c8:	f000 fdf3 	bl	80014b2 <HAL_NVIC_EnableIRQ>
  /* USER CODE BEGIN USART1_MspInit 1 */

  /* USER CODE END USART1_MspInit 1 */
  }

}
 80008cc:	bf00      	nop
 80008ce:	3720      	adds	r7, #32
 80008d0:	46bd      	mov	sp, r7
 80008d2:	bd80      	pop	{r7, pc}
 80008d4:	40013800 	.word	0x40013800
 80008d8:	40021000 	.word	0x40021000
 80008dc:	40010800 	.word	0x40010800

080008e0 <NMI_Handler>:
/******************************************************************************/
/**
  * @brief This function handles Non maskable interrupt.
  */
void NMI_Handler(void)
{
 80008e0:	b480      	push	{r7}
 80008e2:	af00      	add	r7, sp, #0
  /* USER CODE BEGIN NonMaskableInt_IRQn 0 */

  /* USER CODE END NonMaskableInt_IRQn 0 */
  /* USER CODE BEGIN NonMaskableInt_IRQn 1 */
  while (1)
 80008e4:	e7fe      	b.n	80008e4 <NMI_Handler+0x4>

080008e6 <HardFault_Handler>:

/**
  * @brief This function handles Hard fault interrupt.
  */
void HardFault_Handler(void)
{
 80008e6:	b480      	push	{r7}
 80008e8:	af00      	add	r7, sp, #0
  /* USER CODE BEGIN HardFault_IRQn 0 */

  /* USER CODE END HardFault_IRQn 0 */
  while (1)
 80008ea:	e7fe      	b.n	80008ea <HardFault_Handler+0x4>

080008ec <MemManage_Handler>:

/**
  * @brief This function handles Memory management fault.
  */
void MemManage_Handler(void)
{
 80008ec:	b480      	push	{r7}
 80008ee:	af00      	add	r7, sp, #0
  /* USER CODE BEGIN MemoryManagement_IRQn 0 */

  /* USER CODE END MemoryManagement_IRQn 0 */
  while (1)
 80008f0:	e7fe      	b.n	80008f0 <MemManage_Handler+0x4>

080008f2 <BusFault_Handler>:

/**
  * @brief This function handles Prefetch fault, memory access fault.
  */
void BusFault_Handler(void)
{
 80008f2:	b480      	push	{r7}
 80008f4:	af00      	add	r7, sp, #0
  /* USER CODE BEGIN BusFault_IRQn 0 */

  /* USER CODE END BusFault_IRQn 0 */
  while (1)
 80008f6:	e7fe      	b.n	80008f6 <BusFault_Handler+0x4>

080008f8 <UsageFault_Handler>:

/**
  * @brief This function handles Undefined instruction or illegal state.
  */
void UsageFault_Handler(void)
{
 80008f8:	b480      	push	{r7}
 80008fa:	af00      	add	r7, sp, #0
  /* USER CODE BEGIN UsageFault_IRQn 0 */

  /* USER CODE END UsageFault_IRQn 0 */
  while (1)
 80008fc:	e7fe      	b.n	80008fc <UsageFault_Handler+0x4>

080008fe <SVC_Handler>:

/**
  * @brief This function handles System service call via SWI instruction.
  */
void SVC_Handler(void)
{
 80008fe:	b480      	push	{r7}
 8000900:	af00      	add	r7, sp, #0

  /* USER CODE END SVCall_IRQn 0 */
  /* USER CODE BEGIN SVCall_IRQn 1 */

  /* USER CODE END SVCall_IRQn 1 */
}
 8000902:	bf00      	nop
 8000904:	46bd      	mov	sp, r7
 8000906:	bc80      	pop	{r7}
 8000908:	4770      	bx	lr

0800090a <DebugMon_Handler>:

/**
  * @brief This function handles Debug monitor.
  */
void DebugMon_Handler(void)
{
 800090a:	b480      	push	{r7}
 800090c:	af00      	add	r7, sp, #0

  /* USER CODE END DebugMonitor_IRQn 0 */
  /* USER CODE BEGIN DebugMonitor_IRQn 1 */

  /* USER CODE END DebugMonitor_IRQn 1 */
}
 800090e:	bf00      	nop
 8000910:	46bd      	mov	sp, r7
 8000912:	bc80      	pop	{r7}
 8000914:	4770      	bx	lr

08000916 <PendSV_Handler>:

/**
  * @brief This function handles Pendable request for system service.
  */
void PendSV_Handler(void)
{
 8000916:	b480      	push	{r7}
 8000918:	af00      	add	r7, sp, #0

  /* USER CODE END PendSV_IRQn 0 */
  /* USER CODE BEGIN PendSV_IRQn 1 */

  /* USER CODE END PendSV_IRQn 1 */
}
 800091a:	bf00      	nop
 800091c:	46bd      	mov	sp, r7
 800091e:	bc80      	pop	{r7}
 8000920:	4770      	bx	lr

08000922 <SysTick_Handler>:

/**
  * @brief This function handles System tick timer.
  */
void SysTick_Handler(void)
{
 8000922:	b580      	push	{r7, lr}
 8000924:	af00      	add	r7, sp, #0
  /* USER CODE BEGIN SysTick_IRQn 0 */

  /* USER CODE END SysTick_IRQn 0 */
  HAL_IncTick();
 8000926:	f000 f88f 	bl	8000a48 <HAL_IncTick>
  /* USER CODE BEGIN SysTick_IRQn 1 */

  /* USER CODE END SysTick_IRQn 1 */
}
 800092a:	bf00      	nop
 800092c:	bd80      	pop	{r7, pc}

0800092e <EXTI0_IRQHandler>:

/**
  * @brief This function handles EXTI line0 interrupt.
  */
void EXTI0_IRQHandler(void)
{
 800092e:	b580      	push	{r7, lr}
 8000930:	af00      	add	r7, sp, #0
  /* USER CODE BEGIN EXTI0_IRQn 0 */

  /* USER CODE END EXTI0_IRQn 0 */
  HAL_GPIO_EXTI_IRQHandler(GPIO_PIN_0);
 8000932:	2001      	movs	r0, #1
 8000934:	f001 fa24 	bl	8001d80 <HAL_GPIO_EXTI_IRQHandler>
  /* USER CODE BEGIN EXTI0_IRQn 1 */

  /* USER CODE END EXTI0_IRQn 1 */
}
 8000938:	bf00      	nop
 800093a:	bd80      	pop	{r7, pc}

0800093c <ADC1_2_IRQHandler>:

/**
  * @brief This function handles ADC1 and ADC2 global interrupts.
  */
void ADC1_2_IRQHandler(void)
{
 800093c:	b580      	push	{r7, lr}
 800093e:	af00      	add	r7, sp, #0
  /* USER CODE BEGIN ADC1_2_IRQn 0 */

  /* USER CODE END ADC1_2_IRQn 0 */
  HAL_ADC_IRQHandler(&hadc1);
 8000940:	4802      	ldr	r0, [pc, #8]	; (800094c <ADC1_2_IRQHandler+0x10>)
 8000942:	f000 fa5b 	bl	8000dfc <HAL_ADC_IRQHandler>
  /* USER CODE BEGIN ADC1_2_IRQn 1 */

  /* USER CODE END ADC1_2_IRQn 1 */
}
 8000946:	bf00      	nop
 8000948:	bd80      	pop	{r7, pc}
 800094a:	bf00      	nop
 800094c:	20000034 	.word	0x20000034

08000950 <USART1_IRQHandler>:

/**
  * @brief This function handles USART1 global interrupt.
  */
void USART1_IRQHandler(void)
{
 8000950:	b580      	push	{r7, lr}
 8000952:	af00      	add	r7, sp, #0
  /* USER CODE BEGIN USART1_IRQn 0 */

  /* USER CODE END USART1_IRQn 0 */
  HAL_UART_IRQHandler(&huart1);
 8000954:	4802      	ldr	r0, [pc, #8]	; (8000960 <USART1_IRQHandler+0x10>)
 8000956:	f002 fe29 	bl	80035ac <HAL_UART_IRQHandler>
  /* USER CODE BEGIN USART1_IRQn 1 */

  /* USER CODE END USART1_IRQn 1 */
}
 800095a:	bf00      	nop
 800095c:	bd80      	pop	{r7, pc}
 800095e:	bf00      	nop
 8000960:	200000ac 	.word	0x200000ac

08000964 <SystemInit>:
  * @note   This function should be used only after reset.
  * @param  None
  * @retval None
  */
void SystemInit (void)
{
 8000964:	b480      	push	{r7}
 8000966:	af00      	add	r7, sp, #0

  /* Configure the Vector Table location -------------------------------------*/
#if defined(USER_VECT_TAB_ADDRESS)
  SCB->VTOR = VECT_TAB_BASE_ADDRESS | VECT_TAB_OFFSET; /* Vector Table Relocation in Internal SRAM. */
#endif /* USER_VECT_TAB_ADDRESS */
}
 8000968:	bf00      	nop
 800096a:	46bd      	mov	sp, r7
 800096c:	bc80      	pop	{r7}
 800096e:	4770      	bx	lr

08000970 <Reset_Handler>:
  .weak Reset_Handler
  .type Reset_Handler, %function
Reset_Handler:

/* Copy the data segment initializers from flash to SRAM */
  ldr r0, =_sdata
 8000970:	480c      	ldr	r0, [pc, #48]	; (80009a4 <LoopFillZerobss+0x12>)
  ldr r1, =_edata
 8000972:	490d      	ldr	r1, [pc, #52]	; (80009a8 <LoopFillZerobss+0x16>)
  ldr r2, =_sidata
 8000974:	4a0d      	ldr	r2, [pc, #52]	; (80009ac <LoopFillZerobss+0x1a>)
  movs r3, #0
 8000976:	2300      	movs	r3, #0
  b LoopCopyDataInit
 8000978:	e002      	b.n	8000980 <LoopCopyDataInit>

0800097a <CopyDataInit>:

CopyDataInit:
  ldr r4, [r2, r3]
 800097a:	58d4      	ldr	r4, [r2, r3]
  str r4, [r0, r3]
 800097c:	50c4      	str	r4, [r0, r3]
  adds r3, r3, #4
 800097e:	3304      	adds	r3, #4

08000980 <LoopCopyDataInit>:

LoopCopyDataInit:
  adds r4, r0, r3
 8000980:	18c4      	adds	r4, r0, r3
  cmp r4, r1
 8000982:	428c      	cmp	r4, r1
  bcc CopyDataInit
 8000984:	d3f9      	bcc.n	800097a <CopyDataInit>
  
/* Zero fill the bss segment. */
  ldr r2, =_sbss
 8000986:	4a0a      	ldr	r2, [pc, #40]	; (80009b0 <LoopFillZerobss+0x1e>)
  ldr r4, =_ebss
 8000988:	4c0a      	ldr	r4, [pc, #40]	; (80009b4 <LoopFillZerobss+0x22>)
  movs r3, #0
 800098a:	2300      	movs	r3, #0
  b LoopFillZerobss
 800098c:	e001      	b.n	8000992 <LoopFillZerobss>

0800098e <FillZerobss>:

FillZerobss:
  str  r3, [r2]
 800098e:	6013      	str	r3, [r2, #0]
  adds r2, r2, #4
 8000990:	3204      	adds	r2, #4

08000992 <LoopFillZerobss>:

LoopFillZerobss:
  cmp r2, r4
 8000992:	42a2      	cmp	r2, r4
  bcc FillZerobss
 8000994:	d3fb      	bcc.n	800098e <FillZerobss>

/* Call the clock system intitialization function.*/
    bl  SystemInit
 8000996:	f7ff ffe5 	bl	8000964 <SystemInit>
/* Call static constructors */
    bl __libc_init_array
 800099a:	f003 fa2f 	bl	8003dfc <__libc_init_array>
/* Call the application's entry point.*/
  bl main
 800099e:	f7ff fbd5 	bl	800014c <main>
  bx lr
 80009a2:	4770      	bx	lr
  ldr r0, =_sdata
 80009a4:	20000000 	.word	0x20000000
  ldr r1, =_edata
 80009a8:	20000014 	.word	0x20000014
  ldr r2, =_sidata
 80009ac:	08003e9c 	.word	0x08003e9c
  ldr r2, =_sbss
 80009b0:	20000018 	.word	0x20000018
  ldr r4, =_ebss
 80009b4:	20000130 	.word	0x20000130

080009b8 <CAN1_RX1_IRQHandler>:
 * @retval : None
*/
    .section .text.Default_Handler,"ax",%progbits
Default_Handler:
Infinite_Loop:
  b Infinite_Loop
 80009b8:	e7fe      	b.n	80009b8 <CAN1_RX1_IRQHandler>
	...

080009bc <HAL_Init>:
  *         need to ensure that the SysTick time base is always set to 1 millisecond
  *         to have correct HAL operation.
  * @retval HAL status
  */
HAL_StatusTypeDef HAL_Init(void)
{
 80009bc:	b580      	push	{r7, lr}
 80009be:	af00      	add	r7, sp, #0
    defined(STM32F102x6) || defined(STM32F102xB) || \
    defined(STM32F103x6) || defined(STM32F103xB) || defined(STM32F103xE) || defined(STM32F103xG) || \
    defined(STM32F105xC) || defined(STM32F107xC)

  /* Prefetch buffer is not available on value line devices */
  __HAL_FLASH_PREFETCH_BUFFER_ENABLE();
 80009c0:	4b08      	ldr	r3, [pc, #32]	; (80009e4 <HAL_Init+0x28>)
 80009c2:	681b      	ldr	r3, [r3, #0]
 80009c4:	4a07      	ldr	r2, [pc, #28]	; (80009e4 <HAL_Init+0x28>)
 80009c6:	f043 0310 	orr.w	r3, r3, #16
 80009ca:	6013      	str	r3, [r2, #0]
#endif
#endif /* PREFETCH_ENABLE */

  /* Set Interrupt Group Priority */
  HAL_NVIC_SetPriorityGrouping(NVIC_PRIORITYGROUP_4);
 80009cc:	2003      	movs	r0, #3
 80009ce:	f000 fd49 	bl	8001464 <HAL_NVIC_SetPriorityGrouping>

  /* Use systick as time base source and configure 1ms tick (default clock after Reset is HSI) */
  HAL_InitTick(TICK_INT_PRIORITY);
 80009d2:	200f      	movs	r0, #15
 80009d4:	f000 f808 	bl	80009e8 <HAL_InitTick>

  /* Init the low level hardware */
  HAL_MspInit();
 80009d8:	f7ff fe66 	bl	80006a8 <HAL_MspInit>

  /* Return function status */
  return HAL_OK;
 80009dc:	2300      	movs	r3, #0
}
 80009de:	4618      	mov	r0, r3
 80009e0:	bd80      	pop	{r7, pc}
 80009e2:	bf00      	nop
 80009e4:	40022000 	.word	0x40022000

080009e8 <HAL_InitTick>:
  *       implementation  in user file.
  * @param TickPriority Tick interrupt priority.
  * @retval HAL status
  */
__weak HAL_StatusTypeDef HAL_InitTick(uint32_t TickPriority)
{
 80009e8:	b580      	push	{r7, lr}
 80009ea:	b082      	sub	sp, #8
 80009ec:	af00      	add	r7, sp, #0
 80009ee:	6078      	str	r0, [r7, #4]
  /* Configure the SysTick to have interrupt in 1ms time basis*/
  if (HAL_SYSTICK_Config(SystemCoreClock / (1000U / uwTickFreq)) > 0U)
 80009f0:	4b12      	ldr	r3, [pc, #72]	; (8000a3c <HAL_InitTick+0x54>)
 80009f2:	681a      	ldr	r2, [r3, #0]
 80009f4:	4b12      	ldr	r3, [pc, #72]	; (8000a40 <HAL_InitTick+0x58>)
 80009f6:	781b      	ldrb	r3, [r3, #0]
 80009f8:	4619      	mov	r1, r3
 80009fa:	f44f 737a 	mov.w	r3, #1000	; 0x3e8
 80009fe:	fbb3 f3f1 	udiv	r3, r3, r1
 8000a02:	fbb2 f3f3 	udiv	r3, r2, r3
 8000a06:	4618      	mov	r0, r3
 8000a08:	f000 fd61 	bl	80014ce <HAL_SYSTICK_Config>
 8000a0c:	4603      	mov	r3, r0
 8000a0e:	2b00      	cmp	r3, #0
 8000a10:	d001      	beq.n	8000a16 <HAL_InitTick+0x2e>
  {
    return HAL_ERROR;
 8000a12:	2301      	movs	r3, #1
 8000a14:	e00e      	b.n	8000a34 <HAL_InitTick+0x4c>
  }

  /* Configure the SysTick IRQ priority */
  if (TickPriority < (1UL << __NVIC_PRIO_BITS))
 8000a16:	687b      	ldr	r3, [r7, #4]
 8000a18:	2b0f      	cmp	r3, #15
 8000a1a:	d80a      	bhi.n	8000a32 <HAL_InitTick+0x4a>
  {
    HAL_NVIC_SetPriority(SysTick_IRQn, TickPriority, 0U);
 8000a1c:	2200      	movs	r2, #0
 8000a1e:	6879      	ldr	r1, [r7, #4]
 8000a20:	f04f 30ff 	mov.w	r0, #4294967295
 8000a24:	f000 fd29 	bl	800147a <HAL_NVIC_SetPriority>
    uwTickPrio = TickPriority;
 8000a28:	4a06      	ldr	r2, [pc, #24]	; (8000a44 <HAL_InitTick+0x5c>)
 8000a2a:	687b      	ldr	r3, [r7, #4]
 8000a2c:	6013      	str	r3, [r2, #0]
  {
    return HAL_ERROR;
  }

  /* Return function status */
  return HAL_OK;
 8000a2e:	2300      	movs	r3, #0
 8000a30:	e000      	b.n	8000a34 <HAL_InitTick+0x4c>
    return HAL_ERROR;
 8000a32:	2301      	movs	r3, #1
}
 8000a34:	4618      	mov	r0, r3
 8000a36:	3708      	adds	r7, #8
 8000a38:	46bd      	mov	sp, r7
 8000a3a:	bd80      	pop	{r7, pc}
 8000a3c:	20000008 	.word	0x20000008
 8000a40:	20000010 	.word	0x20000010
 8000a44:	2000000c 	.word	0x2000000c

08000a48 <HAL_IncTick>:
  * @note This function is declared as __weak to be overwritten in case of other
  *      implementations in user file.
  * @retval None
  */
__weak void HAL_IncTick(void)
{
 8000a48:	b480      	push	{r7}
 8000a4a:	af00      	add	r7, sp, #0
  uwTick += uwTickFreq;
 8000a4c:	4b05      	ldr	r3, [pc, #20]	; (8000a64 <HAL_IncTick+0x1c>)
 8000a4e:	781b      	ldrb	r3, [r3, #0]
 8000a50:	461a      	mov	r2, r3
 8000a52:	4b05      	ldr	r3, [pc, #20]	; (8000a68 <HAL_IncTick+0x20>)
 8000a54:	681b      	ldr	r3, [r3, #0]
 8000a56:	4413      	add	r3, r2
 8000a58:	4a03      	ldr	r2, [pc, #12]	; (8000a68 <HAL_IncTick+0x20>)
 8000a5a:	6013      	str	r3, [r2, #0]
}
 8000a5c:	bf00      	nop
 8000a5e:	46bd      	mov	sp, r7
 8000a60:	bc80      	pop	{r7}
 8000a62:	4770      	bx	lr
 8000a64:	20000010 	.word	0x20000010
 8000a68:	2000010c 	.word	0x2000010c

08000a6c <HAL_GetTick>:
  * @note  This function is declared as __weak to be overwritten in case of other
  *       implementations in user file.
  * @retval tick value
  */
__weak uint32_t HAL_GetTick(void)
{
 8000a6c:	b480      	push	{r7}
 8000a6e:	af00      	add	r7, sp, #0
  return uwTick;
 8000a70:	4b02      	ldr	r3, [pc, #8]	; (8000a7c <HAL_GetTick+0x10>)
 8000a72:	681b      	ldr	r3, [r3, #0]
}
 8000a74:	4618      	mov	r0, r3
 8000a76:	46bd      	mov	sp, r7
 8000a78:	bc80      	pop	{r7}
 8000a7a:	4770      	bx	lr
 8000a7c:	2000010c 	.word	0x2000010c

08000a80 <HAL_Delay>:
  *       implementations in user file.
  * @param Delay specifies the delay time length, in milliseconds.
  * @retval None
  */
__weak void HAL_Delay(uint32_t Delay)
{
 8000a80:	b580      	push	{r7, lr}
 8000a82:	b084      	sub	sp, #16
 8000a84:	af00      	add	r7, sp, #0
 8000a86:	6078      	str	r0, [r7, #4]
  uint32_t tickstart = HAL_GetTick();
 8000a88:	f7ff fff0 	bl	8000a6c <HAL_GetTick>
 8000a8c:	60b8      	str	r0, [r7, #8]
  uint32_t wait = Delay;
 8000a8e:	687b      	ldr	r3, [r7, #4]
 8000a90:	60fb      	str	r3, [r7, #12]

  /* Add a freq to guarantee minimum wait */
  if (wait < HAL_MAX_DELAY)
 8000a92:	68fb      	ldr	r3, [r7, #12]
 8000a94:	f1b3 3fff 	cmp.w	r3, #4294967295
 8000a98:	d005      	beq.n	8000aa6 <HAL_Delay+0x26>
  {
    wait += (uint32_t)(uwTickFreq);
 8000a9a:	4b0a      	ldr	r3, [pc, #40]	; (8000ac4 <HAL_Delay+0x44>)
 8000a9c:	781b      	ldrb	r3, [r3, #0]
 8000a9e:	461a      	mov	r2, r3
 8000aa0:	68fb      	ldr	r3, [r7, #12]
 8000aa2:	4413      	add	r3, r2
 8000aa4:	60fb      	str	r3, [r7, #12]
  }

  while ((HAL_GetTick() - tickstart) < wait)
 8000aa6:	bf00      	nop
 8000aa8:	f7ff ffe0 	bl	8000a6c <HAL_GetTick>
 8000aac:	4602      	mov	r2, r0
 8000aae:	68bb      	ldr	r3, [r7, #8]
 8000ab0:	1ad3      	subs	r3, r2, r3
 8000ab2:	68fa      	ldr	r2, [r7, #12]
 8000ab4:	429a      	cmp	r2, r3
 8000ab6:	d8f7      	bhi.n	8000aa8 <HAL_Delay+0x28>
  {
  }
}
 8000ab8:	bf00      	nop
 8000aba:	bf00      	nop
 8000abc:	3710      	adds	r7, #16
 8000abe:	46bd      	mov	sp, r7
 8000ac0:	bd80      	pop	{r7, pc}
 8000ac2:	bf00      	nop
 8000ac4:	20000010 	.word	0x20000010

08000ac8 <HAL_ADC_Init>:
  *         of structure "ADC_InitTypeDef".
  * @param  hadc: ADC handle
  * @retval HAL status
  */
HAL_StatusTypeDef HAL_ADC_Init(ADC_HandleTypeDef* hadc)
{
 8000ac8:	b580      	push	{r7, lr}
 8000aca:	b086      	sub	sp, #24
 8000acc:	af00      	add	r7, sp, #0
 8000ace:	6078      	str	r0, [r7, #4]
  HAL_StatusTypeDef tmp_hal_status = HAL_OK;
 8000ad0:	2300      	movs	r3, #0
 8000ad2:	75fb      	strb	r3, [r7, #23]
  uint32_t tmp_cr1 = 0U;
 8000ad4:	2300      	movs	r3, #0
 8000ad6:	613b      	str	r3, [r7, #16]
  uint32_t tmp_cr2 = 0U;
 8000ad8:	2300      	movs	r3, #0
 8000ada:	60bb      	str	r3, [r7, #8]
  uint32_t tmp_sqr1 = 0U;
 8000adc:	2300      	movs	r3, #0
 8000ade:	60fb      	str	r3, [r7, #12]
  
  /* Check ADC handle */
  if(hadc == NULL)
 8000ae0:	687b      	ldr	r3, [r7, #4]
 8000ae2:	2b00      	cmp	r3, #0
 8000ae4:	d101      	bne.n	8000aea <HAL_ADC_Init+0x22>
  {
    return HAL_ERROR;
 8000ae6:	2301      	movs	r3, #1
 8000ae8:	e0be      	b.n	8000c68 <HAL_ADC_Init+0x1a0>
  assert_param(IS_ADC_DATA_ALIGN(hadc->Init.DataAlign));
  assert_param(IS_ADC_SCAN_MODE(hadc->Init.ScanConvMode));
  assert_param(IS_FUNCTIONAL_STATE(hadc->Init.ContinuousConvMode));
  assert_param(IS_ADC_EXTTRIG(hadc->Init.ExternalTrigConv));
  
  if(hadc->Init.ScanConvMode != ADC_SCAN_DISABLE)
 8000aea:	687b      	ldr	r3, [r7, #4]
 8000aec:	689b      	ldr	r3, [r3, #8]
 8000aee:	2b00      	cmp	r3, #0
  /* Refer to header of this file for more details on clock enabling          */
  /* procedure.                                                               */

  /* Actions performed only if ADC is coming from state reset:                */
  /* - Initialization of ADC MSP                                              */
  if (hadc->State == HAL_ADC_STATE_RESET)
 8000af0:	687b      	ldr	r3, [r7, #4]
 8000af2:	6a9b      	ldr	r3, [r3, #40]	; 0x28
 8000af4:	2b00      	cmp	r3, #0
 8000af6:	d109      	bne.n	8000b0c <HAL_ADC_Init+0x44>
  {
    /* Initialize ADC error code */
    ADC_CLEAR_ERRORCODE(hadc);
 8000af8:	687b      	ldr	r3, [r7, #4]
 8000afa:	2200      	movs	r2, #0
 8000afc:	62da      	str	r2, [r3, #44]	; 0x2c
    
    /* Allocate lock resource and initialize it */
    hadc->Lock = HAL_UNLOCKED;
 8000afe:	687b      	ldr	r3, [r7, #4]
 8000b00:	2200      	movs	r2, #0
 8000b02:	f883 2024 	strb.w	r2, [r3, #36]	; 0x24
    
    /* Init the low level hardware */
    hadc->MspInitCallback(hadc);
#else
    /* Init the low level hardware */
    HAL_ADC_MspInit(hadc);
 8000b06:	6878      	ldr	r0, [r7, #4]
 8000b08:	f7ff fe00 	bl	800070c <HAL_ADC_MspInit>
  /* Stop potential conversion on going, on regular and injected groups */
  /* Disable ADC peripheral */
  /* Note: In case of ADC already enabled, precaution to not launch an        */
  /*       unwanted conversion while modifying register CR2 by writing 1 to   */
  /*       bit ADON.                                                          */
  tmp_hal_status = ADC_ConversionStop_Disable(hadc);
 8000b0c:	6878      	ldr	r0, [r7, #4]
 8000b0e:	f000 fb93 	bl	8001238 <ADC_ConversionStop_Disable>
 8000b12:	4603      	mov	r3, r0
 8000b14:	75fb      	strb	r3, [r7, #23]
  
  
  /* Configuration of ADC parameters if previous preliminary actions are      */ 
  /* correctly completed.                                                     */
  if (HAL_IS_BIT_CLR(hadc->State, HAL_ADC_STATE_ERROR_INTERNAL) &&
 8000b16:	687b      	ldr	r3, [r7, #4]
 8000b18:	6a9b      	ldr	r3, [r3, #40]	; 0x28
 8000b1a:	f003 0310 	and.w	r3, r3, #16
 8000b1e:	2b00      	cmp	r3, #0
 8000b20:	f040 8099 	bne.w	8000c56 <HAL_ADC_Init+0x18e>
 8000b24:	7dfb      	ldrb	r3, [r7, #23]
 8000b26:	2b00      	cmp	r3, #0
 8000b28:	f040 8095 	bne.w	8000c56 <HAL_ADC_Init+0x18e>
      (tmp_hal_status == HAL_OK)                                  )
  {
    /* Set ADC state */
    ADC_STATE_CLR_SET(hadc->State,
 8000b2c:	687b      	ldr	r3, [r7, #4]
 8000b2e:	6a9b      	ldr	r3, [r3, #40]	; 0x28
 8000b30:	f423 5388 	bic.w	r3, r3, #4352	; 0x1100
 8000b34:	f023 0302 	bic.w	r3, r3, #2
 8000b38:	f043 0202 	orr.w	r2, r3, #2
 8000b3c:	687b      	ldr	r3, [r7, #4]
 8000b3e:	629a      	str	r2, [r3, #40]	; 0x28
    /*  - continuous conversion mode                                          */
    /* Note: External trigger polarity (ADC_CR2_EXTTRIG) is set into          */
    /*       HAL_ADC_Start_xxx functions because if set in this function,     */
    /*       a conversion on injected group would start a conversion also on  */
    /*       regular group after ADC enabling.                                */
    tmp_cr2 |= (hadc->Init.DataAlign                                          |
 8000b40:	687b      	ldr	r3, [r7, #4]
 8000b42:	685a      	ldr	r2, [r3, #4]
                ADC_CFGR_EXTSEL(hadc, hadc->Init.ExternalTrigConv)            |
 8000b44:	687b      	ldr	r3, [r7, #4]
 8000b46:	69db      	ldr	r3, [r3, #28]
    tmp_cr2 |= (hadc->Init.DataAlign                                          |
 8000b48:	431a      	orrs	r2, r3
                ADC_CR2_CONTINUOUS((uint32_t)hadc->Init.ContinuousConvMode)   );
 8000b4a:	687b      	ldr	r3, [r7, #4]
 8000b4c:	7b1b      	ldrb	r3, [r3, #12]
 8000b4e:	005b      	lsls	r3, r3, #1
                ADC_CFGR_EXTSEL(hadc, hadc->Init.ExternalTrigConv)            |
 8000b50:	4313      	orrs	r3, r2
    tmp_cr2 |= (hadc->Init.DataAlign                                          |
 8000b52:	68ba      	ldr	r2, [r7, #8]
 8000b54:	4313      	orrs	r3, r2
 8000b56:	60bb      	str	r3, [r7, #8]

    /* Configuration of ADC:                                                  */
    /*  - scan mode                                                           */
    /*  - discontinuous mode disable/enable                                   */
    /*  - discontinuous mode number of conversions                            */
    tmp_cr1 |= (ADC_CR1_SCAN_SET(hadc->Init.ScanConvMode));
 8000b58:	687b      	ldr	r3, [r7, #4]
 8000b5a:	689b      	ldr	r3, [r3, #8]
 8000b5c:	f5b3 7f80 	cmp.w	r3, #256	; 0x100
 8000b60:	d003      	beq.n	8000b6a <HAL_ADC_Init+0xa2>
 8000b62:	687b      	ldr	r3, [r7, #4]
 8000b64:	689b      	ldr	r3, [r3, #8]
 8000b66:	2b01      	cmp	r3, #1
 8000b68:	d102      	bne.n	8000b70 <HAL_ADC_Init+0xa8>
 8000b6a:	f44f 7380 	mov.w	r3, #256	; 0x100
 8000b6e:	e000      	b.n	8000b72 <HAL_ADC_Init+0xaa>
 8000b70:	2300      	movs	r3, #0
 8000b72:	693a      	ldr	r2, [r7, #16]
 8000b74:	4313      	orrs	r3, r2
 8000b76:	613b      	str	r3, [r7, #16]
    
    /* Enable discontinuous mode only if continuous mode is disabled */
    /* Note: If parameter "Init.ScanConvMode" is set to disable, parameter    */
    /*       discontinuous is set anyway, but will have no effect on ADC HW.  */
    if (hadc->Init.DiscontinuousConvMode == ENABLE)
 8000b78:	687b      	ldr	r3, [r7, #4]
 8000b7a:	7d1b      	ldrb	r3, [r3, #20]
 8000b7c:	2b01      	cmp	r3, #1
 8000b7e:	d119      	bne.n	8000bb4 <HAL_ADC_Init+0xec>
    {
      if (hadc->Init.ContinuousConvMode == DISABLE)
 8000b80:	687b      	ldr	r3, [r7, #4]
 8000b82:	7b1b      	ldrb	r3, [r3, #12]
 8000b84:	2b00      	cmp	r3, #0
 8000b86:	d109      	bne.n	8000b9c <HAL_ADC_Init+0xd4>
      {
        /* Enable the selected ADC regular discontinuous mode */
        /* Set the number of channels to be converted in discontinuous mode */
        SET_BIT(tmp_cr1, ADC_CR1_DISCEN                                            |
 8000b88:	687b      	ldr	r3, [r7, #4]
 8000b8a:	699b      	ldr	r3, [r3, #24]
 8000b8c:	3b01      	subs	r3, #1
 8000b8e:	035a      	lsls	r2, r3, #13
 8000b90:	693b      	ldr	r3, [r7, #16]
 8000b92:	4313      	orrs	r3, r2
 8000b94:	f443 6300 	orr.w	r3, r3, #2048	; 0x800
 8000b98:	613b      	str	r3, [r7, #16]
 8000b9a:	e00b      	b.n	8000bb4 <HAL_ADC_Init+0xec>
      {
        /* ADC regular group settings continuous and sequencer discontinuous*/
        /* cannot be enabled simultaneously.                                */
        
        /* Update ADC state machine to error */
        SET_BIT(hadc->State, HAL_ADC_STATE_ERROR_CONFIG);
 8000b9c:	687b      	ldr	r3, [r7, #4]
 8000b9e:	6a9b      	ldr	r3, [r3, #40]	; 0x28
 8000ba0:	f043 0220 	orr.w	r2, r3, #32
 8000ba4:	687b      	ldr	r3, [r7, #4]
 8000ba6:	629a      	str	r2, [r3, #40]	; 0x28
        
        /* Set ADC error code to ADC IP internal error */
        SET_BIT(hadc->ErrorCode, HAL_ADC_ERROR_INTERNAL);
 8000ba8:	687b      	ldr	r3, [r7, #4]
 8000baa:	6adb      	ldr	r3, [r3, #44]	; 0x2c
 8000bac:	f043 0201 	orr.w	r2, r3, #1
 8000bb0:	687b      	ldr	r3, [r7, #4]
 8000bb2:	62da      	str	r2, [r3, #44]	; 0x2c
      }
    }
    
    /* Update ADC configuration register CR1 with previous settings */
      MODIFY_REG(hadc->Instance->CR1,
 8000bb4:	687b      	ldr	r3, [r7, #4]
 8000bb6:	681b      	ldr	r3, [r3, #0]
 8000bb8:	685b      	ldr	r3, [r3, #4]
 8000bba:	f423 4169 	bic.w	r1, r3, #59648	; 0xe900
 8000bbe:	687b      	ldr	r3, [r7, #4]
 8000bc0:	681b      	ldr	r3, [r3, #0]
 8000bc2:	693a      	ldr	r2, [r7, #16]
 8000bc4:	430a      	orrs	r2, r1
 8000bc6:	605a      	str	r2, [r3, #4]
                 ADC_CR1_DISCEN  |
                 ADC_CR1_DISCNUM    ,
                 tmp_cr1             );
    
    /* Update ADC configuration register CR2 with previous settings */
      MODIFY_REG(hadc->Instance->CR2,
 8000bc8:	687b      	ldr	r3, [r7, #4]
 8000bca:	681b      	ldr	r3, [r3, #0]
 8000bcc:	689a      	ldr	r2, [r3, #8]
 8000bce:	4b28      	ldr	r3, [pc, #160]	; (8000c70 <HAL_ADC_Init+0x1a8>)
 8000bd0:	4013      	ands	r3, r2
 8000bd2:	687a      	ldr	r2, [r7, #4]
 8000bd4:	6812      	ldr	r2, [r2, #0]
 8000bd6:	68b9      	ldr	r1, [r7, #8]
 8000bd8:	430b      	orrs	r3, r1
 8000bda:	6093      	str	r3, [r2, #8]
    /*   Note: Scan mode is present by hardware on this device and, if        */
    /*   disabled, discards automatically nb of conversions. Anyway, nb of    */
    /*   conversions is forced to 0x00 for alignment over all STM32 devices.  */
    /* - if scan mode is enabled, regular channels sequence length is set to  */
    /*   parameter "NbrOfConversion"                                          */
    if (ADC_CR1_SCAN_SET(hadc->Init.ScanConvMode) == ADC_SCAN_ENABLE)
 8000bdc:	687b      	ldr	r3, [r7, #4]
 8000bde:	689b      	ldr	r3, [r3, #8]
 8000be0:	f5b3 7f80 	cmp.w	r3, #256	; 0x100
 8000be4:	d003      	beq.n	8000bee <HAL_ADC_Init+0x126>
 8000be6:	687b      	ldr	r3, [r7, #4]
 8000be8:	689b      	ldr	r3, [r3, #8]
 8000bea:	2b01      	cmp	r3, #1
 8000bec:	d104      	bne.n	8000bf8 <HAL_ADC_Init+0x130>
    {
      tmp_sqr1 = ADC_SQR1_L_SHIFT(hadc->Init.NbrOfConversion);
 8000bee:	687b      	ldr	r3, [r7, #4]
 8000bf0:	691b      	ldr	r3, [r3, #16]
 8000bf2:	3b01      	subs	r3, #1
 8000bf4:	051b      	lsls	r3, r3, #20
 8000bf6:	60fb      	str	r3, [r7, #12]
    }
      
    MODIFY_REG(hadc->Instance->SQR1,
 8000bf8:	687b      	ldr	r3, [r7, #4]
 8000bfa:	681b      	ldr	r3, [r3, #0]
 8000bfc:	6adb      	ldr	r3, [r3, #44]	; 0x2c
 8000bfe:	f423 0170 	bic.w	r1, r3, #15728640	; 0xf00000
 8000c02:	687b      	ldr	r3, [r7, #4]
 8000c04:	681b      	ldr	r3, [r3, #0]
 8000c06:	68fa      	ldr	r2, [r7, #12]
 8000c08:	430a      	orrs	r2, r1
 8000c0a:	62da      	str	r2, [r3, #44]	; 0x2c
    /* ensure of no potential problem of ADC core IP clocking.                */
    /* Check through register CR2 (excluding bits set in other functions:     */
    /* execution control bits (ADON, JSWSTART, SWSTART), regular group bits   */
    /* (DMA), injected group bits (JEXTTRIG and JEXTSEL), channel internal    */
    /* measurement path bit (TSVREFE).                                        */
    if (READ_BIT(hadc->Instance->CR2, ~(ADC_CR2_ADON | ADC_CR2_DMA |
 8000c0c:	687b      	ldr	r3, [r7, #4]
 8000c0e:	681b      	ldr	r3, [r3, #0]
 8000c10:	689a      	ldr	r2, [r3, #8]
 8000c12:	4b18      	ldr	r3, [pc, #96]	; (8000c74 <HAL_ADC_Init+0x1ac>)
 8000c14:	4013      	ands	r3, r2
 8000c16:	68ba      	ldr	r2, [r7, #8]
 8000c18:	429a      	cmp	r2, r3
 8000c1a:	d10b      	bne.n	8000c34 <HAL_ADC_Init+0x16c>
                                        ADC_CR2_JEXTTRIG | ADC_CR2_JEXTSEL |
                                        ADC_CR2_TSVREFE                     ))
         == tmp_cr2)
    {
      /* Set ADC error code to none */
      ADC_CLEAR_ERRORCODE(hadc);
 8000c1c:	687b      	ldr	r3, [r7, #4]
 8000c1e:	2200      	movs	r2, #0
 8000c20:	62da      	str	r2, [r3, #44]	; 0x2c
      
      /* Set the ADC state */
      ADC_STATE_CLR_SET(hadc->State,
 8000c22:	687b      	ldr	r3, [r7, #4]
 8000c24:	6a9b      	ldr	r3, [r3, #40]	; 0x28
 8000c26:	f023 0303 	bic.w	r3, r3, #3
 8000c2a:	f043 0201 	orr.w	r2, r3, #1
 8000c2e:	687b      	ldr	r3, [r7, #4]
 8000c30:	629a      	str	r2, [r3, #40]	; 0x28
    if (READ_BIT(hadc->Instance->CR2, ~(ADC_CR2_ADON | ADC_CR2_DMA |
 8000c32:	e018      	b.n	8000c66 <HAL_ADC_Init+0x19e>
                        HAL_ADC_STATE_READY);
    }
    else
    {
      /* Update ADC state machine to error */
      ADC_STATE_CLR_SET(hadc->State,
 8000c34:	687b      	ldr	r3, [r7, #4]
 8000c36:	6a9b      	ldr	r3, [r3, #40]	; 0x28
 8000c38:	f023 0312 	bic.w	r3, r3, #18
 8000c3c:	f043 0210 	orr.w	r2, r3, #16
 8000c40:	687b      	ldr	r3, [r7, #4]
 8000c42:	629a      	str	r2, [r3, #40]	; 0x28
                        HAL_ADC_STATE_BUSY_INTERNAL,
                        HAL_ADC_STATE_ERROR_INTERNAL);
      
      /* Set ADC error code to ADC IP internal error */
      SET_BIT(hadc->ErrorCode, HAL_ADC_ERROR_INTERNAL);
 8000c44:	687b      	ldr	r3, [r7, #4]
 8000c46:	6adb      	ldr	r3, [r3, #44]	; 0x2c
 8000c48:	f043 0201 	orr.w	r2, r3, #1
 8000c4c:	687b      	ldr	r3, [r7, #4]
 8000c4e:	62da      	str	r2, [r3, #44]	; 0x2c
      
      tmp_hal_status = HAL_ERROR;
 8000c50:	2301      	movs	r3, #1
 8000c52:	75fb      	strb	r3, [r7, #23]
    if (READ_BIT(hadc->Instance->CR2, ~(ADC_CR2_ADON | ADC_CR2_DMA |
 8000c54:	e007      	b.n	8000c66 <HAL_ADC_Init+0x19e>
  
  }
  else
  {
    /* Update ADC state machine to error */
    SET_BIT(hadc->State, HAL_ADC_STATE_ERROR_INTERNAL);
 8000c56:	687b      	ldr	r3, [r7, #4]
 8000c58:	6a9b      	ldr	r3, [r3, #40]	; 0x28
 8000c5a:	f043 0210 	orr.w	r2, r3, #16
 8000c5e:	687b      	ldr	r3, [r7, #4]
 8000c60:	629a      	str	r2, [r3, #40]	; 0x28
        
    tmp_hal_status = HAL_ERROR;
 8000c62:	2301      	movs	r3, #1
 8000c64:	75fb      	strb	r3, [r7, #23]
  }
  
  /* Return function status */
  return tmp_hal_status;
 8000c66:	7dfb      	ldrb	r3, [r7, #23]
}
 8000c68:	4618      	mov	r0, r3
 8000c6a:	3718      	adds	r7, #24
 8000c6c:	46bd      	mov	sp, r7
 8000c6e:	bd80      	pop	{r7, pc}
 8000c70:	ffe1f7fd 	.word	0xffe1f7fd
 8000c74:	ff1f0efe 	.word	0xff1f0efe

08000c78 <HAL_ADC_Start_IT>:
  *         Each of these interruptions has its dedicated callback function.
  * @param  hadc: ADC handle
  * @retval HAL status
  */
HAL_StatusTypeDef HAL_ADC_Start_IT(ADC_HandleTypeDef* hadc)
{
 8000c78:	b580      	push	{r7, lr}
 8000c7a:	b084      	sub	sp, #16
 8000c7c:	af00      	add	r7, sp, #0
 8000c7e:	6078      	str	r0, [r7, #4]
  HAL_StatusTypeDef tmp_hal_status = HAL_OK;
 8000c80:	2300      	movs	r3, #0
 8000c82:	73fb      	strb	r3, [r7, #15]
  
  /* Check the parameters */
  assert_param(IS_ADC_ALL_INSTANCE(hadc->Instance));
  
  /* Process locked */
  __HAL_LOCK(hadc);
 8000c84:	687b      	ldr	r3, [r7, #4]
 8000c86:	f893 3024 	ldrb.w	r3, [r3, #36]	; 0x24
 8000c8a:	2b01      	cmp	r3, #1
 8000c8c:	d101      	bne.n	8000c92 <HAL_ADC_Start_IT+0x1a>
 8000c8e:	2302      	movs	r3, #2
 8000c90:	e0a0      	b.n	8000dd4 <HAL_ADC_Start_IT+0x15c>
 8000c92:	687b      	ldr	r3, [r7, #4]
 8000c94:	2201      	movs	r2, #1
 8000c96:	f883 2024 	strb.w	r2, [r3, #36]	; 0x24
    
  /* Enable the ADC peripheral */
  tmp_hal_status = ADC_Enable(hadc);
 8000c9a:	6878      	ldr	r0, [r7, #4]
 8000c9c:	f000 fa72 	bl	8001184 <ADC_Enable>
 8000ca0:	4603      	mov	r3, r0
 8000ca2:	73fb      	strb	r3, [r7, #15]
  
  /* Start conversion if ADC is effectively enabled */
  if (tmp_hal_status == HAL_OK)
 8000ca4:	7bfb      	ldrb	r3, [r7, #15]
 8000ca6:	2b00      	cmp	r3, #0
 8000ca8:	f040 808f 	bne.w	8000dca <HAL_ADC_Start_IT+0x152>
  {
    /* Set ADC state                                                          */
    /* - Clear state bitfield related to regular group conversion results     */
    /* - Set state bitfield related to regular operation                      */
    ADC_STATE_CLR_SET(hadc->State,
 8000cac:	687b      	ldr	r3, [r7, #4]
 8000cae:	6a9b      	ldr	r3, [r3, #40]	; 0x28
 8000cb0:	f423 6370 	bic.w	r3, r3, #3840	; 0xf00
 8000cb4:	f023 0301 	bic.w	r3, r3, #1
 8000cb8:	f443 7280 	orr.w	r2, r3, #256	; 0x100
 8000cbc:	687b      	ldr	r3, [r7, #4]
 8000cbe:	629a      	str	r2, [r3, #40]	; 0x28
                      HAL_ADC_STATE_REG_BUSY);
    
    /* Set group injected state (from auto-injection) and multimode state     */
    /* for all cases of multimode: independent mode, multimode ADC master     */
    /* or multimode ADC slave (for devices with several ADCs):                */
    if (ADC_NONMULTIMODE_OR_MULTIMODEMASTER(hadc))
 8000cc0:	687b      	ldr	r3, [r7, #4]
 8000cc2:	681b      	ldr	r3, [r3, #0]
 8000cc4:	4a45      	ldr	r2, [pc, #276]	; (8000ddc <HAL_ADC_Start_IT+0x164>)
 8000cc6:	4293      	cmp	r3, r2
 8000cc8:	d105      	bne.n	8000cd6 <HAL_ADC_Start_IT+0x5e>
 8000cca:	4b45      	ldr	r3, [pc, #276]	; (8000de0 <HAL_ADC_Start_IT+0x168>)
 8000ccc:	685b      	ldr	r3, [r3, #4]
 8000cce:	f403 2370 	and.w	r3, r3, #983040	; 0xf0000
 8000cd2:	2b00      	cmp	r3, #0
 8000cd4:	d115      	bne.n	8000d02 <HAL_ADC_Start_IT+0x8a>
    {
      /* Set ADC state (ADC independent or master) */
      CLEAR_BIT(hadc->State, HAL_ADC_STATE_MULTIMODE_SLAVE);
 8000cd6:	687b      	ldr	r3, [r7, #4]
 8000cd8:	6a9b      	ldr	r3, [r3, #40]	; 0x28
 8000cda:	f423 1280 	bic.w	r2, r3, #1048576	; 0x100000
 8000cde:	687b      	ldr	r3, [r7, #4]
 8000ce0:	629a      	str	r2, [r3, #40]	; 0x28
      
      /* If conversions on group regular are also triggering group injected,  */
      /* update ADC state.                                                    */
      if (READ_BIT(hadc->Instance->CR1, ADC_CR1_JAUTO) != RESET)
 8000ce2:	687b      	ldr	r3, [r7, #4]
 8000ce4:	681b      	ldr	r3, [r3, #0]
 8000ce6:	685b      	ldr	r3, [r3, #4]
 8000ce8:	f403 6380 	and.w	r3, r3, #1024	; 0x400
 8000cec:	2b00      	cmp	r3, #0
 8000cee:	d026      	beq.n	8000d3e <HAL_ADC_Start_IT+0xc6>
      {
        ADC_STATE_CLR_SET(hadc->State, HAL_ADC_STATE_INJ_EOC, HAL_ADC_STATE_INJ_BUSY);  
 8000cf0:	687b      	ldr	r3, [r7, #4]
 8000cf2:	6a9b      	ldr	r3, [r3, #40]	; 0x28
 8000cf4:	f423 5340 	bic.w	r3, r3, #12288	; 0x3000
 8000cf8:	f443 5280 	orr.w	r2, r3, #4096	; 0x1000
 8000cfc:	687b      	ldr	r3, [r7, #4]
 8000cfe:	629a      	str	r2, [r3, #40]	; 0x28
      if (READ_BIT(hadc->Instance->CR1, ADC_CR1_JAUTO) != RESET)
 8000d00:	e01d      	b.n	8000d3e <HAL_ADC_Start_IT+0xc6>
      }
    }
    else
    {
      /* Set ADC state (ADC slave) */
      SET_BIT(hadc->State, HAL_ADC_STATE_MULTIMODE_SLAVE);
 8000d02:	687b      	ldr	r3, [r7, #4]
 8000d04:	6a9b      	ldr	r3, [r3, #40]	; 0x28
 8000d06:	f443 1280 	orr.w	r2, r3, #1048576	; 0x100000
 8000d0a:	687b      	ldr	r3, [r7, #4]
 8000d0c:	629a      	str	r2, [r3, #40]	; 0x28
      
      /* If conversions on group regular are also triggering group injected,  */
      /* update ADC state.                                                    */
      if (ADC_MULTIMODE_AUTO_INJECTED(hadc))
 8000d0e:	687b      	ldr	r3, [r7, #4]
 8000d10:	681b      	ldr	r3, [r3, #0]
 8000d12:	4a33      	ldr	r2, [pc, #204]	; (8000de0 <HAL_ADC_Start_IT+0x168>)
 8000d14:	4293      	cmp	r3, r2
 8000d16:	d004      	beq.n	8000d22 <HAL_ADC_Start_IT+0xaa>
 8000d18:	687b      	ldr	r3, [r7, #4]
 8000d1a:	681b      	ldr	r3, [r3, #0]
 8000d1c:	4a2f      	ldr	r2, [pc, #188]	; (8000ddc <HAL_ADC_Start_IT+0x164>)
 8000d1e:	4293      	cmp	r3, r2
 8000d20:	d10d      	bne.n	8000d3e <HAL_ADC_Start_IT+0xc6>
 8000d22:	4b2f      	ldr	r3, [pc, #188]	; (8000de0 <HAL_ADC_Start_IT+0x168>)
 8000d24:	685b      	ldr	r3, [r3, #4]
 8000d26:	f403 6380 	and.w	r3, r3, #1024	; 0x400
 8000d2a:	2b00      	cmp	r3, #0
 8000d2c:	d007      	beq.n	8000d3e <HAL_ADC_Start_IT+0xc6>
      {
        ADC_STATE_CLR_SET(hadc->State, HAL_ADC_STATE_INJ_EOC, HAL_ADC_STATE_INJ_BUSY);
 8000d2e:	687b      	ldr	r3, [r7, #4]
 8000d30:	6a9b      	ldr	r3, [r3, #40]	; 0x28
 8000d32:	f423 5340 	bic.w	r3, r3, #12288	; 0x3000
 8000d36:	f443 5280 	orr.w	r2, r3, #4096	; 0x1000
 8000d3a:	687b      	ldr	r3, [r7, #4]
 8000d3c:	629a      	str	r2, [r3, #40]	; 0x28
      }
    }
    
    /* State machine update: Check if an injected conversion is ongoing */
    if (HAL_IS_BIT_SET(hadc->State, HAL_ADC_STATE_INJ_BUSY))
 8000d3e:	687b      	ldr	r3, [r7, #4]
 8000d40:	6a9b      	ldr	r3, [r3, #40]	; 0x28
 8000d42:	f403 5380 	and.w	r3, r3, #4096	; 0x1000
 8000d46:	2b00      	cmp	r3, #0
 8000d48:	d006      	beq.n	8000d58 <HAL_ADC_Start_IT+0xe0>
    {
      /* Reset ADC error code fields related to conversions on group regular */
      CLEAR_BIT(hadc->ErrorCode, (HAL_ADC_ERROR_OVR | HAL_ADC_ERROR_DMA));         
 8000d4a:	687b      	ldr	r3, [r7, #4]
 8000d4c:	6adb      	ldr	r3, [r3, #44]	; 0x2c
 8000d4e:	f023 0206 	bic.w	r2, r3, #6
 8000d52:	687b      	ldr	r3, [r7, #4]
 8000d54:	62da      	str	r2, [r3, #44]	; 0x2c
 8000d56:	e002      	b.n	8000d5e <HAL_ADC_Start_IT+0xe6>
    }
    else
    {
      /* Reset ADC all error code fields */
      ADC_CLEAR_ERRORCODE(hadc);
 8000d58:	687b      	ldr	r3, [r7, #4]
 8000d5a:	2200      	movs	r2, #0
 8000d5c:	62da      	str	r2, [r3, #44]	; 0x2c
    }
    
    /* Process unlocked */
    /* Unlock before starting ADC conversions: in case of potential           */
    /* interruption, to let the process to ADC IRQ Handler.                   */
    __HAL_UNLOCK(hadc);
 8000d5e:	687b      	ldr	r3, [r7, #4]
 8000d60:	2200      	movs	r2, #0
 8000d62:	f883 2024 	strb.w	r2, [r3, #36]	; 0x24
    
    /* Clear regular group conversion flag and overrun flag */
    /* (To ensure of no unknown state from potential previous ADC operations) */
    __HAL_ADC_CLEAR_FLAG(hadc, ADC_FLAG_EOC);
 8000d66:	687b      	ldr	r3, [r7, #4]
 8000d68:	681b      	ldr	r3, [r3, #0]
 8000d6a:	f06f 0202 	mvn.w	r2, #2
 8000d6e:	601a      	str	r2, [r3, #0]
    
    /* Enable end of conversion interrupt for regular group */
    __HAL_ADC_ENABLE_IT(hadc, ADC_IT_EOC);
 8000d70:	687b      	ldr	r3, [r7, #4]
 8000d72:	681b      	ldr	r3, [r3, #0]
 8000d74:	685a      	ldr	r2, [r3, #4]
 8000d76:	687b      	ldr	r3, [r7, #4]
 8000d78:	681b      	ldr	r3, [r3, #0]
 8000d7a:	f042 0220 	orr.w	r2, r2, #32
 8000d7e:	605a      	str	r2, [r3, #4]
    /* If external trigger has been selected, conversion will start at next   */
    /* trigger event.                                                         */
    /* Case of multimode enabled:                                             */ 
    /*  - if ADC is slave, ADC is enabled only (conversion is not started).   */
    /*  - if ADC is master, ADC is enabled and conversion is started.         */
    if (ADC_IS_SOFTWARE_START_REGULAR(hadc)      &&
 8000d80:	687b      	ldr	r3, [r7, #4]
 8000d82:	681b      	ldr	r3, [r3, #0]
 8000d84:	689b      	ldr	r3, [r3, #8]
 8000d86:	f403 2360 	and.w	r3, r3, #917504	; 0xe0000
 8000d8a:	f5b3 2f60 	cmp.w	r3, #917504	; 0xe0000
 8000d8e:	d113      	bne.n	8000db8 <HAL_ADC_Start_IT+0x140>
        ADC_NONMULTIMODE_OR_MULTIMODEMASTER(hadc)  )
 8000d90:	687b      	ldr	r3, [r7, #4]
 8000d92:	681b      	ldr	r3, [r3, #0]
    if (ADC_IS_SOFTWARE_START_REGULAR(hadc)      &&
 8000d94:	4a11      	ldr	r2, [pc, #68]	; (8000ddc <HAL_ADC_Start_IT+0x164>)
 8000d96:	4293      	cmp	r3, r2
 8000d98:	d105      	bne.n	8000da6 <HAL_ADC_Start_IT+0x12e>
        ADC_NONMULTIMODE_OR_MULTIMODEMASTER(hadc)  )
 8000d9a:	4b11      	ldr	r3, [pc, #68]	; (8000de0 <HAL_ADC_Start_IT+0x168>)
 8000d9c:	685b      	ldr	r3, [r3, #4]
 8000d9e:	f403 2370 	and.w	r3, r3, #983040	; 0xf0000
    if (ADC_IS_SOFTWARE_START_REGULAR(hadc)      &&
 8000da2:	2b00      	cmp	r3, #0
 8000da4:	d108      	bne.n	8000db8 <HAL_ADC_Start_IT+0x140>
    {
      /* Start ADC conversion on regular group with SW start */
      SET_BIT(hadc->Instance->CR2, (ADC_CR2_SWSTART | ADC_CR2_EXTTRIG));
 8000da6:	687b      	ldr	r3, [r7, #4]
 8000da8:	681b      	ldr	r3, [r3, #0]
 8000daa:	689a      	ldr	r2, [r3, #8]
 8000dac:	687b      	ldr	r3, [r7, #4]
 8000dae:	681b      	ldr	r3, [r3, #0]
 8000db0:	f442 02a0 	orr.w	r2, r2, #5242880	; 0x500000
 8000db4:	609a      	str	r2, [r3, #8]
 8000db6:	e00c      	b.n	8000dd2 <HAL_ADC_Start_IT+0x15a>
    }
    else
    {
      /* Start ADC conversion on regular group with external trigger */
      SET_BIT(hadc->Instance->CR2, ADC_CR2_EXTTRIG);
 8000db8:	687b      	ldr	r3, [r7, #4]
 8000dba:	681b      	ldr	r3, [r3, #0]
 8000dbc:	689a      	ldr	r2, [r3, #8]
 8000dbe:	687b      	ldr	r3, [r7, #4]
 8000dc0:	681b      	ldr	r3, [r3, #0]
 8000dc2:	f442 1280 	orr.w	r2, r2, #1048576	; 0x100000
 8000dc6:	609a      	str	r2, [r3, #8]
 8000dc8:	e003      	b.n	8000dd2 <HAL_ADC_Start_IT+0x15a>
    }
  }
  else
  {
    /* Process unlocked */
    __HAL_UNLOCK(hadc);
 8000dca:	687b      	ldr	r3, [r7, #4]
 8000dcc:	2200      	movs	r2, #0
 8000dce:	f883 2024 	strb.w	r2, [r3, #36]	; 0x24
  }
  
  /* Return function status */
  return tmp_hal_status;
 8000dd2:	7bfb      	ldrb	r3, [r7, #15]
}
 8000dd4:	4618      	mov	r0, r3
 8000dd6:	3710      	adds	r7, #16
 8000dd8:	46bd      	mov	sp, r7
 8000dda:	bd80      	pop	{r7, pc}
 8000ddc:	40012800 	.word	0x40012800
 8000de0:	40012400 	.word	0x40012400

08000de4 <HAL_ADC_GetValue>:
  *         or @ref __HAL_ADC_CLEAR_FLAG(&hadc, ADC_FLAG_EOS).
  * @param  hadc: ADC handle
  * @retval ADC group regular conversion data
  */
uint32_t HAL_ADC_GetValue(ADC_HandleTypeDef* hadc)
{
 8000de4:	b480      	push	{r7}
 8000de6:	b083      	sub	sp, #12
 8000de8:	af00      	add	r7, sp, #0
 8000dea:	6078      	str	r0, [r7, #4]

  /* Note: EOC flag is not cleared here by software because automatically     */
  /*       cleared by hardware when reading register DR.                      */
  
  /* Return ADC converted value */ 
  return hadc->Instance->DR;
 8000dec:	687b      	ldr	r3, [r7, #4]
 8000dee:	681b      	ldr	r3, [r3, #0]
 8000df0:	6cdb      	ldr	r3, [r3, #76]	; 0x4c
}
 8000df2:	4618      	mov	r0, r3
 8000df4:	370c      	adds	r7, #12
 8000df6:	46bd      	mov	sp, r7
 8000df8:	bc80      	pop	{r7}
 8000dfa:	4770      	bx	lr

08000dfc <HAL_ADC_IRQHandler>:
  * @brief  Handles ADC interrupt request  
  * @param  hadc: ADC handle
  * @retval None
  */
void HAL_ADC_IRQHandler(ADC_HandleTypeDef* hadc)
{
 8000dfc:	b580      	push	{r7, lr}
 8000dfe:	b082      	sub	sp, #8
 8000e00:	af00      	add	r7, sp, #0
 8000e02:	6078      	str	r0, [r7, #4]
  assert_param(IS_FUNCTIONAL_STATE(hadc->Init.ContinuousConvMode));
  assert_param(IS_ADC_REGULAR_NB_CONV(hadc->Init.NbrOfConversion));
  
  
  /* ========== Check End of Conversion flag for regular group ========== */
  if(__HAL_ADC_GET_IT_SOURCE(hadc, ADC_IT_EOC))
 8000e04:	687b      	ldr	r3, [r7, #4]
 8000e06:	681b      	ldr	r3, [r3, #0]
 8000e08:	685b      	ldr	r3, [r3, #4]
 8000e0a:	f003 0320 	and.w	r3, r3, #32
 8000e0e:	2b20      	cmp	r3, #32
 8000e10:	d140      	bne.n	8000e94 <HAL_ADC_IRQHandler+0x98>
  {
    if(__HAL_ADC_GET_FLAG(hadc, ADC_FLAG_EOC) )
 8000e12:	687b      	ldr	r3, [r7, #4]
 8000e14:	681b      	ldr	r3, [r3, #0]
 8000e16:	681b      	ldr	r3, [r3, #0]
 8000e18:	f003 0302 	and.w	r3, r3, #2
 8000e1c:	2b02      	cmp	r3, #2
 8000e1e:	d139      	bne.n	8000e94 <HAL_ADC_IRQHandler+0x98>
    {
      /* Update state machine on conversion status if not in error state */
      if (HAL_IS_BIT_CLR(hadc->State, HAL_ADC_STATE_ERROR_INTERNAL))
 8000e20:	687b      	ldr	r3, [r7, #4]
 8000e22:	6a9b      	ldr	r3, [r3, #40]	; 0x28
 8000e24:	f003 0310 	and.w	r3, r3, #16
 8000e28:	2b00      	cmp	r3, #0
 8000e2a:	d105      	bne.n	8000e38 <HAL_ADC_IRQHandler+0x3c>
      {
        /* Set ADC state */
        SET_BIT(hadc->State, HAL_ADC_STATE_REG_EOC); 
 8000e2c:	687b      	ldr	r3, [r7, #4]
 8000e2e:	6a9b      	ldr	r3, [r3, #40]	; 0x28
 8000e30:	f443 7200 	orr.w	r2, r3, #512	; 0x200
 8000e34:	687b      	ldr	r3, [r7, #4]
 8000e36:	629a      	str	r2, [r3, #40]	; 0x28
      /* Determine whether any further conversion upcoming on group regular   */
      /* by external trigger, continuous mode or scan sequence on going.      */
      /* Note: On STM32F1 devices, in case of sequencer enabled               */
      /*       (several ranks selected), end of conversion flag is raised     */
      /*       at the end of the sequence.                                    */
      if(ADC_IS_SOFTWARE_START_REGULAR(hadc)        && 
 8000e38:	687b      	ldr	r3, [r7, #4]
 8000e3a:	681b      	ldr	r3, [r3, #0]
 8000e3c:	689b      	ldr	r3, [r3, #8]
 8000e3e:	f403 2360 	and.w	r3, r3, #917504	; 0xe0000
 8000e42:	f5b3 2f60 	cmp.w	r3, #917504	; 0xe0000
 8000e46:	d11d      	bne.n	8000e84 <HAL_ADC_IRQHandler+0x88>
         (hadc->Init.ContinuousConvMode == DISABLE)   )
 8000e48:	687b      	ldr	r3, [r7, #4]
 8000e4a:	7b1b      	ldrb	r3, [r3, #12]
      if(ADC_IS_SOFTWARE_START_REGULAR(hadc)        && 
 8000e4c:	2b00      	cmp	r3, #0
 8000e4e:	d119      	bne.n	8000e84 <HAL_ADC_IRQHandler+0x88>
      {
        /* Disable ADC end of conversion interrupt on group regular */
        __HAL_ADC_DISABLE_IT(hadc, ADC_IT_EOC);
 8000e50:	687b      	ldr	r3, [r7, #4]
 8000e52:	681b      	ldr	r3, [r3, #0]
 8000e54:	685a      	ldr	r2, [r3, #4]
 8000e56:	687b      	ldr	r3, [r7, #4]
 8000e58:	681b      	ldr	r3, [r3, #0]
 8000e5a:	f022 0220 	bic.w	r2, r2, #32
 8000e5e:	605a      	str	r2, [r3, #4]
        
        /* Set ADC state */
        CLEAR_BIT(hadc->State, HAL_ADC_STATE_REG_BUSY);   
 8000e60:	687b      	ldr	r3, [r7, #4]
 8000e62:	6a9b      	ldr	r3, [r3, #40]	; 0x28
 8000e64:	f423 7280 	bic.w	r2, r3, #256	; 0x100
 8000e68:	687b      	ldr	r3, [r7, #4]
 8000e6a:	629a      	str	r2, [r3, #40]	; 0x28
        
        if (HAL_IS_BIT_CLR(hadc->State, HAL_ADC_STATE_INJ_BUSY))
 8000e6c:	687b      	ldr	r3, [r7, #4]
 8000e6e:	6a9b      	ldr	r3, [r3, #40]	; 0x28
 8000e70:	f403 5380 	and.w	r3, r3, #4096	; 0x1000
 8000e74:	2b00      	cmp	r3, #0
 8000e76:	d105      	bne.n	8000e84 <HAL_ADC_IRQHandler+0x88>
        {
          SET_BIT(hadc->State, HAL_ADC_STATE_READY);
 8000e78:	687b      	ldr	r3, [r7, #4]
 8000e7a:	6a9b      	ldr	r3, [r3, #40]	; 0x28
 8000e7c:	f043 0201 	orr.w	r2, r3, #1
 8000e80:	687b      	ldr	r3, [r7, #4]
 8000e82:	629a      	str	r2, [r3, #40]	; 0x28

      /* Conversion complete callback */
#if (USE_HAL_ADC_REGISTER_CALLBACKS == 1)
      hadc->ConvCpltCallback(hadc);
#else
      HAL_ADC_ConvCpltCallback(hadc);
 8000e84:	6878      	ldr	r0, [r7, #4]
 8000e86:	f7ff fbb7 	bl	80005f8 <HAL_ADC_ConvCpltCallback>
#endif /* USE_HAL_ADC_REGISTER_CALLBACKS */
      
      /* Clear regular group conversion flag */
      __HAL_ADC_CLEAR_FLAG(hadc, ADC_FLAG_STRT | ADC_FLAG_EOC);
 8000e8a:	687b      	ldr	r3, [r7, #4]
 8000e8c:	681b      	ldr	r3, [r3, #0]
 8000e8e:	f06f 0212 	mvn.w	r2, #18
 8000e92:	601a      	str	r2, [r3, #0]
    }
  }
  
  /* ========== Check End of Conversion flag for injected group ========== */
  if(__HAL_ADC_GET_IT_SOURCE(hadc, ADC_IT_JEOC))
 8000e94:	687b      	ldr	r3, [r7, #4]
 8000e96:	681b      	ldr	r3, [r3, #0]
 8000e98:	685b      	ldr	r3, [r3, #4]
 8000e9a:	f003 0380 	and.w	r3, r3, #128	; 0x80
 8000e9e:	2b80      	cmp	r3, #128	; 0x80
 8000ea0:	d14f      	bne.n	8000f42 <HAL_ADC_IRQHandler+0x146>
  {
    if(__HAL_ADC_GET_FLAG(hadc, ADC_FLAG_JEOC))
 8000ea2:	687b      	ldr	r3, [r7, #4]
 8000ea4:	681b      	ldr	r3, [r3, #0]
 8000ea6:	681b      	ldr	r3, [r3, #0]
 8000ea8:	f003 0304 	and.w	r3, r3, #4
 8000eac:	2b04      	cmp	r3, #4
 8000eae:	d148      	bne.n	8000f42 <HAL_ADC_IRQHandler+0x146>
    {
      /* Update state machine on conversion status if not in error state */
      if (HAL_IS_BIT_CLR(hadc->State, HAL_ADC_STATE_ERROR_INTERNAL))
 8000eb0:	687b      	ldr	r3, [r7, #4]
 8000eb2:	6a9b      	ldr	r3, [r3, #40]	; 0x28
 8000eb4:	f003 0310 	and.w	r3, r3, #16
 8000eb8:	2b00      	cmp	r3, #0
 8000eba:	d105      	bne.n	8000ec8 <HAL_ADC_IRQHandler+0xcc>
      {
        /* Set ADC state */
        SET_BIT(hadc->State, HAL_ADC_STATE_INJ_EOC);
 8000ebc:	687b      	ldr	r3, [r7, #4]
 8000ebe:	6a9b      	ldr	r3, [r3, #40]	; 0x28
 8000ec0:	f443 5200 	orr.w	r2, r3, #8192	; 0x2000
 8000ec4:	687b      	ldr	r3, [r7, #4]
 8000ec6:	629a      	str	r2, [r3, #40]	; 0x28
      /* conversion from group regular (same conditions as group regular      */
      /* interruption disabling above).                                       */
      /* Note: On STM32F1 devices, in case of sequencer enabled               */
      /*       (several ranks selected), end of conversion flag is raised     */
      /*       at the end of the sequence.                                    */
      if(ADC_IS_SOFTWARE_START_INJECTED(hadc)                     || 
 8000ec8:	687b      	ldr	r3, [r7, #4]
 8000eca:	681b      	ldr	r3, [r3, #0]
 8000ecc:	689b      	ldr	r3, [r3, #8]
 8000ece:	f403 43e0 	and.w	r3, r3, #28672	; 0x7000
 8000ed2:	f5b3 4fe0 	cmp.w	r3, #28672	; 0x7000
 8000ed6:	d012      	beq.n	8000efe <HAL_ADC_IRQHandler+0x102>
         (HAL_IS_BIT_CLR(hadc->Instance->CR1, ADC_CR1_JAUTO) &&     
 8000ed8:	687b      	ldr	r3, [r7, #4]
 8000eda:	681b      	ldr	r3, [r3, #0]
 8000edc:	685b      	ldr	r3, [r3, #4]
 8000ede:	f403 6380 	and.w	r3, r3, #1024	; 0x400
      if(ADC_IS_SOFTWARE_START_INJECTED(hadc)                     || 
 8000ee2:	2b00      	cmp	r3, #0
 8000ee4:	d125      	bne.n	8000f32 <HAL_ADC_IRQHandler+0x136>
         (ADC_IS_SOFTWARE_START_REGULAR(hadc)        &&
 8000ee6:	687b      	ldr	r3, [r7, #4]
 8000ee8:	681b      	ldr	r3, [r3, #0]
 8000eea:	689b      	ldr	r3, [r3, #8]
 8000eec:	f403 2360 	and.w	r3, r3, #917504	; 0xe0000
         (HAL_IS_BIT_CLR(hadc->Instance->CR1, ADC_CR1_JAUTO) &&     
 8000ef0:	f5b3 2f60 	cmp.w	r3, #917504	; 0xe0000
 8000ef4:	d11d      	bne.n	8000f32 <HAL_ADC_IRQHandler+0x136>
          (hadc->Init.ContinuousConvMode == DISABLE)   )        )   )
 8000ef6:	687b      	ldr	r3, [r7, #4]
 8000ef8:	7b1b      	ldrb	r3, [r3, #12]
         (ADC_IS_SOFTWARE_START_REGULAR(hadc)        &&
 8000efa:	2b00      	cmp	r3, #0
 8000efc:	d119      	bne.n	8000f32 <HAL_ADC_IRQHandler+0x136>
      {
        /* Disable ADC end of conversion interrupt on group injected */
        __HAL_ADC_DISABLE_IT(hadc, ADC_IT_JEOC);
 8000efe:	687b      	ldr	r3, [r7, #4]
 8000f00:	681b      	ldr	r3, [r3, #0]
 8000f02:	685a      	ldr	r2, [r3, #4]
 8000f04:	687b      	ldr	r3, [r7, #4]
 8000f06:	681b      	ldr	r3, [r3, #0]
 8000f08:	f022 0280 	bic.w	r2, r2, #128	; 0x80
 8000f0c:	605a      	str	r2, [r3, #4]
        
        /* Set ADC state */
        CLEAR_BIT(hadc->State, HAL_ADC_STATE_INJ_BUSY);   
 8000f0e:	687b      	ldr	r3, [r7, #4]
 8000f10:	6a9b      	ldr	r3, [r3, #40]	; 0x28
 8000f12:	f423 5280 	bic.w	r2, r3, #4096	; 0x1000
 8000f16:	687b      	ldr	r3, [r7, #4]
 8000f18:	629a      	str	r2, [r3, #40]	; 0x28

        if (HAL_IS_BIT_CLR(hadc->State, HAL_ADC_STATE_REG_BUSY))
 8000f1a:	687b      	ldr	r3, [r7, #4]
 8000f1c:	6a9b      	ldr	r3, [r3, #40]	; 0x28
 8000f1e:	f403 7380 	and.w	r3, r3, #256	; 0x100
 8000f22:	2b00      	cmp	r3, #0
 8000f24:	d105      	bne.n	8000f32 <HAL_ADC_IRQHandler+0x136>
        { 
          SET_BIT(hadc->State, HAL_ADC_STATE_READY);
 8000f26:	687b      	ldr	r3, [r7, #4]
 8000f28:	6a9b      	ldr	r3, [r3, #40]	; 0x28
 8000f2a:	f043 0201 	orr.w	r2, r3, #1
 8000f2e:	687b      	ldr	r3, [r7, #4]
 8000f30:	629a      	str	r2, [r3, #40]	; 0x28

      /* Conversion complete callback */ 
#if (USE_HAL_ADC_REGISTER_CALLBACKS == 1)
      hadc->InjectedConvCpltCallback(hadc);
#else
      HAL_ADCEx_InjectedConvCpltCallback(hadc);
 8000f32:	6878      	ldr	r0, [r7, #4]
 8000f34:	f000 f9c1 	bl	80012ba <HAL_ADCEx_InjectedConvCpltCallback>
#endif /* USE_HAL_ADC_REGISTER_CALLBACKS */
      
      /* Clear injected group conversion flag */
      __HAL_ADC_CLEAR_FLAG(hadc, (ADC_FLAG_JSTRT | ADC_FLAG_JEOC));
 8000f38:	687b      	ldr	r3, [r7, #4]
 8000f3a:	681b      	ldr	r3, [r3, #0]
 8000f3c:	f06f 020c 	mvn.w	r2, #12
 8000f40:	601a      	str	r2, [r3, #0]
    }
  }
   
  /* ========== Check Analog watchdog flags ========== */
  if(__HAL_ADC_GET_IT_SOURCE(hadc, ADC_IT_AWD))
 8000f42:	687b      	ldr	r3, [r7, #4]
 8000f44:	681b      	ldr	r3, [r3, #0]
 8000f46:	685b      	ldr	r3, [r3, #4]
 8000f48:	f003 0340 	and.w	r3, r3, #64	; 0x40
 8000f4c:	2b40      	cmp	r3, #64	; 0x40
 8000f4e:	d114      	bne.n	8000f7a <HAL_ADC_IRQHandler+0x17e>
  {
    if(__HAL_ADC_GET_FLAG(hadc, ADC_FLAG_AWD))
 8000f50:	687b      	ldr	r3, [r7, #4]
 8000f52:	681b      	ldr	r3, [r3, #0]
 8000f54:	681b      	ldr	r3, [r3, #0]
 8000f56:	f003 0301 	and.w	r3, r3, #1
 8000f5a:	2b01      	cmp	r3, #1
 8000f5c:	d10d      	bne.n	8000f7a <HAL_ADC_IRQHandler+0x17e>
    {
      /* Set ADC state */
      SET_BIT(hadc->State, HAL_ADC_STATE_AWD1);
 8000f5e:	687b      	ldr	r3, [r7, #4]
 8000f60:	6a9b      	ldr	r3, [r3, #40]	; 0x28
 8000f62:	f443 3280 	orr.w	r2, r3, #65536	; 0x10000
 8000f66:	687b      	ldr	r3, [r7, #4]
 8000f68:	629a      	str	r2, [r3, #40]	; 0x28
      
      /* Level out of window callback */ 
#if (USE_HAL_ADC_REGISTER_CALLBACKS == 1)
      hadc->LevelOutOfWindowCallback(hadc);
#else
      HAL_ADC_LevelOutOfWindowCallback(hadc);
 8000f6a:	6878      	ldr	r0, [r7, #4]
 8000f6c:	f000 f809 	bl	8000f82 <HAL_ADC_LevelOutOfWindowCallback>
#endif /* USE_HAL_ADC_REGISTER_CALLBACKS */
      
      /* Clear the ADC analog watchdog flag */
      __HAL_ADC_CLEAR_FLAG(hadc, ADC_FLAG_AWD);
 8000f70:	687b      	ldr	r3, [r7, #4]
 8000f72:	681b      	ldr	r3, [r3, #0]
 8000f74:	f06f 0201 	mvn.w	r2, #1
 8000f78:	601a      	str	r2, [r3, #0]
    }
  }
  
}
 8000f7a:	bf00      	nop
 8000f7c:	3708      	adds	r7, #8
 8000f7e:	46bd      	mov	sp, r7
 8000f80:	bd80      	pop	{r7, pc}

08000f82 <HAL_ADC_LevelOutOfWindowCallback>:
  * @brief  Analog watchdog callback in non blocking mode. 
  * @param  hadc: ADC handle
  * @retval None
  */
__weak void HAL_ADC_LevelOutOfWindowCallback(ADC_HandleTypeDef* hadc)
{
 8000f82:	b480      	push	{r7}
 8000f84:	b083      	sub	sp, #12
 8000f86:	af00      	add	r7, sp, #0
 8000f88:	6078      	str	r0, [r7, #4]
  /* Prevent unused argument(s) compilation warning */
  UNUSED(hadc);
  /* NOTE : This function should not be modified. When the callback is needed,
            function HAL_ADC_LevelOutOfWindowCallback must be implemented in the user file.
  */
}
 8000f8a:	bf00      	nop
 8000f8c:	370c      	adds	r7, #12
 8000f8e:	46bd      	mov	sp, r7
 8000f90:	bc80      	pop	{r7}
 8000f92:	4770      	bx	lr

08000f94 <HAL_ADC_ConfigChannel>:
  * @param  hadc: ADC handle
  * @param  sConfig: Structure of ADC channel for regular group.
  * @retval HAL status
  */
HAL_StatusTypeDef HAL_ADC_ConfigChannel(ADC_HandleTypeDef* hadc, ADC_ChannelConfTypeDef* sConfig)
{ 
 8000f94:	b480      	push	{r7}
 8000f96:	b085      	sub	sp, #20
 8000f98:	af00      	add	r7, sp, #0
 8000f9a:	6078      	str	r0, [r7, #4]
 8000f9c:	6039      	str	r1, [r7, #0]
  HAL_StatusTypeDef tmp_hal_status = HAL_OK;
 8000f9e:	2300      	movs	r3, #0
 8000fa0:	73fb      	strb	r3, [r7, #15]
  __IO uint32_t wait_loop_index = 0U;
 8000fa2:	2300      	movs	r3, #0
 8000fa4:	60bb      	str	r3, [r7, #8]
  assert_param(IS_ADC_CHANNEL(sConfig->Channel));
  assert_param(IS_ADC_REGULAR_RANK(sConfig->Rank));
  assert_param(IS_ADC_SAMPLE_TIME(sConfig->SamplingTime));
  
  /* Process locked */
  __HAL_LOCK(hadc);
 8000fa6:	687b      	ldr	r3, [r7, #4]
 8000fa8:	f893 3024 	ldrb.w	r3, [r3, #36]	; 0x24
 8000fac:	2b01      	cmp	r3, #1
 8000fae:	d101      	bne.n	8000fb4 <HAL_ADC_ConfigChannel+0x20>
 8000fb0:	2302      	movs	r3, #2
 8000fb2:	e0dc      	b.n	800116e <HAL_ADC_ConfigChannel+0x1da>
 8000fb4:	687b      	ldr	r3, [r7, #4]
 8000fb6:	2201      	movs	r2, #1
 8000fb8:	f883 2024 	strb.w	r2, [r3, #36]	; 0x24
  
  
  /* Regular sequence configuration */
  /* For Rank 1 to 6 */
  if (sConfig->Rank < 7U)
 8000fbc:	683b      	ldr	r3, [r7, #0]
 8000fbe:	685b      	ldr	r3, [r3, #4]
 8000fc0:	2b06      	cmp	r3, #6
 8000fc2:	d81c      	bhi.n	8000ffe <HAL_ADC_ConfigChannel+0x6a>
  {
    MODIFY_REG(hadc->Instance->SQR3                        ,
 8000fc4:	687b      	ldr	r3, [r7, #4]
 8000fc6:	681b      	ldr	r3, [r3, #0]
 8000fc8:	6b59      	ldr	r1, [r3, #52]	; 0x34
 8000fca:	683b      	ldr	r3, [r7, #0]
 8000fcc:	685a      	ldr	r2, [r3, #4]
 8000fce:	4613      	mov	r3, r2
 8000fd0:	009b      	lsls	r3, r3, #2
 8000fd2:	4413      	add	r3, r2
 8000fd4:	3b05      	subs	r3, #5
 8000fd6:	221f      	movs	r2, #31
 8000fd8:	fa02 f303 	lsl.w	r3, r2, r3
 8000fdc:	43db      	mvns	r3, r3
 8000fde:	4019      	ands	r1, r3
 8000fe0:	683b      	ldr	r3, [r7, #0]
 8000fe2:	6818      	ldr	r0, [r3, #0]
 8000fe4:	683b      	ldr	r3, [r7, #0]
 8000fe6:	685a      	ldr	r2, [r3, #4]
 8000fe8:	4613      	mov	r3, r2
 8000fea:	009b      	lsls	r3, r3, #2
 8000fec:	4413      	add	r3, r2
 8000fee:	3b05      	subs	r3, #5
 8000ff0:	fa00 f203 	lsl.w	r2, r0, r3
 8000ff4:	687b      	ldr	r3, [r7, #4]
 8000ff6:	681b      	ldr	r3, [r3, #0]
 8000ff8:	430a      	orrs	r2, r1
 8000ffa:	635a      	str	r2, [r3, #52]	; 0x34
 8000ffc:	e03c      	b.n	8001078 <HAL_ADC_ConfigChannel+0xe4>
               ADC_SQR3_RK(ADC_SQR3_SQ1, sConfig->Rank)    ,
               ADC_SQR3_RK(sConfig->Channel, sConfig->Rank) );
  }
  /* For Rank 7 to 12 */
  else if (sConfig->Rank < 13U)
 8000ffe:	683b      	ldr	r3, [r7, #0]
 8001000:	685b      	ldr	r3, [r3, #4]
 8001002:	2b0c      	cmp	r3, #12
 8001004:	d81c      	bhi.n	8001040 <HAL_ADC_ConfigChannel+0xac>
  {
    MODIFY_REG(hadc->Instance->SQR2                        ,
 8001006:	687b      	ldr	r3, [r7, #4]
 8001008:	681b      	ldr	r3, [r3, #0]
 800100a:	6b19      	ldr	r1, [r3, #48]	; 0x30
 800100c:	683b      	ldr	r3, [r7, #0]
 800100e:	685a      	ldr	r2, [r3, #4]
 8001010:	4613      	mov	r3, r2
 8001012:	009b      	lsls	r3, r3, #2
 8001014:	4413      	add	r3, r2
 8001016:	3b23      	subs	r3, #35	; 0x23
 8001018:	221f      	movs	r2, #31
 800101a:	fa02 f303 	lsl.w	r3, r2, r3
 800101e:	43db      	mvns	r3, r3
 8001020:	4019      	ands	r1, r3
 8001022:	683b      	ldr	r3, [r7, #0]
 8001024:	6818      	ldr	r0, [r3, #0]
 8001026:	683b      	ldr	r3, [r7, #0]
 8001028:	685a      	ldr	r2, [r3, #4]
 800102a:	4613      	mov	r3, r2
 800102c:	009b      	lsls	r3, r3, #2
 800102e:	4413      	add	r3, r2
 8001030:	3b23      	subs	r3, #35	; 0x23
 8001032:	fa00 f203 	lsl.w	r2, r0, r3
 8001036:	687b      	ldr	r3, [r7, #4]
 8001038:	681b      	ldr	r3, [r3, #0]
 800103a:	430a      	orrs	r2, r1
 800103c:	631a      	str	r2, [r3, #48]	; 0x30
 800103e:	e01b      	b.n	8001078 <HAL_ADC_ConfigChannel+0xe4>
               ADC_SQR2_RK(sConfig->Channel, sConfig->Rank) );
  }
  /* For Rank 13 to 16 */
  else
  {
    MODIFY_REG(hadc->Instance->SQR1                        ,
 8001040:	687b      	ldr	r3, [r7, #4]
 8001042:	681b      	ldr	r3, [r3, #0]
 8001044:	6ad9      	ldr	r1, [r3, #44]	; 0x2c
 8001046:	683b      	ldr	r3, [r7, #0]
 8001048:	685a      	ldr	r2, [r3, #4]
 800104a:	4613      	mov	r3, r2
 800104c:	009b      	lsls	r3, r3, #2
 800104e:	4413      	add	r3, r2
 8001050:	3b41      	subs	r3, #65	; 0x41
 8001052:	221f      	movs	r2, #31
 8001054:	fa02 f303 	lsl.w	r3, r2, r3
 8001058:	43db      	mvns	r3, r3
 800105a:	4019      	ands	r1, r3
 800105c:	683b      	ldr	r3, [r7, #0]
 800105e:	6818      	ldr	r0, [r3, #0]
 8001060:	683b      	ldr	r3, [r7, #0]
 8001062:	685a      	ldr	r2, [r3, #4]
 8001064:	4613      	mov	r3, r2
 8001066:	009b      	lsls	r3, r3, #2
 8001068:	4413      	add	r3, r2
 800106a:	3b41      	subs	r3, #65	; 0x41
 800106c:	fa00 f203 	lsl.w	r2, r0, r3
 8001070:	687b      	ldr	r3, [r7, #4]
 8001072:	681b      	ldr	r3, [r3, #0]
 8001074:	430a      	orrs	r2, r1
 8001076:	62da      	str	r2, [r3, #44]	; 0x2c
  }
  
  
  /* Channel sampling time configuration */
  /* For channels 10 to 17 */
  if (sConfig->Channel >= ADC_CHANNEL_10)
 8001078:	683b      	ldr	r3, [r7, #0]
 800107a:	681b      	ldr	r3, [r3, #0]
 800107c:	2b09      	cmp	r3, #9
 800107e:	d91c      	bls.n	80010ba <HAL_ADC_ConfigChannel+0x126>
  {
    MODIFY_REG(hadc->Instance->SMPR1                             ,
 8001080:	687b      	ldr	r3, [r7, #4]
 8001082:	681b      	ldr	r3, [r3, #0]
 8001084:	68d9      	ldr	r1, [r3, #12]
 8001086:	683b      	ldr	r3, [r7, #0]
 8001088:	681a      	ldr	r2, [r3, #0]
 800108a:	4613      	mov	r3, r2
 800108c:	005b      	lsls	r3, r3, #1
 800108e:	4413      	add	r3, r2
 8001090:	3b1e      	subs	r3, #30
 8001092:	2207      	movs	r2, #7
 8001094:	fa02 f303 	lsl.w	r3, r2, r3
 8001098:	43db      	mvns	r3, r3
 800109a:	4019      	ands	r1, r3
 800109c:	683b      	ldr	r3, [r7, #0]
 800109e:	6898      	ldr	r0, [r3, #8]
 80010a0:	683b      	ldr	r3, [r7, #0]
 80010a2:	681a      	ldr	r2, [r3, #0]
 80010a4:	4613      	mov	r3, r2
 80010a6:	005b      	lsls	r3, r3, #1
 80010a8:	4413      	add	r3, r2
 80010aa:	3b1e      	subs	r3, #30
 80010ac:	fa00 f203 	lsl.w	r2, r0, r3
 80010b0:	687b      	ldr	r3, [r7, #4]
 80010b2:	681b      	ldr	r3, [r3, #0]
 80010b4:	430a      	orrs	r2, r1
 80010b6:	60da      	str	r2, [r3, #12]
 80010b8:	e019      	b.n	80010ee <HAL_ADC_ConfigChannel+0x15a>
               ADC_SMPR1(ADC_SMPR1_SMP10, sConfig->Channel)      ,
               ADC_SMPR1(sConfig->SamplingTime, sConfig->Channel) );
  }
  else /* For channels 0 to 9 */
  {
    MODIFY_REG(hadc->Instance->SMPR2                             ,
 80010ba:	687b      	ldr	r3, [r7, #4]
 80010bc:	681b      	ldr	r3, [r3, #0]
 80010be:	6919      	ldr	r1, [r3, #16]
 80010c0:	683b      	ldr	r3, [r7, #0]
 80010c2:	681a      	ldr	r2, [r3, #0]
 80010c4:	4613      	mov	r3, r2
 80010c6:	005b      	lsls	r3, r3, #1
 80010c8:	4413      	add	r3, r2
 80010ca:	2207      	movs	r2, #7
 80010cc:	fa02 f303 	lsl.w	r3, r2, r3
 80010d0:	43db      	mvns	r3, r3
 80010d2:	4019      	ands	r1, r3
 80010d4:	683b      	ldr	r3, [r7, #0]
 80010d6:	6898      	ldr	r0, [r3, #8]
 80010d8:	683b      	ldr	r3, [r7, #0]
 80010da:	681a      	ldr	r2, [r3, #0]
 80010dc:	4613      	mov	r3, r2
 80010de:	005b      	lsls	r3, r3, #1
 80010e0:	4413      	add	r3, r2
 80010e2:	fa00 f203 	lsl.w	r2, r0, r3
 80010e6:	687b      	ldr	r3, [r7, #4]
 80010e8:	681b      	ldr	r3, [r3, #0]
 80010ea:	430a      	orrs	r2, r1
 80010ec:	611a      	str	r2, [r3, #16]
               ADC_SMPR2(sConfig->SamplingTime, sConfig->Channel) );
  }
  
  /* If ADC1 Channel_16 or Channel_17 is selected, enable Temperature sensor  */
  /* and VREFINT measurement path.                                            */
  if ((sConfig->Channel == ADC_CHANNEL_TEMPSENSOR) ||
 80010ee:	683b      	ldr	r3, [r7, #0]
 80010f0:	681b      	ldr	r3, [r3, #0]
 80010f2:	2b10      	cmp	r3, #16
 80010f4:	d003      	beq.n	80010fe <HAL_ADC_ConfigChannel+0x16a>
      (sConfig->Channel == ADC_CHANNEL_VREFINT)      )
 80010f6:	683b      	ldr	r3, [r7, #0]
 80010f8:	681b      	ldr	r3, [r3, #0]
  if ((sConfig->Channel == ADC_CHANNEL_TEMPSENSOR) ||
 80010fa:	2b11      	cmp	r3, #17
 80010fc:	d132      	bne.n	8001164 <HAL_ADC_ConfigChannel+0x1d0>
  {
    /* For STM32F1 devices with several ADC: Only ADC1 can access internal    */
    /* measurement channels (VrefInt/TempSensor). If these channels are       */
    /* intended to be set on other ADC instances, an error is reported.       */
    if (hadc->Instance == ADC1)
 80010fe:	687b      	ldr	r3, [r7, #4]
 8001100:	681b      	ldr	r3, [r3, #0]
 8001102:	4a1d      	ldr	r2, [pc, #116]	; (8001178 <HAL_ADC_ConfigChannel+0x1e4>)
 8001104:	4293      	cmp	r3, r2
 8001106:	d125      	bne.n	8001154 <HAL_ADC_ConfigChannel+0x1c0>
    {
      if (READ_BIT(hadc->Instance->CR2, ADC_CR2_TSVREFE) == RESET)
 8001108:	687b      	ldr	r3, [r7, #4]
 800110a:	681b      	ldr	r3, [r3, #0]
 800110c:	689b      	ldr	r3, [r3, #8]
 800110e:	f403 0300 	and.w	r3, r3, #8388608	; 0x800000
 8001112:	2b00      	cmp	r3, #0
 8001114:	d126      	bne.n	8001164 <HAL_ADC_ConfigChannel+0x1d0>
      {
        SET_BIT(hadc->Instance->CR2, ADC_CR2_TSVREFE);
 8001116:	687b      	ldr	r3, [r7, #4]
 8001118:	681b      	ldr	r3, [r3, #0]
 800111a:	689a      	ldr	r2, [r3, #8]
 800111c:	687b      	ldr	r3, [r7, #4]
 800111e:	681b      	ldr	r3, [r3, #0]
 8001120:	f442 0200 	orr.w	r2, r2, #8388608	; 0x800000
 8001124:	609a      	str	r2, [r3, #8]
        
        if (sConfig->Channel == ADC_CHANNEL_TEMPSENSOR)
 8001126:	683b      	ldr	r3, [r7, #0]
 8001128:	681b      	ldr	r3, [r3, #0]
 800112a:	2b10      	cmp	r3, #16
 800112c:	d11a      	bne.n	8001164 <HAL_ADC_ConfigChannel+0x1d0>
        {
          /* Delay for temperature sensor stabilization time */
          /* Compute number of CPU cycles to wait for */
          wait_loop_index = (ADC_TEMPSENSOR_DELAY_US * (SystemCoreClock / 1000000U));
 800112e:	4b13      	ldr	r3, [pc, #76]	; (800117c <HAL_ADC_ConfigChannel+0x1e8>)
 8001130:	681b      	ldr	r3, [r3, #0]
 8001132:	4a13      	ldr	r2, [pc, #76]	; (8001180 <HAL_ADC_ConfigChannel+0x1ec>)
 8001134:	fba2 2303 	umull	r2, r3, r2, r3
 8001138:	0c9a      	lsrs	r2, r3, #18
 800113a:	4613      	mov	r3, r2
 800113c:	009b      	lsls	r3, r3, #2
 800113e:	4413      	add	r3, r2
 8001140:	005b      	lsls	r3, r3, #1
 8001142:	60bb      	str	r3, [r7, #8]
          while(wait_loop_index != 0U)
 8001144:	e002      	b.n	800114c <HAL_ADC_ConfigChannel+0x1b8>
          {
            wait_loop_index--;
 8001146:	68bb      	ldr	r3, [r7, #8]
 8001148:	3b01      	subs	r3, #1
 800114a:	60bb      	str	r3, [r7, #8]
          while(wait_loop_index != 0U)
 800114c:	68bb      	ldr	r3, [r7, #8]
 800114e:	2b00      	cmp	r3, #0
 8001150:	d1f9      	bne.n	8001146 <HAL_ADC_ConfigChannel+0x1b2>
 8001152:	e007      	b.n	8001164 <HAL_ADC_ConfigChannel+0x1d0>
      }
    }
    else
    {
      /* Update ADC state machine to error */
      SET_BIT(hadc->State, HAL_ADC_STATE_ERROR_CONFIG);
 8001154:	687b      	ldr	r3, [r7, #4]
 8001156:	6a9b      	ldr	r3, [r3, #40]	; 0x28
 8001158:	f043 0220 	orr.w	r2, r3, #32
 800115c:	687b      	ldr	r3, [r7, #4]
 800115e:	629a      	str	r2, [r3, #40]	; 0x28
      
      tmp_hal_status = HAL_ERROR;
 8001160:	2301      	movs	r3, #1
 8001162:	73fb      	strb	r3, [r7, #15]
    }
  }
  
  /* Process unlocked */
  __HAL_UNLOCK(hadc);
 8001164:	687b      	ldr	r3, [r7, #4]
 8001166:	2200      	movs	r2, #0
 8001168:	f883 2024 	strb.w	r2, [r3, #36]	; 0x24
  
  /* Return function status */
  return tmp_hal_status;
 800116c:	7bfb      	ldrb	r3, [r7, #15]
}
 800116e:	4618      	mov	r0, r3
 8001170:	3714      	adds	r7, #20
 8001172:	46bd      	mov	sp, r7
 8001174:	bc80      	pop	{r7}
 8001176:	4770      	bx	lr
 8001178:	40012400 	.word	0x40012400
 800117c:	20000008 	.word	0x20000008
 8001180:	431bde83 	.word	0x431bde83

08001184 <ADC_Enable>:
  *         and voltage regulator must be enabled (done into HAL_ADC_Init()).
  * @param  hadc: ADC handle
  * @retval HAL status.
  */
HAL_StatusTypeDef ADC_Enable(ADC_HandleTypeDef* hadc)
{
 8001184:	b580      	push	{r7, lr}
 8001186:	b084      	sub	sp, #16
 8001188:	af00      	add	r7, sp, #0
 800118a:	6078      	str	r0, [r7, #4]
  uint32_t tickstart = 0U;
 800118c:	2300      	movs	r3, #0
 800118e:	60fb      	str	r3, [r7, #12]
  __IO uint32_t wait_loop_index = 0U;
 8001190:	2300      	movs	r3, #0
 8001192:	60bb      	str	r3, [r7, #8]
  
  /* ADC enable and wait for ADC ready (in case of ADC is disabled or         */
  /* enabling phase not yet completed: flag ADC ready not yet set).           */
  /* Timeout implemented to not be stuck if ADC cannot be enabled (possible   */
  /* causes: ADC clock not running, ...).                                     */
  if (ADC_IS_ENABLE(hadc) == RESET)
 8001194:	687b      	ldr	r3, [r7, #4]
 8001196:	681b      	ldr	r3, [r3, #0]
 8001198:	689b      	ldr	r3, [r3, #8]
 800119a:	f003 0301 	and.w	r3, r3, #1
 800119e:	2b01      	cmp	r3, #1
 80011a0:	d040      	beq.n	8001224 <ADC_Enable+0xa0>
  {
    /* Enable the Peripheral */
    __HAL_ADC_ENABLE(hadc);
 80011a2:	687b      	ldr	r3, [r7, #4]
 80011a4:	681b      	ldr	r3, [r3, #0]
 80011a6:	689a      	ldr	r2, [r3, #8]
 80011a8:	687b      	ldr	r3, [r7, #4]
 80011aa:	681b      	ldr	r3, [r3, #0]
 80011ac:	f042 0201 	orr.w	r2, r2, #1
 80011b0:	609a      	str	r2, [r3, #8]
    
    /* Delay for ADC stabilization time */
    /* Compute number of CPU cycles to wait for */
    wait_loop_index = (ADC_STAB_DELAY_US * (SystemCoreClock / 1000000U));
 80011b2:	4b1f      	ldr	r3, [pc, #124]	; (8001230 <ADC_Enable+0xac>)
 80011b4:	681b      	ldr	r3, [r3, #0]
 80011b6:	4a1f      	ldr	r2, [pc, #124]	; (8001234 <ADC_Enable+0xb0>)
 80011b8:	fba2 2303 	umull	r2, r3, r2, r3
 80011bc:	0c9b      	lsrs	r3, r3, #18
 80011be:	60bb      	str	r3, [r7, #8]
    while(wait_loop_index != 0U)
 80011c0:	e002      	b.n	80011c8 <ADC_Enable+0x44>
    {
      wait_loop_index--;
 80011c2:	68bb      	ldr	r3, [r7, #8]
 80011c4:	3b01      	subs	r3, #1
 80011c6:	60bb      	str	r3, [r7, #8]
    while(wait_loop_index != 0U)
 80011c8:	68bb      	ldr	r3, [r7, #8]
 80011ca:	2b00      	cmp	r3, #0
 80011cc:	d1f9      	bne.n	80011c2 <ADC_Enable+0x3e>
    }
    
    /* Get tick count */
    tickstart = HAL_GetTick();
 80011ce:	f7ff fc4d 	bl	8000a6c <HAL_GetTick>
 80011d2:	60f8      	str	r0, [r7, #12]

    /* Wait for ADC effectively enabled */
    while(ADC_IS_ENABLE(hadc) == RESET)
 80011d4:	e01f      	b.n	8001216 <ADC_Enable+0x92>
    {
      if((HAL_GetTick() - tickstart) > ADC_ENABLE_TIMEOUT)
 80011d6:	f7ff fc49 	bl	8000a6c <HAL_GetTick>
 80011da:	4602      	mov	r2, r0
 80011dc:	68fb      	ldr	r3, [r7, #12]
 80011de:	1ad3      	subs	r3, r2, r3
 80011e0:	2b02      	cmp	r3, #2
 80011e2:	d918      	bls.n	8001216 <ADC_Enable+0x92>
      {
        /* New check to avoid false timeout detection in case of preemption */
        if(ADC_IS_ENABLE(hadc) == RESET)
 80011e4:	687b      	ldr	r3, [r7, #4]
 80011e6:	681b      	ldr	r3, [r3, #0]
 80011e8:	689b      	ldr	r3, [r3, #8]
 80011ea:	f003 0301 	and.w	r3, r3, #1
 80011ee:	2b01      	cmp	r3, #1
 80011f0:	d011      	beq.n	8001216 <ADC_Enable+0x92>
        {
          /* Update ADC state machine to error */
          SET_BIT(hadc->State, HAL_ADC_STATE_ERROR_INTERNAL);
 80011f2:	687b      	ldr	r3, [r7, #4]
 80011f4:	6a9b      	ldr	r3, [r3, #40]	; 0x28
 80011f6:	f043 0210 	orr.w	r2, r3, #16
 80011fa:	687b      	ldr	r3, [r7, #4]
 80011fc:	629a      	str	r2, [r3, #40]	; 0x28

          /* Set ADC error code to ADC IP internal error */
          SET_BIT(hadc->ErrorCode, HAL_ADC_ERROR_INTERNAL);
 80011fe:	687b      	ldr	r3, [r7, #4]
 8001200:	6adb      	ldr	r3, [r3, #44]	; 0x2c
 8001202:	f043 0201 	orr.w	r2, r3, #1
 8001206:	687b      	ldr	r3, [r7, #4]
 8001208:	62da      	str	r2, [r3, #44]	; 0x2c

          /* Process unlocked */
          __HAL_UNLOCK(hadc);
 800120a:	687b      	ldr	r3, [r7, #4]
 800120c:	2200      	movs	r2, #0
 800120e:	f883 2024 	strb.w	r2, [r3, #36]	; 0x24

          return HAL_ERROR;
 8001212:	2301      	movs	r3, #1
 8001214:	e007      	b.n	8001226 <ADC_Enable+0xa2>
    while(ADC_IS_ENABLE(hadc) == RESET)
 8001216:	687b      	ldr	r3, [r7, #4]
 8001218:	681b      	ldr	r3, [r3, #0]
 800121a:	689b      	ldr	r3, [r3, #8]
 800121c:	f003 0301 	and.w	r3, r3, #1
 8001220:	2b01      	cmp	r3, #1
 8001222:	d1d8      	bne.n	80011d6 <ADC_Enable+0x52>
      }
    }
  }
   
  /* Return HAL status */
  return HAL_OK;
 8001224:	2300      	movs	r3, #0
}
 8001226:	4618      	mov	r0, r3
 8001228:	3710      	adds	r7, #16
 800122a:	46bd      	mov	sp, r7
 800122c:	bd80      	pop	{r7, pc}
 800122e:	bf00      	nop
 8001230:	20000008 	.word	0x20000008
 8001234:	431bde83 	.word	0x431bde83

08001238 <ADC_ConversionStop_Disable>:
  *         stopped to disable the ADC.
  * @param  hadc: ADC handle
  * @retval HAL status.
  */
HAL_StatusTypeDef ADC_ConversionStop_Disable(ADC_HandleTypeDef* hadc)
{
 8001238:	b580      	push	{r7, lr}
 800123a:	b084      	sub	sp, #16
 800123c:	af00      	add	r7, sp, #0
 800123e:	6078      	str	r0, [r7, #4]
  uint32_t tickstart = 0U;
 8001240:	2300      	movs	r3, #0
 8001242:	60fb      	str	r3, [r7, #12]
  
  /* Verification if ADC is not already disabled */
  if (ADC_IS_ENABLE(hadc) != RESET)
 8001244:	687b      	ldr	r3, [r7, #4]
 8001246:	681b      	ldr	r3, [r3, #0]
 8001248:	689b      	ldr	r3, [r3, #8]
 800124a:	f003 0301 	and.w	r3, r3, #1
 800124e:	2b01      	cmp	r3, #1
 8001250:	d12e      	bne.n	80012b0 <ADC_ConversionStop_Disable+0x78>
  {
    /* Disable the ADC peripheral */
    __HAL_ADC_DISABLE(hadc);
 8001252:	687b      	ldr	r3, [r7, #4]
 8001254:	681b      	ldr	r3, [r3, #0]
 8001256:	689a      	ldr	r2, [r3, #8]
 8001258:	687b      	ldr	r3, [r7, #4]
 800125a:	681b      	ldr	r3, [r3, #0]
 800125c:	f022 0201 	bic.w	r2, r2, #1
 8001260:	609a      	str	r2, [r3, #8]
     
    /* Get tick count */
    tickstart = HAL_GetTick();
 8001262:	f7ff fc03 	bl	8000a6c <HAL_GetTick>
 8001266:	60f8      	str	r0, [r7, #12]
    
    /* Wait for ADC effectively disabled */
    while(ADC_IS_ENABLE(hadc) != RESET)
 8001268:	e01b      	b.n	80012a2 <ADC_ConversionStop_Disable+0x6a>
    {
      if((HAL_GetTick() - tickstart) > ADC_DISABLE_TIMEOUT)
 800126a:	f7ff fbff 	bl	8000a6c <HAL_GetTick>
 800126e:	4602      	mov	r2, r0
 8001270:	68fb      	ldr	r3, [r7, #12]
 8001272:	1ad3      	subs	r3, r2, r3
 8001274:	2b02      	cmp	r3, #2
 8001276:	d914      	bls.n	80012a2 <ADC_ConversionStop_Disable+0x6a>
      {
        /* New check to avoid false timeout detection in case of preemption */
        if(ADC_IS_ENABLE(hadc) != RESET)
 8001278:	687b      	ldr	r3, [r7, #4]
 800127a:	681b      	ldr	r3, [r3, #0]
 800127c:	689b      	ldr	r3, [r3, #8]
 800127e:	f003 0301 	and.w	r3, r3, #1
 8001282:	2b01      	cmp	r3, #1
 8001284:	d10d      	bne.n	80012a2 <ADC_ConversionStop_Disable+0x6a>
        {
          /* Update ADC state machine to error */
          SET_BIT(hadc->State, HAL_ADC_STATE_ERROR_INTERNAL);
 8001286:	687b      	ldr	r3, [r7, #4]
 8001288:	6a9b      	ldr	r3, [r3, #40]	; 0x28
 800128a:	f043 0210 	orr.w	r2, r3, #16
 800128e:	687b      	ldr	r3, [r7, #4]
 8001290:	629a      	str	r2, [r3, #40]	; 0x28

          /* Set ADC error code to ADC IP internal error */
          SET_BIT(hadc->ErrorCode, HAL_ADC_ERROR_INTERNAL);
 8001292:	687b      	ldr	r3, [r7, #4]
 8001294:	6adb      	ldr	r3, [r3, #44]	; 0x2c
 8001296:	f043 0201 	orr.w	r2, r3, #1
 800129a:	687b      	ldr	r3, [r7, #4]
 800129c:	62da      	str	r2, [r3, #44]	; 0x2c

          return HAL_ERROR;
 800129e:	2301      	movs	r3, #1
 80012a0:	e007      	b.n	80012b2 <ADC_ConversionStop_Disable+0x7a>
    while(ADC_IS_ENABLE(hadc) != RESET)
 80012a2:	687b      	ldr	r3, [r7, #4]
 80012a4:	681b      	ldr	r3, [r3, #0]
 80012a6:	689b      	ldr	r3, [r3, #8]
 80012a8:	f003 0301 	and.w	r3, r3, #1
 80012ac:	2b01      	cmp	r3, #1
 80012ae:	d0dc      	beq.n	800126a <ADC_ConversionStop_Disable+0x32>
      }
    }
  }
  
  /* Return HAL status */
  return HAL_OK;
 80012b0:	2300      	movs	r3, #0
}
 80012b2:	4618      	mov	r0, r3
 80012b4:	3710      	adds	r7, #16
 80012b6:	46bd      	mov	sp, r7
 80012b8:	bd80      	pop	{r7, pc}

080012ba <HAL_ADCEx_InjectedConvCpltCallback>:
  * @brief  Injected conversion complete callback in non blocking mode 
  * @param  hadc: ADC handle
  * @retval None
  */
__weak void HAL_ADCEx_InjectedConvCpltCallback(ADC_HandleTypeDef* hadc)
{
 80012ba:	b480      	push	{r7}
 80012bc:	b083      	sub	sp, #12
 80012be:	af00      	add	r7, sp, #0
 80012c0:	6078      	str	r0, [r7, #4]
  /* Prevent unused argument(s) compilation warning */
  UNUSED(hadc);
  /* NOTE : This function Should not be modified, when the callback is needed,
            the HAL_ADCEx_InjectedConvCpltCallback could be implemented in the user file
  */
}
 80012c2:	bf00      	nop
 80012c4:	370c      	adds	r7, #12
 80012c6:	46bd      	mov	sp, r7
 80012c8:	bc80      	pop	{r7}
 80012ca:	4770      	bx	lr

080012cc <__NVIC_SetPriorityGrouping>:
           In case of a conflict between priority grouping and available
           priority bits (__NVIC_PRIO_BITS), the smallest possible priority group is set.
  \param [in]      PriorityGroup  Priority grouping field.
 */
__STATIC_INLINE void __NVIC_SetPriorityGrouping(uint32_t PriorityGroup)
{
 80012cc:	b480      	push	{r7}
 80012ce:	b085      	sub	sp, #20
 80012d0:	af00      	add	r7, sp, #0
 80012d2:	6078      	str	r0, [r7, #4]
  uint32_t reg_value;
  uint32_t PriorityGroupTmp = (PriorityGroup & (uint32_t)0x07UL);             /* only values 0..7 are used          */
 80012d4:	687b      	ldr	r3, [r7, #4]
 80012d6:	f003 0307 	and.w	r3, r3, #7
 80012da:	60fb      	str	r3, [r7, #12]

  reg_value  =  SCB->AIRCR;                                                   /* read old register configuration    */
 80012dc:	4b0c      	ldr	r3, [pc, #48]	; (8001310 <__NVIC_SetPriorityGrouping+0x44>)
 80012de:	68db      	ldr	r3, [r3, #12]
 80012e0:	60bb      	str	r3, [r7, #8]
  reg_value &= ~((uint32_t)(SCB_AIRCR_VECTKEY_Msk | SCB_AIRCR_PRIGROUP_Msk)); /* clear bits to change               */
 80012e2:	68ba      	ldr	r2, [r7, #8]
 80012e4:	f64f 03ff 	movw	r3, #63743	; 0xf8ff
 80012e8:	4013      	ands	r3, r2
 80012ea:	60bb      	str	r3, [r7, #8]
  reg_value  =  (reg_value                                   |
                ((uint32_t)0x5FAUL << SCB_AIRCR_VECTKEY_Pos) |
                (PriorityGroupTmp << SCB_AIRCR_PRIGROUP_Pos) );               /* Insert write key and priority group */
 80012ec:	68fb      	ldr	r3, [r7, #12]
 80012ee:	021a      	lsls	r2, r3, #8
                ((uint32_t)0x5FAUL << SCB_AIRCR_VECTKEY_Pos) |
 80012f0:	68bb      	ldr	r3, [r7, #8]
 80012f2:	4313      	orrs	r3, r2
  reg_value  =  (reg_value                                   |
 80012f4:	f043 63bf 	orr.w	r3, r3, #100139008	; 0x5f80000
 80012f8:	f443 3300 	orr.w	r3, r3, #131072	; 0x20000
 80012fc:	60bb      	str	r3, [r7, #8]
  SCB->AIRCR =  reg_value;
 80012fe:	4a04      	ldr	r2, [pc, #16]	; (8001310 <__NVIC_SetPriorityGrouping+0x44>)
 8001300:	68bb      	ldr	r3, [r7, #8]
 8001302:	60d3      	str	r3, [r2, #12]
}
 8001304:	bf00      	nop
 8001306:	3714      	adds	r7, #20
 8001308:	46bd      	mov	sp, r7
 800130a:	bc80      	pop	{r7}
 800130c:	4770      	bx	lr
 800130e:	bf00      	nop
 8001310:	e000ed00 	.word	0xe000ed00

08001314 <__NVIC_GetPriorityGrouping>:
  \brief   Get Priority Grouping
  \details Reads the priority grouping field from the NVIC Interrupt Controller.
  \return                Priority grouping field (SCB->AIRCR [10:8] PRIGROUP field).
 */
__STATIC_INLINE uint32_t __NVIC_GetPriorityGrouping(void)
{
 8001314:	b480      	push	{r7}
 8001316:	af00      	add	r7, sp, #0
  return ((uint32_t)((SCB->AIRCR & SCB_AIRCR_PRIGROUP_Msk) >> SCB_AIRCR_PRIGROUP_Pos));
 8001318:	4b04      	ldr	r3, [pc, #16]	; (800132c <__NVIC_GetPriorityGrouping+0x18>)
 800131a:	68db      	ldr	r3, [r3, #12]
 800131c:	0a1b      	lsrs	r3, r3, #8
 800131e:	f003 0307 	and.w	r3, r3, #7
}
 8001322:	4618      	mov	r0, r3
 8001324:	46bd      	mov	sp, r7
 8001326:	bc80      	pop	{r7}
 8001328:	4770      	bx	lr
 800132a:	bf00      	nop
 800132c:	e000ed00 	.word	0xe000ed00

08001330 <__NVIC_EnableIRQ>:
  \details Enables a device specific interrupt in the NVIC interrupt controller.
  \param [in]      IRQn  Device specific interrupt number.
  \note    IRQn must not be negative.
 */
__STATIC_INLINE void __NVIC_EnableIRQ(IRQn_Type IRQn)
{
 8001330:	b480      	push	{r7}
 8001332:	b083      	sub	sp, #12
 8001334:	af00      	add	r7, sp, #0
 8001336:	4603      	mov	r3, r0
 8001338:	71fb      	strb	r3, [r7, #7]
  if ((int32_t)(IRQn) >= 0)
 800133a:	f997 3007 	ldrsb.w	r3, [r7, #7]
 800133e:	2b00      	cmp	r3, #0
 8001340:	db0b      	blt.n	800135a <__NVIC_EnableIRQ+0x2a>
  {
    NVIC->ISER[(((uint32_t)IRQn) >> 5UL)] = (uint32_t)(1UL << (((uint32_t)IRQn) & 0x1FUL));
 8001342:	79fb      	ldrb	r3, [r7, #7]
 8001344:	f003 021f 	and.w	r2, r3, #31
 8001348:	4906      	ldr	r1, [pc, #24]	; (8001364 <__NVIC_EnableIRQ+0x34>)
 800134a:	f997 3007 	ldrsb.w	r3, [r7, #7]
 800134e:	095b      	lsrs	r3, r3, #5
 8001350:	2001      	movs	r0, #1
 8001352:	fa00 f202 	lsl.w	r2, r0, r2
 8001356:	f841 2023 	str.w	r2, [r1, r3, lsl #2]
  }
}
 800135a:	bf00      	nop
 800135c:	370c      	adds	r7, #12
 800135e:	46bd      	mov	sp, r7
 8001360:	bc80      	pop	{r7}
 8001362:	4770      	bx	lr
 8001364:	e000e100 	.word	0xe000e100

08001368 <__NVIC_SetPriority>:
  \param [in]      IRQn  Interrupt number.
  \param [in]  priority  Priority to set.
  \note    The priority cannot be set for every processor exception.
 */
__STATIC_INLINE void __NVIC_SetPriority(IRQn_Type IRQn, uint32_t priority)
{
 8001368:	b480      	push	{r7}
 800136a:	b083      	sub	sp, #12
 800136c:	af00      	add	r7, sp, #0
 800136e:	4603      	mov	r3, r0
 8001370:	6039      	str	r1, [r7, #0]
 8001372:	71fb      	strb	r3, [r7, #7]
  if ((int32_t)(IRQn) >= 0)
 8001374:	f997 3007 	ldrsb.w	r3, [r7, #7]
 8001378:	2b00      	cmp	r3, #0
 800137a:	db0a      	blt.n	8001392 <__NVIC_SetPriority+0x2a>
  {
    NVIC->IP[((uint32_t)IRQn)]               = (uint8_t)((priority << (8U - __NVIC_PRIO_BITS)) & (uint32_t)0xFFUL);
 800137c:	683b      	ldr	r3, [r7, #0]
 800137e:	b2da      	uxtb	r2, r3
 8001380:	490c      	ldr	r1, [pc, #48]	; (80013b4 <__NVIC_SetPriority+0x4c>)
 8001382:	f997 3007 	ldrsb.w	r3, [r7, #7]
 8001386:	0112      	lsls	r2, r2, #4
 8001388:	b2d2      	uxtb	r2, r2
 800138a:	440b      	add	r3, r1
 800138c:	f883 2300 	strb.w	r2, [r3, #768]	; 0x300
  }
  else
  {
    SCB->SHP[(((uint32_t)IRQn) & 0xFUL)-4UL] = (uint8_t)((priority << (8U - __NVIC_PRIO_BITS)) & (uint32_t)0xFFUL);
  }
}
 8001390:	e00a      	b.n	80013a8 <__NVIC_SetPriority+0x40>
    SCB->SHP[(((uint32_t)IRQn) & 0xFUL)-4UL] = (uint8_t)((priority << (8U - __NVIC_PRIO_BITS)) & (uint32_t)0xFFUL);
 8001392:	683b      	ldr	r3, [r7, #0]
 8001394:	b2da      	uxtb	r2, r3
 8001396:	4908      	ldr	r1, [pc, #32]	; (80013b8 <__NVIC_SetPriority+0x50>)
 8001398:	79fb      	ldrb	r3, [r7, #7]
 800139a:	f003 030f 	and.w	r3, r3, #15
 800139e:	3b04      	subs	r3, #4
 80013a0:	0112      	lsls	r2, r2, #4
 80013a2:	b2d2      	uxtb	r2, r2
 80013a4:	440b      	add	r3, r1
 80013a6:	761a      	strb	r2, [r3, #24]
}
 80013a8:	bf00      	nop
 80013aa:	370c      	adds	r7, #12
 80013ac:	46bd      	mov	sp, r7
 80013ae:	bc80      	pop	{r7}
 80013b0:	4770      	bx	lr
 80013b2:	bf00      	nop
 80013b4:	e000e100 	.word	0xe000e100
 80013b8:	e000ed00 	.word	0xe000ed00

080013bc <NVIC_EncodePriority>:
  \param [in]   PreemptPriority  Preemptive priority value (starting from 0).
  \param [in]       SubPriority  Subpriority value (starting from 0).
  \return                        Encoded priority. Value can be used in the function \ref NVIC_SetPriority().
 */
__STATIC_INLINE uint32_t NVIC_EncodePriority (uint32_t PriorityGroup, uint32_t PreemptPriority, uint32_t SubPriority)
{
 80013bc:	b480      	push	{r7}
 80013be:	b089      	sub	sp, #36	; 0x24
 80013c0:	af00      	add	r7, sp, #0
 80013c2:	60f8      	str	r0, [r7, #12]
 80013c4:	60b9      	str	r1, [r7, #8]
 80013c6:	607a      	str	r2, [r7, #4]
  uint32_t PriorityGroupTmp = (PriorityGroup & (uint32_t)0x07UL);   /* only values 0..7 are used          */
 80013c8:	68fb      	ldr	r3, [r7, #12]
 80013ca:	f003 0307 	and.w	r3, r3, #7
 80013ce:	61fb      	str	r3, [r7, #28]
  uint32_t PreemptPriorityBits;
  uint32_t SubPriorityBits;

  PreemptPriorityBits = ((7UL - PriorityGroupTmp) > (uint32_t)(__NVIC_PRIO_BITS)) ? (uint32_t)(__NVIC_PRIO_BITS) : (uint32_t)(7UL - PriorityGroupTmp);
 80013d0:	69fb      	ldr	r3, [r7, #28]
 80013d2:	f1c3 0307 	rsb	r3, r3, #7
 80013d6:	2b04      	cmp	r3, #4
 80013d8:	bf28      	it	cs
 80013da:	2304      	movcs	r3, #4
 80013dc:	61bb      	str	r3, [r7, #24]
  SubPriorityBits     = ((PriorityGroupTmp + (uint32_t)(__NVIC_PRIO_BITS)) < (uint32_t)7UL) ? (uint32_t)0UL : (uint32_t)((PriorityGroupTmp - 7UL) + (uint32_t)(__NVIC_PRIO_BITS));
 80013de:	69fb      	ldr	r3, [r7, #28]
 80013e0:	3304      	adds	r3, #4
 80013e2:	2b06      	cmp	r3, #6
 80013e4:	d902      	bls.n	80013ec <NVIC_EncodePriority+0x30>
 80013e6:	69fb      	ldr	r3, [r7, #28]
 80013e8:	3b03      	subs	r3, #3
 80013ea:	e000      	b.n	80013ee <NVIC_EncodePriority+0x32>
 80013ec:	2300      	movs	r3, #0
 80013ee:	617b      	str	r3, [r7, #20]

  return (
           ((PreemptPriority & (uint32_t)((1UL << (PreemptPriorityBits)) - 1UL)) << SubPriorityBits) |
 80013f0:	f04f 32ff 	mov.w	r2, #4294967295
 80013f4:	69bb      	ldr	r3, [r7, #24]
 80013f6:	fa02 f303 	lsl.w	r3, r2, r3
 80013fa:	43da      	mvns	r2, r3
 80013fc:	68bb      	ldr	r3, [r7, #8]
 80013fe:	401a      	ands	r2, r3
 8001400:	697b      	ldr	r3, [r7, #20]
 8001402:	409a      	lsls	r2, r3
           ((SubPriority     & (uint32_t)((1UL << (SubPriorityBits    )) - 1UL)))
 8001404:	f04f 31ff 	mov.w	r1, #4294967295
 8001408:	697b      	ldr	r3, [r7, #20]
 800140a:	fa01 f303 	lsl.w	r3, r1, r3
 800140e:	43d9      	mvns	r1, r3
 8001410:	687b      	ldr	r3, [r7, #4]
 8001412:	400b      	ands	r3, r1
           ((PreemptPriority & (uint32_t)((1UL << (PreemptPriorityBits)) - 1UL)) << SubPriorityBits) |
 8001414:	4313      	orrs	r3, r2
         );
}
 8001416:	4618      	mov	r0, r3
 8001418:	3724      	adds	r7, #36	; 0x24
 800141a:	46bd      	mov	sp, r7
 800141c:	bc80      	pop	{r7}
 800141e:	4770      	bx	lr

08001420 <SysTick_Config>:
  \note    When the variable <b>__Vendor_SysTickConfig</b> is set to 1, then the
           function <b>SysTick_Config</b> is not included. In this case, the file <b><i>device</i>.h</b>
           must contain a vendor-specific implementation of this function.
 */
__STATIC_INLINE uint32_t SysTick_Config(uint32_t ticks)
{
 8001420:	b580      	push	{r7, lr}
 8001422:	b082      	sub	sp, #8
 8001424:	af00      	add	r7, sp, #0
 8001426:	6078      	str	r0, [r7, #4]
  if ((ticks - 1UL) > SysTick_LOAD_RELOAD_Msk)
 8001428:	687b      	ldr	r3, [r7, #4]
 800142a:	3b01      	subs	r3, #1
 800142c:	f1b3 7f80 	cmp.w	r3, #16777216	; 0x1000000
 8001430:	d301      	bcc.n	8001436 <SysTick_Config+0x16>
  {
    return (1UL);                                                   /* Reload value impossible */
 8001432:	2301      	movs	r3, #1
 8001434:	e00f      	b.n	8001456 <SysTick_Config+0x36>
  }

  SysTick->LOAD  = (uint32_t)(ticks - 1UL);                         /* set reload register */
 8001436:	4a0a      	ldr	r2, [pc, #40]	; (8001460 <SysTick_Config+0x40>)
 8001438:	687b      	ldr	r3, [r7, #4]
 800143a:	3b01      	subs	r3, #1
 800143c:	6053      	str	r3, [r2, #4]
  NVIC_SetPriority (SysTick_IRQn, (1UL << __NVIC_PRIO_BITS) - 1UL); /* set Priority for Systick Interrupt */
 800143e:	210f      	movs	r1, #15
 8001440:	f04f 30ff 	mov.w	r0, #4294967295
 8001444:	f7ff ff90 	bl	8001368 <__NVIC_SetPriority>
  SysTick->VAL   = 0UL;                                             /* Load the SysTick Counter Value */
 8001448:	4b05      	ldr	r3, [pc, #20]	; (8001460 <SysTick_Config+0x40>)
 800144a:	2200      	movs	r2, #0
 800144c:	609a      	str	r2, [r3, #8]
  SysTick->CTRL  = SysTick_CTRL_CLKSOURCE_Msk |
 800144e:	4b04      	ldr	r3, [pc, #16]	; (8001460 <SysTick_Config+0x40>)
 8001450:	2207      	movs	r2, #7
 8001452:	601a      	str	r2, [r3, #0]
                   SysTick_CTRL_TICKINT_Msk   |
                   SysTick_CTRL_ENABLE_Msk;                         /* Enable SysTick IRQ and SysTick Timer */
  return (0UL);                                                     /* Function successful */
 8001454:	2300      	movs	r3, #0
}
 8001456:	4618      	mov	r0, r3
 8001458:	3708      	adds	r7, #8
 800145a:	46bd      	mov	sp, r7
 800145c:	bd80      	pop	{r7, pc}
 800145e:	bf00      	nop
 8001460:	e000e010 	.word	0xe000e010

08001464 <HAL_NVIC_SetPriorityGrouping>:
  * @note   When the NVIC_PriorityGroup_0 is selected, IRQ preemption is no more possible. 
  *         The pending IRQ priority will be managed only by the subpriority. 
  * @retval None
  */
void HAL_NVIC_SetPriorityGrouping(uint32_t PriorityGroup)
{
 8001464:	b580      	push	{r7, lr}
 8001466:	b082      	sub	sp, #8
 8001468:	af00      	add	r7, sp, #0
 800146a:	6078      	str	r0, [r7, #4]
  /* Check the parameters */
  assert_param(IS_NVIC_PRIORITY_GROUP(PriorityGroup));
  
  /* Set the PRIGROUP[10:8] bits according to the PriorityGroup parameter value */
  NVIC_SetPriorityGrouping(PriorityGroup);
 800146c:	6878      	ldr	r0, [r7, #4]
 800146e:	f7ff ff2d 	bl	80012cc <__NVIC_SetPriorityGrouping>
}
 8001472:	bf00      	nop
 8001474:	3708      	adds	r7, #8
 8001476:	46bd      	mov	sp, r7
 8001478:	bd80      	pop	{r7, pc}

0800147a <HAL_NVIC_SetPriority>:
  *         This parameter can be a value between 0 and 15
  *         A lower priority value indicates a higher priority.          
  * @retval None
  */
void HAL_NVIC_SetPriority(IRQn_Type IRQn, uint32_t PreemptPriority, uint32_t SubPriority)
{ 
 800147a:	b580      	push	{r7, lr}
 800147c:	b086      	sub	sp, #24
 800147e:	af00      	add	r7, sp, #0
 8001480:	4603      	mov	r3, r0
 8001482:	60b9      	str	r1, [r7, #8]
 8001484:	607a      	str	r2, [r7, #4]
 8001486:	73fb      	strb	r3, [r7, #15]
  uint32_t prioritygroup = 0x00U;
 8001488:	2300      	movs	r3, #0
 800148a:	617b      	str	r3, [r7, #20]
  
  /* Check the parameters */
  assert_param(IS_NVIC_SUB_PRIORITY(SubPriority));
  assert_param(IS_NVIC_PREEMPTION_PRIORITY(PreemptPriority));
  
  prioritygroup = NVIC_GetPriorityGrouping();
 800148c:	f7ff ff42 	bl	8001314 <__NVIC_GetPriorityGrouping>
 8001490:	6178      	str	r0, [r7, #20]
  
  NVIC_SetPriority(IRQn, NVIC_EncodePriority(prioritygroup, PreemptPriority, SubPriority));
 8001492:	687a      	ldr	r2, [r7, #4]
 8001494:	68b9      	ldr	r1, [r7, #8]
 8001496:	6978      	ldr	r0, [r7, #20]
 8001498:	f7ff ff90 	bl	80013bc <NVIC_EncodePriority>
 800149c:	4602      	mov	r2, r0
 800149e:	f997 300f 	ldrsb.w	r3, [r7, #15]
 80014a2:	4611      	mov	r1, r2
 80014a4:	4618      	mov	r0, r3
 80014a6:	f7ff ff5f 	bl	8001368 <__NVIC_SetPriority>
}
 80014aa:	bf00      	nop
 80014ac:	3718      	adds	r7, #24
 80014ae:	46bd      	mov	sp, r7
 80014b0:	bd80      	pop	{r7, pc}

080014b2 <HAL_NVIC_EnableIRQ>:
  *         This parameter can be an enumerator of IRQn_Type enumeration
  *         (For the complete STM32 Devices IRQ Channels list, please refer to the appropriate CMSIS device file (stm32f10xxx.h))
  * @retval None
  */
void HAL_NVIC_EnableIRQ(IRQn_Type IRQn)
{
 80014b2:	b580      	push	{r7, lr}
 80014b4:	b082      	sub	sp, #8
 80014b6:	af00      	add	r7, sp, #0
 80014b8:	4603      	mov	r3, r0
 80014ba:	71fb      	strb	r3, [r7, #7]
  /* Check the parameters */
  assert_param(IS_NVIC_DEVICE_IRQ(IRQn));

  /* Enable interrupt */
  NVIC_EnableIRQ(IRQn);
 80014bc:	f997 3007 	ldrsb.w	r3, [r7, #7]
 80014c0:	4618      	mov	r0, r3
 80014c2:	f7ff ff35 	bl	8001330 <__NVIC_EnableIRQ>
}
 80014c6:	bf00      	nop
 80014c8:	3708      	adds	r7, #8
 80014ca:	46bd      	mov	sp, r7
 80014cc:	bd80      	pop	{r7, pc}

080014ce <HAL_SYSTICK_Config>:
  * @param  TicksNumb: Specifies the ticks Number of ticks between two interrupts.
  * @retval status:  - 0  Function succeeded.
  *                  - 1  Function failed.
  */
uint32_t HAL_SYSTICK_Config(uint32_t TicksNumb)
{
 80014ce:	b580      	push	{r7, lr}
 80014d0:	b082      	sub	sp, #8
 80014d2:	af00      	add	r7, sp, #0
 80014d4:	6078      	str	r0, [r7, #4]
   return SysTick_Config(TicksNumb);
 80014d6:	6878      	ldr	r0, [r7, #4]
 80014d8:	f7ff ffa2 	bl	8001420 <SysTick_Config>
 80014dc:	4603      	mov	r3, r0
}
 80014de:	4618      	mov	r0, r3
 80014e0:	3708      	adds	r7, #8
 80014e2:	46bd      	mov	sp, r7
 80014e4:	bd80      	pop	{r7, pc}

080014e6 <HAL_DMA_Abort>:
  * @param  hdma: pointer to a DMA_HandleTypeDef structure that contains
  *               the configuration information for the specified DMA Channel.
  * @retval HAL status
  */
HAL_StatusTypeDef HAL_DMA_Abort(DMA_HandleTypeDef *hdma)
{
 80014e6:	b480      	push	{r7}
 80014e8:	b085      	sub	sp, #20
 80014ea:	af00      	add	r7, sp, #0
 80014ec:	6078      	str	r0, [r7, #4]
  HAL_StatusTypeDef status = HAL_OK;
 80014ee:	2300      	movs	r3, #0
 80014f0:	73fb      	strb	r3, [r7, #15]
  
  if(hdma->State != HAL_DMA_STATE_BUSY)
 80014f2:	687b      	ldr	r3, [r7, #4]
 80014f4:	f893 3021 	ldrb.w	r3, [r3, #33]	; 0x21
 80014f8:	2b02      	cmp	r3, #2
 80014fa:	d008      	beq.n	800150e <HAL_DMA_Abort+0x28>
  {
    /* no transfer ongoing */
    hdma->ErrorCode = HAL_DMA_ERROR_NO_XFER;
 80014fc:	687b      	ldr	r3, [r7, #4]
 80014fe:	2204      	movs	r2, #4
 8001500:	639a      	str	r2, [r3, #56]	; 0x38
    
    /* Process Unlocked */
    __HAL_UNLOCK(hdma);
 8001502:	687b      	ldr	r3, [r7, #4]
 8001504:	2200      	movs	r2, #0
 8001506:	f883 2020 	strb.w	r2, [r3, #32]
    
    return HAL_ERROR;
 800150a:	2301      	movs	r3, #1
 800150c:	e020      	b.n	8001550 <HAL_DMA_Abort+0x6a>
  }
  else

  {
    /* Disable DMA IT */
    __HAL_DMA_DISABLE_IT(hdma, (DMA_IT_TC | DMA_IT_HT | DMA_IT_TE));
 800150e:	687b      	ldr	r3, [r7, #4]
 8001510:	681b      	ldr	r3, [r3, #0]
 8001512:	681a      	ldr	r2, [r3, #0]
 8001514:	687b      	ldr	r3, [r7, #4]
 8001516:	681b      	ldr	r3, [r3, #0]
 8001518:	f022 020e 	bic.w	r2, r2, #14
 800151c:	601a      	str	r2, [r3, #0]
      
    /* Disable the channel */
    __HAL_DMA_DISABLE(hdma);
 800151e:	687b      	ldr	r3, [r7, #4]
 8001520:	681b      	ldr	r3, [r3, #0]
 8001522:	681a      	ldr	r2, [r3, #0]
 8001524:	687b      	ldr	r3, [r7, #4]
 8001526:	681b      	ldr	r3, [r3, #0]
 8001528:	f022 0201 	bic.w	r2, r2, #1
 800152c:	601a      	str	r2, [r3, #0]
      
    /* Clear all flags */
    hdma->DmaBaseAddress->IFCR = (DMA_ISR_GIF1 << hdma->ChannelIndex);
 800152e:	687b      	ldr	r3, [r7, #4]
 8001530:	6c1a      	ldr	r2, [r3, #64]	; 0x40
 8001532:	687b      	ldr	r3, [r7, #4]
 8001534:	6bdb      	ldr	r3, [r3, #60]	; 0x3c
 8001536:	2101      	movs	r1, #1
 8001538:	fa01 f202 	lsl.w	r2, r1, r2
 800153c:	605a      	str	r2, [r3, #4]
  }
  /* Change the DMA state */
  hdma->State = HAL_DMA_STATE_READY;
 800153e:	687b      	ldr	r3, [r7, #4]
 8001540:	2201      	movs	r2, #1
 8001542:	f883 2021 	strb.w	r2, [r3, #33]	; 0x21

  /* Process Unlocked */
  __HAL_UNLOCK(hdma);      
 8001546:	687b      	ldr	r3, [r7, #4]
 8001548:	2200      	movs	r2, #0
 800154a:	f883 2020 	strb.w	r2, [r3, #32]
  
  return status; 
 800154e:	7bfb      	ldrb	r3, [r7, #15]
}
 8001550:	4618      	mov	r0, r3
 8001552:	3714      	adds	r7, #20
 8001554:	46bd      	mov	sp, r7
 8001556:	bc80      	pop	{r7}
 8001558:	4770      	bx	lr
	...

0800155c <HAL_DMA_Abort_IT>:
  * @param  hdma  : pointer to a DMA_HandleTypeDef structure that contains
  *                 the configuration information for the specified DMA Channel.
  * @retval HAL status
  */
HAL_StatusTypeDef HAL_DMA_Abort_IT(DMA_HandleTypeDef *hdma)
{  
 800155c:	b580      	push	{r7, lr}
 800155e:	b084      	sub	sp, #16
 8001560:	af00      	add	r7, sp, #0
 8001562:	6078      	str	r0, [r7, #4]
  HAL_StatusTypeDef status = HAL_OK;
 8001564:	2300      	movs	r3, #0
 8001566:	73fb      	strb	r3, [r7, #15]
  
  if(HAL_DMA_STATE_BUSY != hdma->State)
 8001568:	687b      	ldr	r3, [r7, #4]
 800156a:	f893 3021 	ldrb.w	r3, [r3, #33]	; 0x21
 800156e:	2b02      	cmp	r3, #2
 8001570:	d005      	beq.n	800157e <HAL_DMA_Abort_IT+0x22>
  {
    /* no transfer ongoing */
    hdma->ErrorCode = HAL_DMA_ERROR_NO_XFER;
 8001572:	687b      	ldr	r3, [r7, #4]
 8001574:	2204      	movs	r2, #4
 8001576:	639a      	str	r2, [r3, #56]	; 0x38
        
    status = HAL_ERROR;
 8001578:	2301      	movs	r3, #1
 800157a:	73fb      	strb	r3, [r7, #15]
 800157c:	e051      	b.n	8001622 <HAL_DMA_Abort_IT+0xc6>
  }
  else
  { 
    /* Disable DMA IT */
    __HAL_DMA_DISABLE_IT(hdma, (DMA_IT_TC | DMA_IT_HT | DMA_IT_TE));
 800157e:	687b      	ldr	r3, [r7, #4]
 8001580:	681b      	ldr	r3, [r3, #0]
 8001582:	681a      	ldr	r2, [r3, #0]
 8001584:	687b      	ldr	r3, [r7, #4]
 8001586:	681b      	ldr	r3, [r3, #0]
 8001588:	f022 020e 	bic.w	r2, r2, #14
 800158c:	601a      	str	r2, [r3, #0]

    /* Disable the channel */
    __HAL_DMA_DISABLE(hdma);
 800158e:	687b      	ldr	r3, [r7, #4]
 8001590:	681b      	ldr	r3, [r3, #0]
 8001592:	681a      	ldr	r2, [r3, #0]
 8001594:	687b      	ldr	r3, [r7, #4]
 8001596:	681b      	ldr	r3, [r3, #0]
 8001598:	f022 0201 	bic.w	r2, r2, #1
 800159c:	601a      	str	r2, [r3, #0]

    /* Clear all flags */
    __HAL_DMA_CLEAR_FLAG(hdma, __HAL_DMA_GET_GI_FLAG_INDEX(hdma));
 800159e:	687b      	ldr	r3, [r7, #4]
 80015a0:	681b      	ldr	r3, [r3, #0]
 80015a2:	4a22      	ldr	r2, [pc, #136]	; (800162c <HAL_DMA_Abort_IT+0xd0>)
 80015a4:	4293      	cmp	r3, r2
 80015a6:	d029      	beq.n	80015fc <HAL_DMA_Abort_IT+0xa0>
 80015a8:	687b      	ldr	r3, [r7, #4]
 80015aa:	681b      	ldr	r3, [r3, #0]
 80015ac:	4a20      	ldr	r2, [pc, #128]	; (8001630 <HAL_DMA_Abort_IT+0xd4>)
 80015ae:	4293      	cmp	r3, r2
 80015b0:	d022      	beq.n	80015f8 <HAL_DMA_Abort_IT+0x9c>
 80015b2:	687b      	ldr	r3, [r7, #4]
 80015b4:	681b      	ldr	r3, [r3, #0]
 80015b6:	4a1f      	ldr	r2, [pc, #124]	; (8001634 <HAL_DMA_Abort_IT+0xd8>)
 80015b8:	4293      	cmp	r3, r2
 80015ba:	d01a      	beq.n	80015f2 <HAL_DMA_Abort_IT+0x96>
 80015bc:	687b      	ldr	r3, [r7, #4]
 80015be:	681b      	ldr	r3, [r3, #0]
 80015c0:	4a1d      	ldr	r2, [pc, #116]	; (8001638 <HAL_DMA_Abort_IT+0xdc>)
 80015c2:	4293      	cmp	r3, r2
 80015c4:	d012      	beq.n	80015ec <HAL_DMA_Abort_IT+0x90>
 80015c6:	687b      	ldr	r3, [r7, #4]
 80015c8:	681b      	ldr	r3, [r3, #0]
 80015ca:	4a1c      	ldr	r2, [pc, #112]	; (800163c <HAL_DMA_Abort_IT+0xe0>)
 80015cc:	4293      	cmp	r3, r2
 80015ce:	d00a      	beq.n	80015e6 <HAL_DMA_Abort_IT+0x8a>
 80015d0:	687b      	ldr	r3, [r7, #4]
 80015d2:	681b      	ldr	r3, [r3, #0]
 80015d4:	4a1a      	ldr	r2, [pc, #104]	; (8001640 <HAL_DMA_Abort_IT+0xe4>)
 80015d6:	4293      	cmp	r3, r2
 80015d8:	d102      	bne.n	80015e0 <HAL_DMA_Abort_IT+0x84>
 80015da:	f44f 1380 	mov.w	r3, #1048576	; 0x100000
 80015de:	e00e      	b.n	80015fe <HAL_DMA_Abort_IT+0xa2>
 80015e0:	f04f 7380 	mov.w	r3, #16777216	; 0x1000000
 80015e4:	e00b      	b.n	80015fe <HAL_DMA_Abort_IT+0xa2>
 80015e6:	f44f 3380 	mov.w	r3, #65536	; 0x10000
 80015ea:	e008      	b.n	80015fe <HAL_DMA_Abort_IT+0xa2>
 80015ec:	f44f 5380 	mov.w	r3, #4096	; 0x1000
 80015f0:	e005      	b.n	80015fe <HAL_DMA_Abort_IT+0xa2>
 80015f2:	f44f 7380 	mov.w	r3, #256	; 0x100
 80015f6:	e002      	b.n	80015fe <HAL_DMA_Abort_IT+0xa2>
 80015f8:	2310      	movs	r3, #16
 80015fa:	e000      	b.n	80015fe <HAL_DMA_Abort_IT+0xa2>
 80015fc:	2301      	movs	r3, #1
 80015fe:	4a11      	ldr	r2, [pc, #68]	; (8001644 <HAL_DMA_Abort_IT+0xe8>)
 8001600:	6053      	str	r3, [r2, #4]

    /* Change the DMA state */
    hdma->State = HAL_DMA_STATE_READY;
 8001602:	687b      	ldr	r3, [r7, #4]
 8001604:	2201      	movs	r2, #1
 8001606:	f883 2021 	strb.w	r2, [r3, #33]	; 0x21

    /* Process Unlocked */
    __HAL_UNLOCK(hdma);
 800160a:	687b      	ldr	r3, [r7, #4]
 800160c:	2200      	movs	r2, #0
 800160e:	f883 2020 	strb.w	r2, [r3, #32]

    /* Call User Abort callback */
    if(hdma->XferAbortCallback != NULL)
 8001612:	687b      	ldr	r3, [r7, #4]
 8001614:	6b5b      	ldr	r3, [r3, #52]	; 0x34
 8001616:	2b00      	cmp	r3, #0
 8001618:	d003      	beq.n	8001622 <HAL_DMA_Abort_IT+0xc6>
    {
      hdma->XferAbortCallback(hdma);
 800161a:	687b      	ldr	r3, [r7, #4]
 800161c:	6b5b      	ldr	r3, [r3, #52]	; 0x34
 800161e:	6878      	ldr	r0, [r7, #4]
 8001620:	4798      	blx	r3
    } 
  }
  return status;
 8001622:	7bfb      	ldrb	r3, [r7, #15]
}
 8001624:	4618      	mov	r0, r3
 8001626:	3710      	adds	r7, #16
 8001628:	46bd      	mov	sp, r7
 800162a:	bd80      	pop	{r7, pc}
 800162c:	40020008 	.word	0x40020008
 8001630:	4002001c 	.word	0x4002001c
 8001634:	40020030 	.word	0x40020030
 8001638:	40020044 	.word	0x40020044
 800163c:	40020058 	.word	0x40020058
 8001640:	4002006c 	.word	0x4002006c
 8001644:	40020000 	.word	0x40020000

08001648 <HAL_FLASH_Program>:
  * @param  Data:         Specifies the data to be programmed
  * 
  * @retval HAL_StatusTypeDef HAL Status
  */
HAL_StatusTypeDef HAL_FLASH_Program(uint32_t TypeProgram, uint32_t Address, uint64_t Data)
{
 8001648:	b5f0      	push	{r4, r5, r6, r7, lr}
 800164a:	b087      	sub	sp, #28
 800164c:	af00      	add	r7, sp, #0
 800164e:	60f8      	str	r0, [r7, #12]
 8001650:	60b9      	str	r1, [r7, #8]
 8001652:	e9c7 2300 	strd	r2, r3, [r7]
  HAL_StatusTypeDef status = HAL_ERROR;
 8001656:	2301      	movs	r3, #1
 8001658:	75fb      	strb	r3, [r7, #23]
  uint8_t index = 0;
 800165a:	2300      	movs	r3, #0
 800165c:	75bb      	strb	r3, [r7, #22]
  uint8_t nbiterations = 0;
 800165e:	2300      	movs	r3, #0
 8001660:	757b      	strb	r3, [r7, #21]
  
  /* Process Locked */
  __HAL_LOCK(&pFlash);
 8001662:	4b2f      	ldr	r3, [pc, #188]	; (8001720 <HAL_FLASH_Program+0xd8>)
 8001664:	7e1b      	ldrb	r3, [r3, #24]
 8001666:	2b01      	cmp	r3, #1
 8001668:	d101      	bne.n	800166e <HAL_FLASH_Program+0x26>
 800166a:	2302      	movs	r3, #2
 800166c:	e054      	b.n	8001718 <HAL_FLASH_Program+0xd0>
 800166e:	4b2c      	ldr	r3, [pc, #176]	; (8001720 <HAL_FLASH_Program+0xd8>)
 8001670:	2201      	movs	r2, #1
 8001672:	761a      	strb	r2, [r3, #24]
#if defined(FLASH_BANK2_END)
  if(Address <= FLASH_BANK1_END)
  {
#endif /* FLASH_BANK2_END */
    /* Wait for last operation to be completed */
    status = FLASH_WaitForLastOperation(FLASH_TIMEOUT_VALUE);
 8001674:	f24c 3050 	movw	r0, #50000	; 0xc350
 8001678:	f000 f8a8 	bl	80017cc <FLASH_WaitForLastOperation>
 800167c:	4603      	mov	r3, r0
 800167e:	75fb      	strb	r3, [r7, #23]
    /* Wait for last operation to be completed */
    status = FLASH_WaitForLastOperationBank2(FLASH_TIMEOUT_VALUE);
  }
#endif /* FLASH_BANK2_END */
  
  if(status == HAL_OK)
 8001680:	7dfb      	ldrb	r3, [r7, #23]
 8001682:	2b00      	cmp	r3, #0
 8001684:	d144      	bne.n	8001710 <HAL_FLASH_Program+0xc8>
  {
    if(TypeProgram == FLASH_TYPEPROGRAM_HALFWORD)
 8001686:	68fb      	ldr	r3, [r7, #12]
 8001688:	2b01      	cmp	r3, #1
 800168a:	d102      	bne.n	8001692 <HAL_FLASH_Program+0x4a>
    {
      /* Program halfword (16-bit) at a specified address. */
      nbiterations = 1U;
 800168c:	2301      	movs	r3, #1
 800168e:	757b      	strb	r3, [r7, #21]
 8001690:	e007      	b.n	80016a2 <HAL_FLASH_Program+0x5a>
    }
    else if(TypeProgram == FLASH_TYPEPROGRAM_WORD)
 8001692:	68fb      	ldr	r3, [r7, #12]
 8001694:	2b02      	cmp	r3, #2
 8001696:	d102      	bne.n	800169e <HAL_FLASH_Program+0x56>
    {
      /* Program word (32-bit = 2*16-bit) at a specified address. */
      nbiterations = 2U;
 8001698:	2302      	movs	r3, #2
 800169a:	757b      	strb	r3, [r7, #21]
 800169c:	e001      	b.n	80016a2 <HAL_FLASH_Program+0x5a>
    }
    else
    {
      /* Program double word (64-bit = 4*16-bit) at a specified address. */
      nbiterations = 4U;
 800169e:	2304      	movs	r3, #4
 80016a0:	757b      	strb	r3, [r7, #21]
    }

    for (index = 0U; index < nbiterations; index++)
 80016a2:	2300      	movs	r3, #0
 80016a4:	75bb      	strb	r3, [r7, #22]
 80016a6:	e02d      	b.n	8001704 <HAL_FLASH_Program+0xbc>
    {
      FLASH_Program_HalfWord((Address + (2U*index)), (uint16_t)(Data >> (16U*index)));
 80016a8:	7dbb      	ldrb	r3, [r7, #22]
 80016aa:	005a      	lsls	r2, r3, #1
 80016ac:	68bb      	ldr	r3, [r7, #8]
 80016ae:	eb02 0c03 	add.w	ip, r2, r3
 80016b2:	7dbb      	ldrb	r3, [r7, #22]
 80016b4:	0119      	lsls	r1, r3, #4
 80016b6:	e9d7 2300 	ldrd	r2, r3, [r7]
 80016ba:	f1c1 0620 	rsb	r6, r1, #32
 80016be:	f1a1 0020 	sub.w	r0, r1, #32
 80016c2:	fa22 f401 	lsr.w	r4, r2, r1
 80016c6:	fa03 f606 	lsl.w	r6, r3, r6
 80016ca:	4334      	orrs	r4, r6
 80016cc:	fa23 f000 	lsr.w	r0, r3, r0
 80016d0:	4304      	orrs	r4, r0
 80016d2:	fa23 f501 	lsr.w	r5, r3, r1
 80016d6:	b2a3      	uxth	r3, r4
 80016d8:	4619      	mov	r1, r3
 80016da:	4660      	mov	r0, ip
 80016dc:	f000 f85a 	bl	8001794 <FLASH_Program_HalfWord>
#if defined(FLASH_BANK2_END)
      if(Address <= FLASH_BANK1_END)
      {
#endif /* FLASH_BANK2_END */
        /* Wait for last operation to be completed */
        status = FLASH_WaitForLastOperation(FLASH_TIMEOUT_VALUE);
 80016e0:	f24c 3050 	movw	r0, #50000	; 0xc350
 80016e4:	f000 f872 	bl	80017cc <FLASH_WaitForLastOperation>
 80016e8:	4603      	mov	r3, r0
 80016ea:	75fb      	strb	r3, [r7, #23]
    
        /* If the program operation is completed, disable the PG Bit */
        CLEAR_BIT(FLASH->CR, FLASH_CR_PG);
 80016ec:	4b0d      	ldr	r3, [pc, #52]	; (8001724 <HAL_FLASH_Program+0xdc>)
 80016ee:	691b      	ldr	r3, [r3, #16]
 80016f0:	4a0c      	ldr	r2, [pc, #48]	; (8001724 <HAL_FLASH_Program+0xdc>)
 80016f2:	f023 0301 	bic.w	r3, r3, #1
 80016f6:	6113      	str	r3, [r2, #16]
        /* If the program operation is completed, disable the PG Bit */
        CLEAR_BIT(FLASH->CR2, FLASH_CR2_PG);
      }
#endif /* FLASH_BANK2_END */
      /* In case of error, stop programation procedure */
      if (status != HAL_OK)
 80016f8:	7dfb      	ldrb	r3, [r7, #23]
 80016fa:	2b00      	cmp	r3, #0
 80016fc:	d107      	bne.n	800170e <HAL_FLASH_Program+0xc6>
    for (index = 0U; index < nbiterations; index++)
 80016fe:	7dbb      	ldrb	r3, [r7, #22]
 8001700:	3301      	adds	r3, #1
 8001702:	75bb      	strb	r3, [r7, #22]
 8001704:	7dba      	ldrb	r2, [r7, #22]
 8001706:	7d7b      	ldrb	r3, [r7, #21]
 8001708:	429a      	cmp	r2, r3
 800170a:	d3cd      	bcc.n	80016a8 <HAL_FLASH_Program+0x60>
 800170c:	e000      	b.n	8001710 <HAL_FLASH_Program+0xc8>
      {
        break;
 800170e:	bf00      	nop
      }
    }
  }

  /* Process Unlocked */
  __HAL_UNLOCK(&pFlash);
 8001710:	4b03      	ldr	r3, [pc, #12]	; (8001720 <HAL_FLASH_Program+0xd8>)
 8001712:	2200      	movs	r2, #0
 8001714:	761a      	strb	r2, [r3, #24]

  return status;
 8001716:	7dfb      	ldrb	r3, [r7, #23]
}
 8001718:	4618      	mov	r0, r3
 800171a:	371c      	adds	r7, #28
 800171c:	46bd      	mov	sp, r7
 800171e:	bdf0      	pop	{r4, r5, r6, r7, pc}
 8001720:	20000110 	.word	0x20000110
 8001724:	40022000 	.word	0x40022000

08001728 <HAL_FLASH_Unlock>:
/**
  * @brief  Unlock the FLASH control register access
  * @retval HAL Status
  */
HAL_StatusTypeDef HAL_FLASH_Unlock(void)
{
 8001728:	b480      	push	{r7}
 800172a:	b083      	sub	sp, #12
 800172c:	af00      	add	r7, sp, #0
  HAL_StatusTypeDef status = HAL_OK;
 800172e:	2300      	movs	r3, #0
 8001730:	71fb      	strb	r3, [r7, #7]

  if(READ_BIT(FLASH->CR, FLASH_CR_LOCK) != RESET)
 8001732:	4b0d      	ldr	r3, [pc, #52]	; (8001768 <HAL_FLASH_Unlock+0x40>)
 8001734:	691b      	ldr	r3, [r3, #16]
 8001736:	f003 0380 	and.w	r3, r3, #128	; 0x80
 800173a:	2b00      	cmp	r3, #0
 800173c:	d00d      	beq.n	800175a <HAL_FLASH_Unlock+0x32>
  {
    /* Authorize the FLASH Registers access */
    WRITE_REG(FLASH->KEYR, FLASH_KEY1);
 800173e:	4b0a      	ldr	r3, [pc, #40]	; (8001768 <HAL_FLASH_Unlock+0x40>)
 8001740:	4a0a      	ldr	r2, [pc, #40]	; (800176c <HAL_FLASH_Unlock+0x44>)
 8001742:	605a      	str	r2, [r3, #4]
    WRITE_REG(FLASH->KEYR, FLASH_KEY2);
 8001744:	4b08      	ldr	r3, [pc, #32]	; (8001768 <HAL_FLASH_Unlock+0x40>)
 8001746:	4a0a      	ldr	r2, [pc, #40]	; (8001770 <HAL_FLASH_Unlock+0x48>)
 8001748:	605a      	str	r2, [r3, #4]

    /* Verify Flash is unlocked */
    if(READ_BIT(FLASH->CR, FLASH_CR_LOCK) != RESET)
 800174a:	4b07      	ldr	r3, [pc, #28]	; (8001768 <HAL_FLASH_Unlock+0x40>)
 800174c:	691b      	ldr	r3, [r3, #16]
 800174e:	f003 0380 	and.w	r3, r3, #128	; 0x80
 8001752:	2b00      	cmp	r3, #0
 8001754:	d001      	beq.n	800175a <HAL_FLASH_Unlock+0x32>
    {
      status = HAL_ERROR;
 8001756:	2301      	movs	r3, #1
 8001758:	71fb      	strb	r3, [r7, #7]
      status = HAL_ERROR;
    }
  }
#endif /* FLASH_BANK2_END */

  return status;
 800175a:	79fb      	ldrb	r3, [r7, #7]
}
 800175c:	4618      	mov	r0, r3
 800175e:	370c      	adds	r7, #12
 8001760:	46bd      	mov	sp, r7
 8001762:	bc80      	pop	{r7}
 8001764:	4770      	bx	lr
 8001766:	bf00      	nop
 8001768:	40022000 	.word	0x40022000
 800176c:	45670123 	.word	0x45670123
 8001770:	cdef89ab 	.word	0xcdef89ab

08001774 <HAL_FLASH_Lock>:
/**
  * @brief  Locks the FLASH control register access
  * @retval HAL Status
  */
HAL_StatusTypeDef HAL_FLASH_Lock(void)
{
 8001774:	b480      	push	{r7}
 8001776:	af00      	add	r7, sp, #0
  /* Set the LOCK Bit to lock the FLASH Registers access */
  SET_BIT(FLASH->CR, FLASH_CR_LOCK);
 8001778:	4b05      	ldr	r3, [pc, #20]	; (8001790 <HAL_FLASH_Lock+0x1c>)
 800177a:	691b      	ldr	r3, [r3, #16]
 800177c:	4a04      	ldr	r2, [pc, #16]	; (8001790 <HAL_FLASH_Lock+0x1c>)
 800177e:	f043 0380 	orr.w	r3, r3, #128	; 0x80
 8001782:	6113      	str	r3, [r2, #16]
#if defined(FLASH_BANK2_END)
  /* Set the LOCK Bit to lock the FLASH BANK2 Registers access */
  SET_BIT(FLASH->CR2, FLASH_CR2_LOCK);

#endif /* FLASH_BANK2_END */
  return HAL_OK;  
 8001784:	2300      	movs	r3, #0
}
 8001786:	4618      	mov	r0, r3
 8001788:	46bd      	mov	sp, r7
 800178a:	bc80      	pop	{r7}
 800178c:	4770      	bx	lr
 800178e:	bf00      	nop
 8001790:	40022000 	.word	0x40022000

08001794 <FLASH_Program_HalfWord>:
  * @param  Address specify the address to be programmed.
  * @param  Data    specify the data to be programmed.
  * @retval None
  */
static void FLASH_Program_HalfWord(uint32_t Address, uint16_t Data)
{
 8001794:	b480      	push	{r7}
 8001796:	b083      	sub	sp, #12
 8001798:	af00      	add	r7, sp, #0
 800179a:	6078      	str	r0, [r7, #4]
 800179c:	460b      	mov	r3, r1
 800179e:	807b      	strh	r3, [r7, #2]
  /* Clean the error context */
  pFlash.ErrorCode = HAL_FLASH_ERROR_NONE;
 80017a0:	4b08      	ldr	r3, [pc, #32]	; (80017c4 <FLASH_Program_HalfWord+0x30>)
 80017a2:	2200      	movs	r2, #0
 80017a4:	61da      	str	r2, [r3, #28]
#if defined(FLASH_BANK2_END)
  if(Address <= FLASH_BANK1_END)
  {
#endif /* FLASH_BANK2_END */
    /* Proceed to program the new data */
    SET_BIT(FLASH->CR, FLASH_CR_PG);
 80017a6:	4b08      	ldr	r3, [pc, #32]	; (80017c8 <FLASH_Program_HalfWord+0x34>)
 80017a8:	691b      	ldr	r3, [r3, #16]
 80017aa:	4a07      	ldr	r2, [pc, #28]	; (80017c8 <FLASH_Program_HalfWord+0x34>)
 80017ac:	f043 0301 	orr.w	r3, r3, #1
 80017b0:	6113      	str	r3, [r2, #16]
    SET_BIT(FLASH->CR2, FLASH_CR2_PG);
  }
#endif /* FLASH_BANK2_END */

  /* Write data in the address */
  *(__IO uint16_t*)Address = Data;
 80017b2:	687b      	ldr	r3, [r7, #4]
 80017b4:	887a      	ldrh	r2, [r7, #2]
 80017b6:	801a      	strh	r2, [r3, #0]
}
 80017b8:	bf00      	nop
 80017ba:	370c      	adds	r7, #12
 80017bc:	46bd      	mov	sp, r7
 80017be:	bc80      	pop	{r7}
 80017c0:	4770      	bx	lr
 80017c2:	bf00      	nop
 80017c4:	20000110 	.word	0x20000110
 80017c8:	40022000 	.word	0x40022000

080017cc <FLASH_WaitForLastOperation>:
  * @brief  Wait for a FLASH operation to complete.
  * @param  Timeout  maximum flash operation timeout
  * @retval HAL Status
  */
HAL_StatusTypeDef FLASH_WaitForLastOperation(uint32_t Timeout)
{
 80017cc:	b580      	push	{r7, lr}
 80017ce:	b084      	sub	sp, #16
 80017d0:	af00      	add	r7, sp, #0
 80017d2:	6078      	str	r0, [r7, #4]
  /* Wait for the FLASH operation to complete by polling on BUSY flag to be reset.
     Even if the FLASH operation fails, the BUSY flag will be reset and an error
     flag will be set */
     
  uint32_t tickstart = HAL_GetTick();
 80017d4:	f7ff f94a 	bl	8000a6c <HAL_GetTick>
 80017d8:	60f8      	str	r0, [r7, #12]
     
  while(__HAL_FLASH_GET_FLAG(FLASH_FLAG_BSY)) 
 80017da:	e010      	b.n	80017fe <FLASH_WaitForLastOperation+0x32>
  { 
    if (Timeout != HAL_MAX_DELAY)
 80017dc:	687b      	ldr	r3, [r7, #4]
 80017de:	f1b3 3fff 	cmp.w	r3, #4294967295
 80017e2:	d00c      	beq.n	80017fe <FLASH_WaitForLastOperation+0x32>
    {
      if((Timeout == 0U) || ((HAL_GetTick()-tickstart) > Timeout))
 80017e4:	687b      	ldr	r3, [r7, #4]
 80017e6:	2b00      	cmp	r3, #0
 80017e8:	d007      	beq.n	80017fa <FLASH_WaitForLastOperation+0x2e>
 80017ea:	f7ff f93f 	bl	8000a6c <HAL_GetTick>
 80017ee:	4602      	mov	r2, r0
 80017f0:	68fb      	ldr	r3, [r7, #12]
 80017f2:	1ad3      	subs	r3, r2, r3
 80017f4:	687a      	ldr	r2, [r7, #4]
 80017f6:	429a      	cmp	r2, r3
 80017f8:	d201      	bcs.n	80017fe <FLASH_WaitForLastOperation+0x32>
      {
        return HAL_TIMEOUT;
 80017fa:	2303      	movs	r3, #3
 80017fc:	e025      	b.n	800184a <FLASH_WaitForLastOperation+0x7e>
  while(__HAL_FLASH_GET_FLAG(FLASH_FLAG_BSY)) 
 80017fe:	4b15      	ldr	r3, [pc, #84]	; (8001854 <FLASH_WaitForLastOperation+0x88>)
 8001800:	68db      	ldr	r3, [r3, #12]
 8001802:	f003 0301 	and.w	r3, r3, #1
 8001806:	2b00      	cmp	r3, #0
 8001808:	d1e8      	bne.n	80017dc <FLASH_WaitForLastOperation+0x10>
      }
    }
  }
  
  /* Check FLASH End of Operation flag  */
  if (__HAL_FLASH_GET_FLAG(FLASH_FLAG_EOP))
 800180a:	4b12      	ldr	r3, [pc, #72]	; (8001854 <FLASH_WaitForLastOperation+0x88>)
 800180c:	68db      	ldr	r3, [r3, #12]
 800180e:	f003 0320 	and.w	r3, r3, #32
 8001812:	2b00      	cmp	r3, #0
 8001814:	d002      	beq.n	800181c <FLASH_WaitForLastOperation+0x50>
  {
    /* Clear FLASH End of Operation pending bit */
    __HAL_FLASH_CLEAR_FLAG(FLASH_FLAG_EOP);
 8001816:	4b0f      	ldr	r3, [pc, #60]	; (8001854 <FLASH_WaitForLastOperation+0x88>)
 8001818:	2220      	movs	r2, #32
 800181a:	60da      	str	r2, [r3, #12]
  }
  
  if(__HAL_FLASH_GET_FLAG(FLASH_FLAG_WRPERR)  || 
 800181c:	4b0d      	ldr	r3, [pc, #52]	; (8001854 <FLASH_WaitForLastOperation+0x88>)
 800181e:	68db      	ldr	r3, [r3, #12]
 8001820:	f003 0310 	and.w	r3, r3, #16
 8001824:	2b00      	cmp	r3, #0
 8001826:	d10b      	bne.n	8001840 <FLASH_WaitForLastOperation+0x74>
     __HAL_FLASH_GET_FLAG(FLASH_FLAG_OPTVERR) || 
 8001828:	4b0a      	ldr	r3, [pc, #40]	; (8001854 <FLASH_WaitForLastOperation+0x88>)
 800182a:	69db      	ldr	r3, [r3, #28]
 800182c:	f003 0301 	and.w	r3, r3, #1
  if(__HAL_FLASH_GET_FLAG(FLASH_FLAG_WRPERR)  || 
 8001830:	2b00      	cmp	r3, #0
 8001832:	d105      	bne.n	8001840 <FLASH_WaitForLastOperation+0x74>
     __HAL_FLASH_GET_FLAG(FLASH_FLAG_PGERR))
 8001834:	4b07      	ldr	r3, [pc, #28]	; (8001854 <FLASH_WaitForLastOperation+0x88>)
 8001836:	68db      	ldr	r3, [r3, #12]
 8001838:	f003 0304 	and.w	r3, r3, #4
     __HAL_FLASH_GET_FLAG(FLASH_FLAG_OPTVERR) || 
 800183c:	2b00      	cmp	r3, #0
 800183e:	d003      	beq.n	8001848 <FLASH_WaitForLastOperation+0x7c>
  {
    /*Save the error code*/
    FLASH_SetErrorCode();
 8001840:	f000 f80a 	bl	8001858 <FLASH_SetErrorCode>
    return HAL_ERROR;
 8001844:	2301      	movs	r3, #1
 8001846:	e000      	b.n	800184a <FLASH_WaitForLastOperation+0x7e>
  }

  /* There is no error flag set */
  return HAL_OK;
 8001848:	2300      	movs	r3, #0
}
 800184a:	4618      	mov	r0, r3
 800184c:	3710      	adds	r7, #16
 800184e:	46bd      	mov	sp, r7
 8001850:	bd80      	pop	{r7, pc}
 8001852:	bf00      	nop
 8001854:	40022000 	.word	0x40022000

08001858 <FLASH_SetErrorCode>:
/**
  * @brief  Set the specific FLASH error flag.
  * @retval None
  */
static void FLASH_SetErrorCode(void)
{
 8001858:	b480      	push	{r7}
 800185a:	b083      	sub	sp, #12
 800185c:	af00      	add	r7, sp, #0
  uint32_t flags = 0U;
 800185e:	2300      	movs	r3, #0
 8001860:	607b      	str	r3, [r7, #4]
  
#if defined(FLASH_BANK2_END)
  if(__HAL_FLASH_GET_FLAG(FLASH_FLAG_WRPERR) || __HAL_FLASH_GET_FLAG(FLASH_FLAG_WRPERR_BANK2))
#else
  if(__HAL_FLASH_GET_FLAG(FLASH_FLAG_WRPERR))
 8001862:	4b23      	ldr	r3, [pc, #140]	; (80018f0 <FLASH_SetErrorCode+0x98>)
 8001864:	68db      	ldr	r3, [r3, #12]
 8001866:	f003 0310 	and.w	r3, r3, #16
 800186a:	2b00      	cmp	r3, #0
 800186c:	d009      	beq.n	8001882 <FLASH_SetErrorCode+0x2a>
#endif /* FLASH_BANK2_END */
  {
    pFlash.ErrorCode |= HAL_FLASH_ERROR_WRP;
 800186e:	4b21      	ldr	r3, [pc, #132]	; (80018f4 <FLASH_SetErrorCode+0x9c>)
 8001870:	69db      	ldr	r3, [r3, #28]
 8001872:	f043 0302 	orr.w	r3, r3, #2
 8001876:	4a1f      	ldr	r2, [pc, #124]	; (80018f4 <FLASH_SetErrorCode+0x9c>)
 8001878:	61d3      	str	r3, [r2, #28]
#if defined(FLASH_BANK2_END)
    flags |= FLASH_FLAG_WRPERR | FLASH_FLAG_WRPERR_BANK2;
#else
    flags |= FLASH_FLAG_WRPERR;
 800187a:	687b      	ldr	r3, [r7, #4]
 800187c:	f043 0310 	orr.w	r3, r3, #16
 8001880:	607b      	str	r3, [r7, #4]
#endif /* FLASH_BANK2_END */
  }
#if defined(FLASH_BANK2_END)
  if(__HAL_FLASH_GET_FLAG(FLASH_FLAG_PGERR) || __HAL_FLASH_GET_FLAG(FLASH_FLAG_PGERR_BANK2))
#else
  if(__HAL_FLASH_GET_FLAG(FLASH_FLAG_PGERR))
 8001882:	4b1b      	ldr	r3, [pc, #108]	; (80018f0 <FLASH_SetErrorCode+0x98>)
 8001884:	68db      	ldr	r3, [r3, #12]
 8001886:	f003 0304 	and.w	r3, r3, #4
 800188a:	2b00      	cmp	r3, #0
 800188c:	d009      	beq.n	80018a2 <FLASH_SetErrorCode+0x4a>
#endif /* FLASH_BANK2_END */
  {
    pFlash.ErrorCode |= HAL_FLASH_ERROR_PROG;
 800188e:	4b19      	ldr	r3, [pc, #100]	; (80018f4 <FLASH_SetErrorCode+0x9c>)
 8001890:	69db      	ldr	r3, [r3, #28]
 8001892:	f043 0301 	orr.w	r3, r3, #1
 8001896:	4a17      	ldr	r2, [pc, #92]	; (80018f4 <FLASH_SetErrorCode+0x9c>)
 8001898:	61d3      	str	r3, [r2, #28]
#if defined(FLASH_BANK2_END)
    flags |= FLASH_FLAG_PGERR | FLASH_FLAG_PGERR_BANK2;
#else
    flags |= FLASH_FLAG_PGERR;
 800189a:	687b      	ldr	r3, [r7, #4]
 800189c:	f043 0304 	orr.w	r3, r3, #4
 80018a0:	607b      	str	r3, [r7, #4]
#endif /* FLASH_BANK2_END */
  }
  if(__HAL_FLASH_GET_FLAG(FLASH_FLAG_OPTVERR))
 80018a2:	4b13      	ldr	r3, [pc, #76]	; (80018f0 <FLASH_SetErrorCode+0x98>)
 80018a4:	69db      	ldr	r3, [r3, #28]
 80018a6:	f003 0301 	and.w	r3, r3, #1
 80018aa:	2b00      	cmp	r3, #0
 80018ac:	d00b      	beq.n	80018c6 <FLASH_SetErrorCode+0x6e>
  {
    pFlash.ErrorCode |= HAL_FLASH_ERROR_OPTV;
 80018ae:	4b11      	ldr	r3, [pc, #68]	; (80018f4 <FLASH_SetErrorCode+0x9c>)
 80018b0:	69db      	ldr	r3, [r3, #28]
 80018b2:	f043 0304 	orr.w	r3, r3, #4
 80018b6:	4a0f      	ldr	r2, [pc, #60]	; (80018f4 <FLASH_SetErrorCode+0x9c>)
 80018b8:	61d3      	str	r3, [r2, #28]
  __HAL_FLASH_CLEAR_FLAG(FLASH_FLAG_OPTVERR);
 80018ba:	4b0d      	ldr	r3, [pc, #52]	; (80018f0 <FLASH_SetErrorCode+0x98>)
 80018bc:	69db      	ldr	r3, [r3, #28]
 80018be:	4a0c      	ldr	r2, [pc, #48]	; (80018f0 <FLASH_SetErrorCode+0x98>)
 80018c0:	f023 0301 	bic.w	r3, r3, #1
 80018c4:	61d3      	str	r3, [r2, #28]
  }

  /* Clear FLASH error pending bits */
  __HAL_FLASH_CLEAR_FLAG(flags);
 80018c6:	687b      	ldr	r3, [r7, #4]
 80018c8:	f240 1201 	movw	r2, #257	; 0x101
 80018cc:	4293      	cmp	r3, r2
 80018ce:	d106      	bne.n	80018de <FLASH_SetErrorCode+0x86>
 80018d0:	4b07      	ldr	r3, [pc, #28]	; (80018f0 <FLASH_SetErrorCode+0x98>)
 80018d2:	69db      	ldr	r3, [r3, #28]
 80018d4:	4a06      	ldr	r2, [pc, #24]	; (80018f0 <FLASH_SetErrorCode+0x98>)
 80018d6:	f023 0301 	bic.w	r3, r3, #1
 80018da:	61d3      	str	r3, [r2, #28]
}  
 80018dc:	e002      	b.n	80018e4 <FLASH_SetErrorCode+0x8c>
  __HAL_FLASH_CLEAR_FLAG(flags);
 80018de:	4a04      	ldr	r2, [pc, #16]	; (80018f0 <FLASH_SetErrorCode+0x98>)
 80018e0:	687b      	ldr	r3, [r7, #4]
 80018e2:	60d3      	str	r3, [r2, #12]
}  
 80018e4:	bf00      	nop
 80018e6:	370c      	adds	r7, #12
 80018e8:	46bd      	mov	sp, r7
 80018ea:	bc80      	pop	{r7}
 80018ec:	4770      	bx	lr
 80018ee:	bf00      	nop
 80018f0:	40022000 	.word	0x40022000
 80018f4:	20000110 	.word	0x20000110

080018f8 <HAL_FLASHEx_Erase>:
  *         (0xFFFFFFFF means that all the pages have been correctly erased)
  *
  * @retval HAL_StatusTypeDef HAL Status
  */
HAL_StatusTypeDef HAL_FLASHEx_Erase(FLASH_EraseInitTypeDef *pEraseInit, uint32_t *PageError)
{
 80018f8:	b580      	push	{r7, lr}
 80018fa:	b084      	sub	sp, #16
 80018fc:	af00      	add	r7, sp, #0
 80018fe:	6078      	str	r0, [r7, #4]
 8001900:	6039      	str	r1, [r7, #0]
  HAL_StatusTypeDef status = HAL_ERROR;
 8001902:	2301      	movs	r3, #1
 8001904:	73fb      	strb	r3, [r7, #15]
  uint32_t address = 0U;
 8001906:	2300      	movs	r3, #0
 8001908:	60bb      	str	r3, [r7, #8]

  /* Process Locked */
  __HAL_LOCK(&pFlash);
 800190a:	4b2f      	ldr	r3, [pc, #188]	; (80019c8 <HAL_FLASHEx_Erase+0xd0>)
 800190c:	7e1b      	ldrb	r3, [r3, #24]
 800190e:	2b01      	cmp	r3, #1
 8001910:	d101      	bne.n	8001916 <HAL_FLASHEx_Erase+0x1e>
 8001912:	2302      	movs	r3, #2
 8001914:	e053      	b.n	80019be <HAL_FLASHEx_Erase+0xc6>
 8001916:	4b2c      	ldr	r3, [pc, #176]	; (80019c8 <HAL_FLASHEx_Erase+0xd0>)
 8001918:	2201      	movs	r2, #1
 800191a:	761a      	strb	r2, [r3, #24]

  /* Check the parameters */
  assert_param(IS_FLASH_TYPEERASE(pEraseInit->TypeErase));

  if (pEraseInit->TypeErase == FLASH_TYPEERASE_MASSERASE)
 800191c:	687b      	ldr	r3, [r7, #4]
 800191e:	681b      	ldr	r3, [r3, #0]
 8001920:	2b02      	cmp	r3, #2
 8001922:	d116      	bne.n	8001952 <HAL_FLASHEx_Erase+0x5a>
    else 
#endif /* FLASH_BANK2_END */
    {
      /* Mass Erase requested for Bank1 */
      /* Wait for last operation to be completed */
      if (FLASH_WaitForLastOperation((uint32_t)FLASH_TIMEOUT_VALUE) == HAL_OK)
 8001924:	f24c 3050 	movw	r0, #50000	; 0xc350
 8001928:	f7ff ff50 	bl	80017cc <FLASH_WaitForLastOperation>
 800192c:	4603      	mov	r3, r0
 800192e:	2b00      	cmp	r3, #0
 8001930:	d141      	bne.n	80019b6 <HAL_FLASHEx_Erase+0xbe>
      {
        /*Mass erase to be done*/
        FLASH_MassErase(FLASH_BANK_1);
 8001932:	2001      	movs	r0, #1
 8001934:	f000 f84c 	bl	80019d0 <FLASH_MassErase>
        
        /* Wait for last operation to be completed */
        status = FLASH_WaitForLastOperation((uint32_t)FLASH_TIMEOUT_VALUE);
 8001938:	f24c 3050 	movw	r0, #50000	; 0xc350
 800193c:	f7ff ff46 	bl	80017cc <FLASH_WaitForLastOperation>
 8001940:	4603      	mov	r3, r0
 8001942:	73fb      	strb	r3, [r7, #15]
        
        /* If the erase operation is completed, disable the MER Bit */
        CLEAR_BIT(FLASH->CR, FLASH_CR_MER);
 8001944:	4b21      	ldr	r3, [pc, #132]	; (80019cc <HAL_FLASHEx_Erase+0xd4>)
 8001946:	691b      	ldr	r3, [r3, #16]
 8001948:	4a20      	ldr	r2, [pc, #128]	; (80019cc <HAL_FLASHEx_Erase+0xd4>)
 800194a:	f023 0304 	bic.w	r3, r3, #4
 800194e:	6113      	str	r3, [r2, #16]
 8001950:	e031      	b.n	80019b6 <HAL_FLASHEx_Erase+0xbe>
    else
#endif /* FLASH_BANK2_END */
   {
      /* Page Erase requested on address located on bank1 */
      /* Wait for last operation to be completed */
      if (FLASH_WaitForLastOperation((uint32_t)FLASH_TIMEOUT_VALUE) == HAL_OK)
 8001952:	f24c 3050 	movw	r0, #50000	; 0xc350
 8001956:	f7ff ff39 	bl	80017cc <FLASH_WaitForLastOperation>
 800195a:	4603      	mov	r3, r0
 800195c:	2b00      	cmp	r3, #0
 800195e:	d12a      	bne.n	80019b6 <HAL_FLASHEx_Erase+0xbe>
      {
        /*Initialization of PageError variable*/
        *PageError = 0xFFFFFFFFU;
 8001960:	683b      	ldr	r3, [r7, #0]
 8001962:	f04f 32ff 	mov.w	r2, #4294967295
 8001966:	601a      	str	r2, [r3, #0]
        
        /* Erase page by page to be done*/
        for(address = pEraseInit->PageAddress;
 8001968:	687b      	ldr	r3, [r7, #4]
 800196a:	689b      	ldr	r3, [r3, #8]
 800196c:	60bb      	str	r3, [r7, #8]
 800196e:	e019      	b.n	80019a4 <HAL_FLASHEx_Erase+0xac>
            address < ((pEraseInit->NbPages * FLASH_PAGE_SIZE) + pEraseInit->PageAddress);
            address += FLASH_PAGE_SIZE)
        {
          FLASH_PageErase(address);
 8001970:	68b8      	ldr	r0, [r7, #8]
 8001972:	f000 f849 	bl	8001a08 <FLASH_PageErase>
          
          /* Wait for last operation to be completed */
          status = FLASH_WaitForLastOperation((uint32_t)FLASH_TIMEOUT_VALUE);
 8001976:	f24c 3050 	movw	r0, #50000	; 0xc350
 800197a:	f7ff ff27 	bl	80017cc <FLASH_WaitForLastOperation>
 800197e:	4603      	mov	r3, r0
 8001980:	73fb      	strb	r3, [r7, #15]
          
          /* If the erase operation is completed, disable the PER Bit */
          CLEAR_BIT(FLASH->CR, FLASH_CR_PER);
 8001982:	4b12      	ldr	r3, [pc, #72]	; (80019cc <HAL_FLASHEx_Erase+0xd4>)
 8001984:	691b      	ldr	r3, [r3, #16]
 8001986:	4a11      	ldr	r2, [pc, #68]	; (80019cc <HAL_FLASHEx_Erase+0xd4>)
 8001988:	f023 0302 	bic.w	r3, r3, #2
 800198c:	6113      	str	r3, [r2, #16]
          
          if (status != HAL_OK)
 800198e:	7bfb      	ldrb	r3, [r7, #15]
 8001990:	2b00      	cmp	r3, #0
 8001992:	d003      	beq.n	800199c <HAL_FLASHEx_Erase+0xa4>
          {
            /* In case of error, stop erase procedure and return the faulty address */
            *PageError = address;
 8001994:	683b      	ldr	r3, [r7, #0]
 8001996:	68ba      	ldr	r2, [r7, #8]
 8001998:	601a      	str	r2, [r3, #0]
            break;
 800199a:	e00c      	b.n	80019b6 <HAL_FLASHEx_Erase+0xbe>
            address += FLASH_PAGE_SIZE)
 800199c:	68bb      	ldr	r3, [r7, #8]
 800199e:	f503 6380 	add.w	r3, r3, #1024	; 0x400
 80019a2:	60bb      	str	r3, [r7, #8]
            address < ((pEraseInit->NbPages * FLASH_PAGE_SIZE) + pEraseInit->PageAddress);
 80019a4:	687b      	ldr	r3, [r7, #4]
 80019a6:	68db      	ldr	r3, [r3, #12]
 80019a8:	029a      	lsls	r2, r3, #10
 80019aa:	687b      	ldr	r3, [r7, #4]
 80019ac:	689b      	ldr	r3, [r3, #8]
 80019ae:	4413      	add	r3, r2
        for(address = pEraseInit->PageAddress;
 80019b0:	68ba      	ldr	r2, [r7, #8]
 80019b2:	429a      	cmp	r2, r3
 80019b4:	d3dc      	bcc.n	8001970 <HAL_FLASHEx_Erase+0x78>
      }
    }
  }

  /* Process Unlocked */
  __HAL_UNLOCK(&pFlash);
 80019b6:	4b04      	ldr	r3, [pc, #16]	; (80019c8 <HAL_FLASHEx_Erase+0xd0>)
 80019b8:	2200      	movs	r2, #0
 80019ba:	761a      	strb	r2, [r3, #24]

  return status;
 80019bc:	7bfb      	ldrb	r3, [r7, #15]
}
 80019be:	4618      	mov	r0, r3
 80019c0:	3710      	adds	r7, #16
 80019c2:	46bd      	mov	sp, r7
 80019c4:	bd80      	pop	{r7, pc}
 80019c6:	bf00      	nop
 80019c8:	20000110 	.word	0x20000110
 80019cc:	40022000 	.word	0x40022000

080019d0 <FLASH_MassErase>:
  @endif
  *
  * @retval None
  */
static void FLASH_MassErase(uint32_t Banks)
{
 80019d0:	b480      	push	{r7}
 80019d2:	b083      	sub	sp, #12
 80019d4:	af00      	add	r7, sp, #0
 80019d6:	6078      	str	r0, [r7, #4]
  /* Check the parameters */
  assert_param(IS_FLASH_BANK(Banks));

  /* Clean the error context */
  pFlash.ErrorCode = HAL_FLASH_ERROR_NONE;
 80019d8:	4b09      	ldr	r3, [pc, #36]	; (8001a00 <FLASH_MassErase+0x30>)
 80019da:	2200      	movs	r2, #0
 80019dc:	61da      	str	r2, [r3, #28]
#if !defined(FLASH_BANK2_END)
  /* Prevent unused argument(s) compilation warning */
  UNUSED(Banks);
#endif /* FLASH_BANK2_END */  
    /* Only bank1 will be erased*/
    SET_BIT(FLASH->CR, FLASH_CR_MER);
 80019de:	4b09      	ldr	r3, [pc, #36]	; (8001a04 <FLASH_MassErase+0x34>)
 80019e0:	691b      	ldr	r3, [r3, #16]
 80019e2:	4a08      	ldr	r2, [pc, #32]	; (8001a04 <FLASH_MassErase+0x34>)
 80019e4:	f043 0304 	orr.w	r3, r3, #4
 80019e8:	6113      	str	r3, [r2, #16]
    SET_BIT(FLASH->CR, FLASH_CR_STRT);
 80019ea:	4b06      	ldr	r3, [pc, #24]	; (8001a04 <FLASH_MassErase+0x34>)
 80019ec:	691b      	ldr	r3, [r3, #16]
 80019ee:	4a05      	ldr	r2, [pc, #20]	; (8001a04 <FLASH_MassErase+0x34>)
 80019f0:	f043 0340 	orr.w	r3, r3, #64	; 0x40
 80019f4:	6113      	str	r3, [r2, #16]
#if defined(FLASH_BANK2_END)
  }
#endif /* FLASH_BANK2_END */
}
 80019f6:	bf00      	nop
 80019f8:	370c      	adds	r7, #12
 80019fa:	46bd      	mov	sp, r7
 80019fc:	bc80      	pop	{r7}
 80019fe:	4770      	bx	lr
 8001a00:	20000110 	.word	0x20000110
 8001a04:	40022000 	.word	0x40022000

08001a08 <FLASH_PageErase>:
  *         The value of this parameter depend on device used within the same series      
  * 
  * @retval None
  */
void FLASH_PageErase(uint32_t PageAddress)
{
 8001a08:	b480      	push	{r7}
 8001a0a:	b083      	sub	sp, #12
 8001a0c:	af00      	add	r7, sp, #0
 8001a0e:	6078      	str	r0, [r7, #4]
  /* Clean the error context */
  pFlash.ErrorCode = HAL_FLASH_ERROR_NONE;
 8001a10:	4b0b      	ldr	r3, [pc, #44]	; (8001a40 <FLASH_PageErase+0x38>)
 8001a12:	2200      	movs	r2, #0
 8001a14:	61da      	str	r2, [r3, #28]
  }
  else
  {
#endif /* FLASH_BANK2_END */
    /* Proceed to erase the page */
    SET_BIT(FLASH->CR, FLASH_CR_PER);
 8001a16:	4b0b      	ldr	r3, [pc, #44]	; (8001a44 <FLASH_PageErase+0x3c>)
 8001a18:	691b      	ldr	r3, [r3, #16]
 8001a1a:	4a0a      	ldr	r2, [pc, #40]	; (8001a44 <FLASH_PageErase+0x3c>)
 8001a1c:	f043 0302 	orr.w	r3, r3, #2
 8001a20:	6113      	str	r3, [r2, #16]
    WRITE_REG(FLASH->AR, PageAddress);
 8001a22:	4a08      	ldr	r2, [pc, #32]	; (8001a44 <FLASH_PageErase+0x3c>)
 8001a24:	687b      	ldr	r3, [r7, #4]
 8001a26:	6153      	str	r3, [r2, #20]
    SET_BIT(FLASH->CR, FLASH_CR_STRT);
 8001a28:	4b06      	ldr	r3, [pc, #24]	; (8001a44 <FLASH_PageErase+0x3c>)
 8001a2a:	691b      	ldr	r3, [r3, #16]
 8001a2c:	4a05      	ldr	r2, [pc, #20]	; (8001a44 <FLASH_PageErase+0x3c>)
 8001a2e:	f043 0340 	orr.w	r3, r3, #64	; 0x40
 8001a32:	6113      	str	r3, [r2, #16]
#if defined(FLASH_BANK2_END)
  }
#endif /* FLASH_BANK2_END */
}
 8001a34:	bf00      	nop
 8001a36:	370c      	adds	r7, #12
 8001a38:	46bd      	mov	sp, r7
 8001a3a:	bc80      	pop	{r7}
 8001a3c:	4770      	bx	lr
 8001a3e:	bf00      	nop
 8001a40:	20000110 	.word	0x20000110
 8001a44:	40022000 	.word	0x40022000

08001a48 <HAL_GPIO_Init>:
  * @param  GPIO_Init: pointer to a GPIO_InitTypeDef structure that contains
  *         the configuration information for the specified GPIO peripheral.
  * @retval None
  */
void HAL_GPIO_Init(GPIO_TypeDef  *GPIOx, GPIO_InitTypeDef *GPIO_Init)
{
 8001a48:	b480      	push	{r7}
 8001a4a:	b08b      	sub	sp, #44	; 0x2c
 8001a4c:	af00      	add	r7, sp, #0
 8001a4e:	6078      	str	r0, [r7, #4]
 8001a50:	6039      	str	r1, [r7, #0]
  uint32_t position = 0x00u;
 8001a52:	2300      	movs	r3, #0
 8001a54:	627b      	str	r3, [r7, #36]	; 0x24
  uint32_t ioposition;
  uint32_t iocurrent;
  uint32_t temp;
  uint32_t config = 0x00u;
 8001a56:	2300      	movs	r3, #0
 8001a58:	623b      	str	r3, [r7, #32]
  assert_param(IS_GPIO_ALL_INSTANCE(GPIOx));
  assert_param(IS_GPIO_PIN(GPIO_Init->Pin));
  assert_param(IS_GPIO_MODE(GPIO_Init->Mode));

  /* Configure the port pins */
  while (((GPIO_Init->Pin) >> position) != 0x00u)
 8001a5a:	e169      	b.n	8001d30 <HAL_GPIO_Init+0x2e8>
  {
    /* Get the IO position */
    ioposition = (0x01uL << position);
 8001a5c:	2201      	movs	r2, #1
 8001a5e:	6a7b      	ldr	r3, [r7, #36]	; 0x24
 8001a60:	fa02 f303 	lsl.w	r3, r2, r3
 8001a64:	61fb      	str	r3, [r7, #28]

    /* Get the current IO position */
    iocurrent = (uint32_t)(GPIO_Init->Pin) & ioposition;
 8001a66:	683b      	ldr	r3, [r7, #0]
 8001a68:	681b      	ldr	r3, [r3, #0]
 8001a6a:	69fa      	ldr	r2, [r7, #28]
 8001a6c:	4013      	ands	r3, r2
 8001a6e:	61bb      	str	r3, [r7, #24]

    if (iocurrent == ioposition)
 8001a70:	69ba      	ldr	r2, [r7, #24]
 8001a72:	69fb      	ldr	r3, [r7, #28]
 8001a74:	429a      	cmp	r2, r3
 8001a76:	f040 8158 	bne.w	8001d2a <HAL_GPIO_Init+0x2e2>
    {
      /* Check the Alternate function parameters */
      assert_param(IS_GPIO_AF_INSTANCE(GPIOx));

      /* Based on the required mode, filling config variable with MODEy[1:0] and CNFy[3:2] corresponding bits */
      switch (GPIO_Init->Mode)
 8001a7a:	683b      	ldr	r3, [r7, #0]
 8001a7c:	685b      	ldr	r3, [r3, #4]
 8001a7e:	4a9a      	ldr	r2, [pc, #616]	; (8001ce8 <HAL_GPIO_Init+0x2a0>)
 8001a80:	4293      	cmp	r3, r2
 8001a82:	d05e      	beq.n	8001b42 <HAL_GPIO_Init+0xfa>
 8001a84:	4a98      	ldr	r2, [pc, #608]	; (8001ce8 <HAL_GPIO_Init+0x2a0>)
 8001a86:	4293      	cmp	r3, r2
 8001a88:	d875      	bhi.n	8001b76 <HAL_GPIO_Init+0x12e>
 8001a8a:	4a98      	ldr	r2, [pc, #608]	; (8001cec <HAL_GPIO_Init+0x2a4>)
 8001a8c:	4293      	cmp	r3, r2
 8001a8e:	d058      	beq.n	8001b42 <HAL_GPIO_Init+0xfa>
 8001a90:	4a96      	ldr	r2, [pc, #600]	; (8001cec <HAL_GPIO_Init+0x2a4>)
 8001a92:	4293      	cmp	r3, r2
 8001a94:	d86f      	bhi.n	8001b76 <HAL_GPIO_Init+0x12e>
 8001a96:	4a96      	ldr	r2, [pc, #600]	; (8001cf0 <HAL_GPIO_Init+0x2a8>)
 8001a98:	4293      	cmp	r3, r2
 8001a9a:	d052      	beq.n	8001b42 <HAL_GPIO_Init+0xfa>
 8001a9c:	4a94      	ldr	r2, [pc, #592]	; (8001cf0 <HAL_GPIO_Init+0x2a8>)
 8001a9e:	4293      	cmp	r3, r2
 8001aa0:	d869      	bhi.n	8001b76 <HAL_GPIO_Init+0x12e>
 8001aa2:	4a94      	ldr	r2, [pc, #592]	; (8001cf4 <HAL_GPIO_Init+0x2ac>)
 8001aa4:	4293      	cmp	r3, r2
 8001aa6:	d04c      	beq.n	8001b42 <HAL_GPIO_Init+0xfa>
 8001aa8:	4a92      	ldr	r2, [pc, #584]	; (8001cf4 <HAL_GPIO_Init+0x2ac>)
 8001aaa:	4293      	cmp	r3, r2
 8001aac:	d863      	bhi.n	8001b76 <HAL_GPIO_Init+0x12e>
 8001aae:	4a92      	ldr	r2, [pc, #584]	; (8001cf8 <HAL_GPIO_Init+0x2b0>)
 8001ab0:	4293      	cmp	r3, r2
 8001ab2:	d046      	beq.n	8001b42 <HAL_GPIO_Init+0xfa>
 8001ab4:	4a90      	ldr	r2, [pc, #576]	; (8001cf8 <HAL_GPIO_Init+0x2b0>)
 8001ab6:	4293      	cmp	r3, r2
 8001ab8:	d85d      	bhi.n	8001b76 <HAL_GPIO_Init+0x12e>
 8001aba:	2b12      	cmp	r3, #18
 8001abc:	d82a      	bhi.n	8001b14 <HAL_GPIO_Init+0xcc>
 8001abe:	2b12      	cmp	r3, #18
 8001ac0:	d859      	bhi.n	8001b76 <HAL_GPIO_Init+0x12e>
 8001ac2:	a201      	add	r2, pc, #4	; (adr r2, 8001ac8 <HAL_GPIO_Init+0x80>)
 8001ac4:	f852 f023 	ldr.w	pc, [r2, r3, lsl #2]
 8001ac8:	08001b43 	.word	0x08001b43
 8001acc:	08001b1d 	.word	0x08001b1d
 8001ad0:	08001b2f 	.word	0x08001b2f
 8001ad4:	08001b71 	.word	0x08001b71
 8001ad8:	08001b77 	.word	0x08001b77
 8001adc:	08001b77 	.word	0x08001b77
 8001ae0:	08001b77 	.word	0x08001b77
 8001ae4:	08001b77 	.word	0x08001b77
 8001ae8:	08001b77 	.word	0x08001b77
 8001aec:	08001b77 	.word	0x08001b77
 8001af0:	08001b77 	.word	0x08001b77
 8001af4:	08001b77 	.word	0x08001b77
 8001af8:	08001b77 	.word	0x08001b77
 8001afc:	08001b77 	.word	0x08001b77
 8001b00:	08001b77 	.word	0x08001b77
 8001b04:	08001b77 	.word	0x08001b77
 8001b08:	08001b77 	.word	0x08001b77
 8001b0c:	08001b25 	.word	0x08001b25
 8001b10:	08001b39 	.word	0x08001b39
 8001b14:	4a79      	ldr	r2, [pc, #484]	; (8001cfc <HAL_GPIO_Init+0x2b4>)
 8001b16:	4293      	cmp	r3, r2
 8001b18:	d013      	beq.n	8001b42 <HAL_GPIO_Init+0xfa>
          config = GPIO_CR_MODE_INPUT + GPIO_CR_CNF_ANALOG;
          break;

        /* Parameters are checked with assert_param */
        default:
          break;
 8001b1a:	e02c      	b.n	8001b76 <HAL_GPIO_Init+0x12e>
          config = GPIO_Init->Speed + GPIO_CR_CNF_GP_OUTPUT_PP;
 8001b1c:	683b      	ldr	r3, [r7, #0]
 8001b1e:	68db      	ldr	r3, [r3, #12]
 8001b20:	623b      	str	r3, [r7, #32]
          break;
 8001b22:	e029      	b.n	8001b78 <HAL_GPIO_Init+0x130>
          config = GPIO_Init->Speed + GPIO_CR_CNF_GP_OUTPUT_OD;
 8001b24:	683b      	ldr	r3, [r7, #0]
 8001b26:	68db      	ldr	r3, [r3, #12]
 8001b28:	3304      	adds	r3, #4
 8001b2a:	623b      	str	r3, [r7, #32]
          break;
 8001b2c:	e024      	b.n	8001b78 <HAL_GPIO_Init+0x130>
          config = GPIO_Init->Speed + GPIO_CR_CNF_AF_OUTPUT_PP;
 8001b2e:	683b      	ldr	r3, [r7, #0]
 8001b30:	68db      	ldr	r3, [r3, #12]
 8001b32:	3308      	adds	r3, #8
 8001b34:	623b      	str	r3, [r7, #32]
          break;
 8001b36:	e01f      	b.n	8001b78 <HAL_GPIO_Init+0x130>
          config = GPIO_Init->Speed + GPIO_CR_CNF_AF_OUTPUT_OD;
 8001b38:	683b      	ldr	r3, [r7, #0]
 8001b3a:	68db      	ldr	r3, [r3, #12]
 8001b3c:	330c      	adds	r3, #12
 8001b3e:	623b      	str	r3, [r7, #32]
          break;
 8001b40:	e01a      	b.n	8001b78 <HAL_GPIO_Init+0x130>
          if (GPIO_Init->Pull == GPIO_NOPULL)
 8001b42:	683b      	ldr	r3, [r7, #0]
 8001b44:	689b      	ldr	r3, [r3, #8]
 8001b46:	2b00      	cmp	r3, #0
 8001b48:	d102      	bne.n	8001b50 <HAL_GPIO_Init+0x108>
            config = GPIO_CR_MODE_INPUT + GPIO_CR_CNF_INPUT_FLOATING;
 8001b4a:	2304      	movs	r3, #4
 8001b4c:	623b      	str	r3, [r7, #32]
          break;
 8001b4e:	e013      	b.n	8001b78 <HAL_GPIO_Init+0x130>
          else if (GPIO_Init->Pull == GPIO_PULLUP)
 8001b50:	683b      	ldr	r3, [r7, #0]
 8001b52:	689b      	ldr	r3, [r3, #8]
 8001b54:	2b01      	cmp	r3, #1
 8001b56:	d105      	bne.n	8001b64 <HAL_GPIO_Init+0x11c>
            config = GPIO_CR_MODE_INPUT + GPIO_CR_CNF_INPUT_PU_PD;
 8001b58:	2308      	movs	r3, #8
 8001b5a:	623b      	str	r3, [r7, #32]
            GPIOx->BSRR = ioposition;
 8001b5c:	687b      	ldr	r3, [r7, #4]
 8001b5e:	69fa      	ldr	r2, [r7, #28]
 8001b60:	611a      	str	r2, [r3, #16]
          break;
 8001b62:	e009      	b.n	8001b78 <HAL_GPIO_Init+0x130>
            config = GPIO_CR_MODE_INPUT + GPIO_CR_CNF_INPUT_PU_PD;
 8001b64:	2308      	movs	r3, #8
 8001b66:	623b      	str	r3, [r7, #32]
            GPIOx->BRR = ioposition;
 8001b68:	687b      	ldr	r3, [r7, #4]
 8001b6a:	69fa      	ldr	r2, [r7, #28]
 8001b6c:	615a      	str	r2, [r3, #20]
          break;
 8001b6e:	e003      	b.n	8001b78 <HAL_GPIO_Init+0x130>
          config = GPIO_CR_MODE_INPUT + GPIO_CR_CNF_ANALOG;
 8001b70:	2300      	movs	r3, #0
 8001b72:	623b      	str	r3, [r7, #32]
          break;
 8001b74:	e000      	b.n	8001b78 <HAL_GPIO_Init+0x130>
          break;
 8001b76:	bf00      	nop
      }

      /* Check if the current bit belongs to first half or last half of the pin count number
       in order to address CRH or CRL register*/
      configregister = (iocurrent < GPIO_PIN_8) ? &GPIOx->CRL     : &GPIOx->CRH;
 8001b78:	69bb      	ldr	r3, [r7, #24]
 8001b7a:	2bff      	cmp	r3, #255	; 0xff
 8001b7c:	d801      	bhi.n	8001b82 <HAL_GPIO_Init+0x13a>
 8001b7e:	687b      	ldr	r3, [r7, #4]
 8001b80:	e001      	b.n	8001b86 <HAL_GPIO_Init+0x13e>
 8001b82:	687b      	ldr	r3, [r7, #4]
 8001b84:	3304      	adds	r3, #4
 8001b86:	617b      	str	r3, [r7, #20]
      registeroffset = (iocurrent < GPIO_PIN_8) ? (position << 2u) : ((position - 8u) << 2u);
 8001b88:	69bb      	ldr	r3, [r7, #24]
 8001b8a:	2bff      	cmp	r3, #255	; 0xff
 8001b8c:	d802      	bhi.n	8001b94 <HAL_GPIO_Init+0x14c>
 8001b8e:	6a7b      	ldr	r3, [r7, #36]	; 0x24
 8001b90:	009b      	lsls	r3, r3, #2
 8001b92:	e002      	b.n	8001b9a <HAL_GPIO_Init+0x152>
 8001b94:	6a7b      	ldr	r3, [r7, #36]	; 0x24
 8001b96:	3b08      	subs	r3, #8
 8001b98:	009b      	lsls	r3, r3, #2
 8001b9a:	613b      	str	r3, [r7, #16]

      /* Apply the new configuration of the pin to the register */
      MODIFY_REG((*configregister), ((GPIO_CRL_MODE0 | GPIO_CRL_CNF0) << registeroffset), (config << registeroffset));
 8001b9c:	697b      	ldr	r3, [r7, #20]
 8001b9e:	681a      	ldr	r2, [r3, #0]
 8001ba0:	210f      	movs	r1, #15
 8001ba2:	693b      	ldr	r3, [r7, #16]
 8001ba4:	fa01 f303 	lsl.w	r3, r1, r3
 8001ba8:	43db      	mvns	r3, r3
 8001baa:	401a      	ands	r2, r3
 8001bac:	6a39      	ldr	r1, [r7, #32]
 8001bae:	693b      	ldr	r3, [r7, #16]
 8001bb0:	fa01 f303 	lsl.w	r3, r1, r3
 8001bb4:	431a      	orrs	r2, r3
 8001bb6:	697b      	ldr	r3, [r7, #20]
 8001bb8:	601a      	str	r2, [r3, #0]

      /*--------------------- EXTI Mode Configuration ------------------------*/
      /* Configure the External Interrupt or event for the current IO */
      if ((GPIO_Init->Mode & EXTI_MODE) == EXTI_MODE)
 8001bba:	683b      	ldr	r3, [r7, #0]
 8001bbc:	685b      	ldr	r3, [r3, #4]
 8001bbe:	f003 5380 	and.w	r3, r3, #268435456	; 0x10000000
 8001bc2:	2b00      	cmp	r3, #0
 8001bc4:	f000 80b1 	beq.w	8001d2a <HAL_GPIO_Init+0x2e2>
      {
        /* Enable AFIO Clock */
        __HAL_RCC_AFIO_CLK_ENABLE();
 8001bc8:	4b4d      	ldr	r3, [pc, #308]	; (8001d00 <HAL_GPIO_Init+0x2b8>)
 8001bca:	699b      	ldr	r3, [r3, #24]
 8001bcc:	4a4c      	ldr	r2, [pc, #304]	; (8001d00 <HAL_GPIO_Init+0x2b8>)
 8001bce:	f043 0301 	orr.w	r3, r3, #1
 8001bd2:	6193      	str	r3, [r2, #24]
 8001bd4:	4b4a      	ldr	r3, [pc, #296]	; (8001d00 <HAL_GPIO_Init+0x2b8>)
 8001bd6:	699b      	ldr	r3, [r3, #24]
 8001bd8:	f003 0301 	and.w	r3, r3, #1
 8001bdc:	60bb      	str	r3, [r7, #8]
 8001bde:	68bb      	ldr	r3, [r7, #8]
        temp = AFIO->EXTICR[position >> 2u];
 8001be0:	4a48      	ldr	r2, [pc, #288]	; (8001d04 <HAL_GPIO_Init+0x2bc>)
 8001be2:	6a7b      	ldr	r3, [r7, #36]	; 0x24
 8001be4:	089b      	lsrs	r3, r3, #2
 8001be6:	3302      	adds	r3, #2
 8001be8:	f852 3023 	ldr.w	r3, [r2, r3, lsl #2]
 8001bec:	60fb      	str	r3, [r7, #12]
        CLEAR_BIT(temp, (0x0Fu) << (4u * (position & 0x03u)));
 8001bee:	6a7b      	ldr	r3, [r7, #36]	; 0x24
 8001bf0:	f003 0303 	and.w	r3, r3, #3
 8001bf4:	009b      	lsls	r3, r3, #2
 8001bf6:	220f      	movs	r2, #15
 8001bf8:	fa02 f303 	lsl.w	r3, r2, r3
 8001bfc:	43db      	mvns	r3, r3
 8001bfe:	68fa      	ldr	r2, [r7, #12]
 8001c00:	4013      	ands	r3, r2
 8001c02:	60fb      	str	r3, [r7, #12]
        SET_BIT(temp, (GPIO_GET_INDEX(GPIOx)) << (4u * (position & 0x03u)));
 8001c04:	687b      	ldr	r3, [r7, #4]
 8001c06:	4a40      	ldr	r2, [pc, #256]	; (8001d08 <HAL_GPIO_Init+0x2c0>)
 8001c08:	4293      	cmp	r3, r2
 8001c0a:	d013      	beq.n	8001c34 <HAL_GPIO_Init+0x1ec>
 8001c0c:	687b      	ldr	r3, [r7, #4]
 8001c0e:	4a3f      	ldr	r2, [pc, #252]	; (8001d0c <HAL_GPIO_Init+0x2c4>)
 8001c10:	4293      	cmp	r3, r2
 8001c12:	d00d      	beq.n	8001c30 <HAL_GPIO_Init+0x1e8>
 8001c14:	687b      	ldr	r3, [r7, #4]
 8001c16:	4a3e      	ldr	r2, [pc, #248]	; (8001d10 <HAL_GPIO_Init+0x2c8>)
 8001c18:	4293      	cmp	r3, r2
 8001c1a:	d007      	beq.n	8001c2c <HAL_GPIO_Init+0x1e4>
 8001c1c:	687b      	ldr	r3, [r7, #4]
 8001c1e:	4a3d      	ldr	r2, [pc, #244]	; (8001d14 <HAL_GPIO_Init+0x2cc>)
 8001c20:	4293      	cmp	r3, r2
 8001c22:	d101      	bne.n	8001c28 <HAL_GPIO_Init+0x1e0>
 8001c24:	2303      	movs	r3, #3
 8001c26:	e006      	b.n	8001c36 <HAL_GPIO_Init+0x1ee>
 8001c28:	2304      	movs	r3, #4
 8001c2a:	e004      	b.n	8001c36 <HAL_GPIO_Init+0x1ee>
 8001c2c:	2302      	movs	r3, #2
 8001c2e:	e002      	b.n	8001c36 <HAL_GPIO_Init+0x1ee>
 8001c30:	2301      	movs	r3, #1
 8001c32:	e000      	b.n	8001c36 <HAL_GPIO_Init+0x1ee>
 8001c34:	2300      	movs	r3, #0
 8001c36:	6a7a      	ldr	r2, [r7, #36]	; 0x24
 8001c38:	f002 0203 	and.w	r2, r2, #3
 8001c3c:	0092      	lsls	r2, r2, #2
 8001c3e:	4093      	lsls	r3, r2
 8001c40:	68fa      	ldr	r2, [r7, #12]
 8001c42:	4313      	orrs	r3, r2
 8001c44:	60fb      	str	r3, [r7, #12]
        AFIO->EXTICR[position >> 2u] = temp;
 8001c46:	492f      	ldr	r1, [pc, #188]	; (8001d04 <HAL_GPIO_Init+0x2bc>)
 8001c48:	6a7b      	ldr	r3, [r7, #36]	; 0x24
 8001c4a:	089b      	lsrs	r3, r3, #2
 8001c4c:	3302      	adds	r3, #2
 8001c4e:	68fa      	ldr	r2, [r7, #12]
 8001c50:	f841 2023 	str.w	r2, [r1, r3, lsl #2]


        /* Configure the interrupt mask */
        if ((GPIO_Init->Mode & GPIO_MODE_IT) == GPIO_MODE_IT)
 8001c54:	683b      	ldr	r3, [r7, #0]
 8001c56:	685b      	ldr	r3, [r3, #4]
 8001c58:	f403 3380 	and.w	r3, r3, #65536	; 0x10000
 8001c5c:	2b00      	cmp	r3, #0
 8001c5e:	d006      	beq.n	8001c6e <HAL_GPIO_Init+0x226>
        {
          SET_BIT(EXTI->IMR, iocurrent);
 8001c60:	4b2d      	ldr	r3, [pc, #180]	; (8001d18 <HAL_GPIO_Init+0x2d0>)
 8001c62:	681a      	ldr	r2, [r3, #0]
 8001c64:	492c      	ldr	r1, [pc, #176]	; (8001d18 <HAL_GPIO_Init+0x2d0>)
 8001c66:	69bb      	ldr	r3, [r7, #24]
 8001c68:	4313      	orrs	r3, r2
 8001c6a:	600b      	str	r3, [r1, #0]
 8001c6c:	e006      	b.n	8001c7c <HAL_GPIO_Init+0x234>
        }
        else
        {
          CLEAR_BIT(EXTI->IMR, iocurrent);
 8001c6e:	4b2a      	ldr	r3, [pc, #168]	; (8001d18 <HAL_GPIO_Init+0x2d0>)
 8001c70:	681a      	ldr	r2, [r3, #0]
 8001c72:	69bb      	ldr	r3, [r7, #24]
 8001c74:	43db      	mvns	r3, r3
 8001c76:	4928      	ldr	r1, [pc, #160]	; (8001d18 <HAL_GPIO_Init+0x2d0>)
 8001c78:	4013      	ands	r3, r2
 8001c7a:	600b      	str	r3, [r1, #0]
        }

        /* Configure the event mask */
        if ((GPIO_Init->Mode & GPIO_MODE_EVT) == GPIO_MODE_EVT)
 8001c7c:	683b      	ldr	r3, [r7, #0]
 8001c7e:	685b      	ldr	r3, [r3, #4]
 8001c80:	f403 3300 	and.w	r3, r3, #131072	; 0x20000
 8001c84:	2b00      	cmp	r3, #0
 8001c86:	d006      	beq.n	8001c96 <HAL_GPIO_Init+0x24e>
        {
          SET_BIT(EXTI->EMR, iocurrent);
 8001c88:	4b23      	ldr	r3, [pc, #140]	; (8001d18 <HAL_GPIO_Init+0x2d0>)
 8001c8a:	685a      	ldr	r2, [r3, #4]
 8001c8c:	4922      	ldr	r1, [pc, #136]	; (8001d18 <HAL_GPIO_Init+0x2d0>)
 8001c8e:	69bb      	ldr	r3, [r7, #24]
 8001c90:	4313      	orrs	r3, r2
 8001c92:	604b      	str	r3, [r1, #4]
 8001c94:	e006      	b.n	8001ca4 <HAL_GPIO_Init+0x25c>
        }
        else
        {
          CLEAR_BIT(EXTI->EMR, iocurrent);
 8001c96:	4b20      	ldr	r3, [pc, #128]	; (8001d18 <HAL_GPIO_Init+0x2d0>)
 8001c98:	685a      	ldr	r2, [r3, #4]
 8001c9a:	69bb      	ldr	r3, [r7, #24]
 8001c9c:	43db      	mvns	r3, r3
 8001c9e:	491e      	ldr	r1, [pc, #120]	; (8001d18 <HAL_GPIO_Init+0x2d0>)
 8001ca0:	4013      	ands	r3, r2
 8001ca2:	604b      	str	r3, [r1, #4]
        }

        /* Enable or disable the rising trigger */
        if ((GPIO_Init->Mode & RISING_EDGE) == RISING_EDGE)
 8001ca4:	683b      	ldr	r3, [r7, #0]
 8001ca6:	685b      	ldr	r3, [r3, #4]
 8001ca8:	f403 1380 	and.w	r3, r3, #1048576	; 0x100000
 8001cac:	2b00      	cmp	r3, #0
 8001cae:	d006      	beq.n	8001cbe <HAL_GPIO_Init+0x276>
        {
          SET_BIT(EXTI->RTSR, iocurrent);
 8001cb0:	4b19      	ldr	r3, [pc, #100]	; (8001d18 <HAL_GPIO_Init+0x2d0>)
 8001cb2:	689a      	ldr	r2, [r3, #8]
 8001cb4:	4918      	ldr	r1, [pc, #96]	; (8001d18 <HAL_GPIO_Init+0x2d0>)
 8001cb6:	69bb      	ldr	r3, [r7, #24]
 8001cb8:	4313      	orrs	r3, r2
 8001cba:	608b      	str	r3, [r1, #8]
 8001cbc:	e006      	b.n	8001ccc <HAL_GPIO_Init+0x284>
        }
        else
        {
          CLEAR_BIT(EXTI->RTSR, iocurrent);
 8001cbe:	4b16      	ldr	r3, [pc, #88]	; (8001d18 <HAL_GPIO_Init+0x2d0>)
 8001cc0:	689a      	ldr	r2, [r3, #8]
 8001cc2:	69bb      	ldr	r3, [r7, #24]
 8001cc4:	43db      	mvns	r3, r3
 8001cc6:	4914      	ldr	r1, [pc, #80]	; (8001d18 <HAL_GPIO_Init+0x2d0>)
 8001cc8:	4013      	ands	r3, r2
 8001cca:	608b      	str	r3, [r1, #8]
        }

        /* Enable or disable the falling trigger */
        if ((GPIO_Init->Mode & FALLING_EDGE) == FALLING_EDGE)
 8001ccc:	683b      	ldr	r3, [r7, #0]
 8001cce:	685b      	ldr	r3, [r3, #4]
 8001cd0:	f403 1300 	and.w	r3, r3, #2097152	; 0x200000
 8001cd4:	2b00      	cmp	r3, #0
 8001cd6:	d021      	beq.n	8001d1c <HAL_GPIO_Init+0x2d4>
        {
          SET_BIT(EXTI->FTSR, iocurrent);
 8001cd8:	4b0f      	ldr	r3, [pc, #60]	; (8001d18 <HAL_GPIO_Init+0x2d0>)
 8001cda:	68da      	ldr	r2, [r3, #12]
 8001cdc:	490e      	ldr	r1, [pc, #56]	; (8001d18 <HAL_GPIO_Init+0x2d0>)
 8001cde:	69bb      	ldr	r3, [r7, #24]
 8001ce0:	4313      	orrs	r3, r2
 8001ce2:	60cb      	str	r3, [r1, #12]
 8001ce4:	e021      	b.n	8001d2a <HAL_GPIO_Init+0x2e2>
 8001ce6:	bf00      	nop
 8001ce8:	10320000 	.word	0x10320000
 8001cec:	10310000 	.word	0x10310000
 8001cf0:	10220000 	.word	0x10220000
 8001cf4:	10210000 	.word	0x10210000
 8001cf8:	10120000 	.word	0x10120000
 8001cfc:	10110000 	.word	0x10110000
 8001d00:	40021000 	.word	0x40021000
 8001d04:	40010000 	.word	0x40010000
 8001d08:	40010800 	.word	0x40010800
 8001d0c:	40010c00 	.word	0x40010c00
 8001d10:	40011000 	.word	0x40011000
 8001d14:	40011400 	.word	0x40011400
 8001d18:	40010400 	.word	0x40010400
        }
        else
        {
          CLEAR_BIT(EXTI->FTSR, iocurrent);
 8001d1c:	4b0b      	ldr	r3, [pc, #44]	; (8001d4c <HAL_GPIO_Init+0x304>)
 8001d1e:	68da      	ldr	r2, [r3, #12]
 8001d20:	69bb      	ldr	r3, [r7, #24]
 8001d22:	43db      	mvns	r3, r3
 8001d24:	4909      	ldr	r1, [pc, #36]	; (8001d4c <HAL_GPIO_Init+0x304>)
 8001d26:	4013      	ands	r3, r2
 8001d28:	60cb      	str	r3, [r1, #12]
        }
      }
    }

	position++;
 8001d2a:	6a7b      	ldr	r3, [r7, #36]	; 0x24
 8001d2c:	3301      	adds	r3, #1
 8001d2e:	627b      	str	r3, [r7, #36]	; 0x24
  while (((GPIO_Init->Pin) >> position) != 0x00u)
 8001d30:	683b      	ldr	r3, [r7, #0]
 8001d32:	681a      	ldr	r2, [r3, #0]
 8001d34:	6a7b      	ldr	r3, [r7, #36]	; 0x24
 8001d36:	fa22 f303 	lsr.w	r3, r2, r3
 8001d3a:	2b00      	cmp	r3, #0
 8001d3c:	f47f ae8e 	bne.w	8001a5c <HAL_GPIO_Init+0x14>
  }
}
 8001d40:	bf00      	nop
 8001d42:	bf00      	nop
 8001d44:	372c      	adds	r7, #44	; 0x2c
 8001d46:	46bd      	mov	sp, r7
 8001d48:	bc80      	pop	{r7}
 8001d4a:	4770      	bx	lr
 8001d4c:	40010400 	.word	0x40010400

08001d50 <HAL_GPIO_ReadPin>:
  * @param  GPIO_Pin: specifies the port bit to read.
  *         This parameter can be GPIO_PIN_x where x can be (0..15).
  * @retval The input port pin value.
  */
GPIO_PinState HAL_GPIO_ReadPin(GPIO_TypeDef *GPIOx, uint16_t GPIO_Pin)
{
 8001d50:	b480      	push	{r7}
 8001d52:	b085      	sub	sp, #20
 8001d54:	af00      	add	r7, sp, #0
 8001d56:	6078      	str	r0, [r7, #4]
 8001d58:	460b      	mov	r3, r1
 8001d5a:	807b      	strh	r3, [r7, #2]
  GPIO_PinState bitstatus;

  /* Check the parameters */
  assert_param(IS_GPIO_PIN(GPIO_Pin));

  if ((GPIOx->IDR & GPIO_Pin) != (uint32_t)GPIO_PIN_RESET)
 8001d5c:	687b      	ldr	r3, [r7, #4]
 8001d5e:	689a      	ldr	r2, [r3, #8]
 8001d60:	887b      	ldrh	r3, [r7, #2]
 8001d62:	4013      	ands	r3, r2
 8001d64:	2b00      	cmp	r3, #0
 8001d66:	d002      	beq.n	8001d6e <HAL_GPIO_ReadPin+0x1e>
  {
    bitstatus = GPIO_PIN_SET;
 8001d68:	2301      	movs	r3, #1
 8001d6a:	73fb      	strb	r3, [r7, #15]
 8001d6c:	e001      	b.n	8001d72 <HAL_GPIO_ReadPin+0x22>
  }
  else
  {
    bitstatus = GPIO_PIN_RESET;
 8001d6e:	2300      	movs	r3, #0
